{"abi":[{"type":"constructor","inputs":[{"name":"_usdc","type":"address","internalType":"contract IERC20"},{"name":"_factory","type":"address","internalType":"contract IEulerSwapFactory"},{"name":"_evc","type":"address","internalType":"contract IEVC"},{"name":"_usdcVault","type":"address","internalType":"contract IEVault"},{"name":"_wethVault","type":"address","internalType":"contract IEVault"},{"name":"_weth","type":"address","internalType":"contract IERC20"},{"name":"_owner","type":"address","internalType":"address"}],"stateMutability":"nonpayable"},{"type":"function","name":"allowance","inputs":[{"name":"owner","type":"address","internalType":"address"},{"name":"spender","type":"address","internalType":"address"}],"outputs":[{"name":"","type":"uint256","internalType":"uint256"}],"stateMutability":"view"},{"type":"function","name":"approve","inputs":[{"name":"spender","type":"address","internalType":"address"},{"name":"value","type":"uint256","internalType":"uint256"}],"outputs":[{"name":"","type":"bool","internalType":"bool"}],"stateMutability":"nonpayable"},{"type":"function","name":"asset","inputs":[],"outputs":[{"name":"","type":"address","internalType":"address"}],"stateMutability":"view"},{"type":"function","name":"balanceOf","inputs":[{"name":"account","type":"address","internalType":"address"}],"outputs":[{"name":"","type":"uint256","internalType":"uint256"}],"stateMutability":"view"},{"type":"function","name":"borrowUsdc","inputs":[{"name":"usdcAmount","type":"uint256","internalType":"uint256"}],"outputs":[],"stateMutability":"nonpayable"},{"type":"function","name":"borrowWeth","inputs":[{"name":"wethAmount","type":"uint256","internalType":"uint256"}],"outputs":[],"stateMutability":"nonpayable"},{"type":"function","name":"convertToAssets","inputs":[{"name":"shares","type":"uint256","internalType":"uint256"}],"outputs":[{"name":"","type":"uint256","internalType":"uint256"}],"stateMutability":"view"},{"type":"function","name":"convertToShares","inputs":[{"name":"assets","type":"uint256","internalType":"uint256"}],"outputs":[{"name":"","type":"uint256","internalType":"uint256"}],"stateMutability":"view"},{"type":"function","name":"currentPool","inputs":[],"outputs":[{"name":"","type":"address","internalType":"address"}],"stateMutability":"view"},{"type":"function","name":"decimals","inputs":[],"outputs":[{"name":"","type":"uint8","internalType":"uint8"}],"stateMutability":"view"},{"type":"function","name":"deposit","inputs":[{"name":"assets","type":"uint256","internalType":"uint256"},{"name":"receiver","type":"address","internalType":"address"}],"outputs":[{"name":"","type":"uint256","internalType":"uint256"}],"stateMutability":"nonpayable"},{"type":"function","name":"evc","inputs":[],"outputs":[{"name":"","type":"address","internalType":"contract IEVC"}],"stateMutability":"view"},{"type":"function","name":"factory","inputs":[],"outputs":[{"name":"","type":"address","internalType":"contract IEulerSwapFactory"}],"stateMutability":"view"},{"type":"function","name":"getPositions","inputs":[],"outputs":[{"name":"usdcCollateral","type":"uint256","internalType":"uint256"},{"name":"wethBalance","type":"uint256","internalType":"uint256"},{"name":"wethDebt","type":"uint256","internalType":"uint256"},{"name":"activePool","type":"address","internalType":"address"}],"stateMutability":"view"},{"type":"function","name":"getUserNonceInfo","inputs":[{"name":"user","type":"address","internalType":"address"}],"outputs":[{"name":"used","type":"uint256","internalType":"uint256"},{"name":"remaining","type":"uint256","internalType":"uint256"}],"stateMutability":"view"},{"type":"function","name":"installPool","inputs":[{"name":"params","type":"tuple","internalType":"struct IEulerSwap.Params","components":[{"name":"vault0","type":"address","internalType":"address"},{"name":"vault1","type":"address","internalType":"address"},{"name":"eulerAccount","type":"address","internalType":"address"},{"name":"equilibriumReserve0","type":"uint112","internalType":"uint112"},{"name":"equilibriumReserve1","type":"uint112","internalType":"uint112"},{"name":"priceX","type":"uint256","internalType":"uint256"},{"name":"priceY","type":"uint256","internalType":"uint256"},{"name":"concentrationX","type":"uint256","internalType":"uint256"},{"name":"concentrationY","type":"uint256","internalType":"uint256"},{"name":"fee","type":"uint256","internalType":"uint256"},{"name":"protocolFee","type":"uint256","internalType":"uint256"},{"name":"protocolFeeRecipient","type":"address","internalType":"address"}]},{"name":"initialState","type":"tuple","internalType":"struct IEulerSwap.InitialState","components":[{"name":"currReserve0","type":"uint112","internalType":"uint112"},{"name":"currReserve1","type":"uint112","internalType":"uint112"}]},{"name":"salt","type":"bytes32","internalType":"bytes32"}],"outputs":[],"stateMutability":"nonpayable"},{"type":"function","name":"lastInitialState","inputs":[],"outputs":[{"name":"currReserve0","type":"uint112","internalType":"uint112"},{"name":"currReserve1","type":"uint112","internalType":"uint112"}],"stateMutability":"view"},{"type":"function","name":"lastParams","inputs":[],"outputs":[{"name":"vault0","type":"address","internalType":"address"},{"name":"vault1","type":"address","internalType":"address"},{"name":"eulerAccount","type":"address","internalType":"address"},{"name":"equilibriumReserve0","type":"uint112","internalType":"uint112"},{"name":"equilibriumReserve1","type":"uint112","internalType":"uint112"},{"name":"priceX","type":"uint256","internalType":"uint256"},{"name":"priceY","type":"uint256","internalType":"uint256"},{"name":"concentrationX","type":"uint256","internalType":"uint256"},{"name":"concentrationY","type":"uint256","internalType":"uint256"},{"name":"fee","type":"uint256","internalType":"uint256"},{"name":"protocolFee","type":"uint256","internalType":"uint256"},{"name":"protocolFeeRecipient","type":"address","internalType":"address"}],"stateMutability":"view"},{"type":"function","name":"lastSalt","inputs":[],"outputs":[{"name":"","type":"bytes32","internalType":"bytes32"}],"stateMutability":"view"},{"type":"function","name":"lendUsdc","inputs":[],"outputs":[],"stateMutability":"nonpayable"},{"type":"function","name":"lendWeth","inputs":[],"outputs":[],"stateMutability":"nonpayable"},{"type":"function","name":"maxDeposit","inputs":[{"name":"","type":"address","internalType":"address"}],"outputs":[{"name":"","type":"uint256","internalType":"uint256"}],"stateMutability":"view"},{"type":"function","name":"maxMint","inputs":[{"name":"","type":"address","internalType":"address"}],"outputs":[{"name":"","type":"uint256","internalType":"uint256"}],"stateMutability":"view"},{"type":"function","name":"maxRedeem","inputs":[{"name":"owner","type":"address","internalType":"address"}],"outputs":[{"name":"","type":"uint256","internalType":"uint256"}],"stateMutability":"view"},{"type":"function","name":"maxWithdraw","inputs":[{"name":"owner","type":"address","internalType":"address"}],"outputs":[{"name":"","type":"uint256","internalType":"uint256"}],"stateMutability":"view"},{"type":"function","name":"mint","inputs":[{"name":"shares","type":"uint256","internalType":"uint256"},{"name":"receiver","type":"address","internalType":"address"}],"outputs":[{"name":"","type":"uint256","internalType":"uint256"}],"stateMutability":"nonpayable"},{"type":"function","name":"name","inputs":[],"outputs":[{"name":"","type":"string","internalType":"string"}],"stateMutability":"view"},{"type":"function","name":"owner","inputs":[],"outputs":[{"name":"","type":"address","internalType":"address"}],"stateMutability":"view"},{"type":"function","name":"previewDeposit","inputs":[{"name":"assets","type":"uint256","internalType":"uint256"}],"outputs":[{"name":"","type":"uint256","internalType":"uint256"}],"stateMutability":"view"},{"type":"function","name":"previewMint","inputs":[{"name":"shares","type":"uint256","internalType":"uint256"}],"outputs":[{"name":"","type":"uint256","internalType":"uint256"}],"stateMutability":"view"},{"type":"function","name":"previewProportionalWithdraw","inputs":[{"name":"user","type":"address","internalType":"address"}],"outputs":[{"name":"usdcAmount","type":"uint256","internalType":"uint256"},{"name":"wethAmount","type":"uint256","internalType":"uint256"},{"name":"wethDebt","type":"uint256","internalType":"uint256"}],"stateMutability":"view"},{"type":"function","name":"previewRedeem","inputs":[{"name":"shares","type":"uint256","internalType":"uint256"}],"outputs":[{"name":"","type":"uint256","internalType":"uint256"}],"stateMutability":"view"},{"type":"function","name":"previewWithdraw","inputs":[{"name":"assets","type":"uint256","internalType":"uint256"}],"outputs":[{"name":"","type":"uint256","internalType":"uint256"}],"stateMutability":"view"},{"type":"function","name":"previewWithdrawalSubAccount","inputs":[{"name":"user","type":"address","internalType":"address"}],"outputs":[{"name":"","type":"address","internalType":"address"}],"stateMutability":"view"},{"type":"function","name":"rebalance","inputs":[{"name":"usdcToLend","type":"uint256","internalType":"uint256"},{"name":"targetWethBorrow","type":"uint256","internalType":"uint256"},{"name":"wethToLend","type":"uint256","internalType":"uint256"},{"name":"targetUsdcBorrow","type":"uint256","internalType":"uint256"},{"name":"newParams","type":"tuple","internalType":"struct IEulerSwap.Params","components":[{"name":"vault0","type":"address","internalType":"address"},{"name":"vault1","type":"address","internalType":"address"},{"name":"eulerAccount","type":"address","internalType":"address"},{"name":"equilibriumReserve0","type":"uint112","internalType":"uint112"},{"name":"equilibriumReserve1","type":"uint112","internalType":"uint112"},{"name":"priceX","type":"uint256","internalType":"uint256"},{"name":"priceY","type":"uint256","internalType":"uint256"},{"name":"concentrationX","type":"uint256","internalType":"uint256"},{"name":"concentrationY","type":"uint256","internalType":"uint256"},{"name":"fee","type":"uint256","internalType":"uint256"},{"name":"protocolFee","type":"uint256","internalType":"uint256"},{"name":"protocolFeeRecipient","type":"address","internalType":"address"}]},{"name":"newInitialState","type":"tuple","internalType":"struct IEulerSwap.InitialState","components":[{"name":"currReserve0","type":"uint112","internalType":"uint112"},{"name":"currReserve1","type":"uint112","internalType":"uint112"}]},{"name":"newSalt","type":"bytes32","internalType":"bytes32"}],"outputs":[],"stateMutability":"nonpayable"},{"type":"function","name":"redeem","inputs":[{"name":"shares","type":"uint256","internalType":"uint256"},{"name":"receiver","type":"address","internalType":"address"},{"name":"owner","type":"address","internalType":"address"}],"outputs":[{"name":"","type":"uint256","internalType":"uint256"}],"stateMutability":"nonpayable"},{"type":"function","name":"renounceOwnership","inputs":[],"outputs":[],"stateMutability":"nonpayable"},{"type":"function","name":"repayUsdc","inputs":[{"name":"usdcAmount","type":"uint256","internalType":"uint256"}],"outputs":[],"stateMutability":"nonpayable"},{"type":"function","name":"repayWeth","inputs":[{"name":"wethAmount","type":"uint256","internalType":"uint256"}],"outputs":[],"stateMutability":"nonpayable"},{"type":"function","name":"symbol","inputs":[],"outputs":[{"name":"","type":"string","internalType":"string"}],"stateMutability":"view"},{"type":"function","name":"totalAssets","inputs":[],"outputs":[{"name":"","type":"uint256","internalType":"uint256"}],"stateMutability":"view"},{"type":"function","name":"totalSupply","inputs":[],"outputs":[{"name":"","type":"uint256","internalType":"uint256"}],"stateMutability":"view"},{"type":"function","name":"transfer","inputs":[{"name":"to","type":"address","internalType":"address"},{"name":"value","type":"uint256","internalType":"uint256"}],"outputs":[{"name":"","type":"bool","internalType":"bool"}],"stateMutability":"nonpayable"},{"type":"function","name":"transferFrom","inputs":[{"name":"from","type":"address","internalType":"address"},{"name":"to","type":"address","internalType":"address"},{"name":"value","type":"uint256","internalType":"uint256"}],"outputs":[{"name":"","type":"bool","internalType":"bool"}],"stateMutability":"nonpayable"},{"type":"function","name":"transferOwnership","inputs":[{"name":"newOwner","type":"address","internalType":"address"}],"outputs":[],"stateMutability":"nonpayable"},{"type":"function","name":"uninstallPool","inputs":[],"outputs":[],"stateMutability":"nonpayable"},{"type":"function","name":"usdcVault","inputs":[],"outputs":[{"name":"","type":"address","internalType":"contract IEVault"}],"stateMutability":"view"},{"type":"function","name":"userNonces","inputs":[{"name":"","type":"address","internalType":"address"}],"outputs":[{"name":"","type":"uint256","internalType":"uint256"}],"stateMutability":"view"},{"type":"function","name":"weth","inputs":[],"outputs":[{"name":"","type":"address","internalType":"contract IERC20"}],"stateMutability":"view"},{"type":"function","name":"wethVault","inputs":[],"outputs":[{"name":"","type":"address","internalType":"contract IEVault"}],"stateMutability":"view"},{"type":"function","name":"withdraw","inputs":[{"name":"assets","type":"uint256","internalType":"uint256"},{"name":"receiver","type":"address","internalType":"address"},{"name":"owner","type":"address","internalType":"address"}],"outputs":[{"name":"","type":"uint256","internalType":"uint256"}],"stateMutability":"nonpayable"},{"type":"function","name":"withdraw","inputs":[{"name":"assets","type":"uint256","internalType":"uint256"},{"name":"receiver","type":"address","internalType":"address"},{"name":"owner","type":"address","internalType":"address"},{"name":"minOut","type":"uint256[]","internalType":"uint256[]"},{"name":"deadline","type":"uint256","internalType":"uint256"}],"outputs":[{"name":"shares","type":"uint256","internalType":"uint256"}],"stateMutability":"nonpayable"},{"type":"function","name":"withdrawToSubAccount","inputs":[{"name":"assets","type":"uint256","internalType":"uint256"},{"name":"receiver","type":"address","internalType":"address"},{"name":"owner","type":"address","internalType":"address"},{"name":"minOut","type":"uint256[]","internalType":"uint256[]"},{"name":"deadline","type":"uint256","internalType":"uint256"}],"outputs":[{"name":"shares","type":"uint256","internalType":"uint256"},{"name":"userSubAccount","type":"address","internalType":"address"}],"stateMutability":"nonpayable"},{"type":"event","name":"Approval","inputs":[{"name":"owner","type":"address","indexed":true,"internalType":"address"},{"name":"spender","type":"address","indexed":true,"internalType":"address"},{"name":"value","type":"uint256","indexed":false,"internalType":"uint256"}],"anonymous":false},{"type":"event","name":"Deposit","inputs":[{"name":"sender","type":"address","indexed":true,"internalType":"address"},{"name":"owner","type":"address","indexed":true,"internalType":"address"},{"name":"assets","type":"uint256","indexed":false,"internalType":"uint256"},{"name":"shares","type":"uint256","indexed":false,"internalType":"uint256"}],"anonymous":false},{"type":"event","name":"OwnershipTransferred","inputs":[{"name":"previousOwner","type":"address","indexed":true,"internalType":"address"},{"name":"newOwner","type":"address","indexed":true,"internalType":"address"}],"anonymous":false},{"type":"event","name":"PoolInstalled","inputs":[{"name":"pool","type":"address","indexed":true,"internalType":"address"},{"name":"params","type":"tuple","indexed":false,"internalType":"struct IEulerSwap.Params","components":[{"name":"vault0","type":"address","internalType":"address"},{"name":"vault1","type":"address","internalType":"address"},{"name":"eulerAccount","type":"address","internalType":"address"},{"name":"equilibriumReserve0","type":"uint112","internalType":"uint112"},{"name":"equilibriumReserve1","type":"uint112","internalType":"uint112"},{"name":"priceX","type":"uint256","internalType":"uint256"},{"name":"priceY","type":"uint256","internalType":"uint256"},{"name":"concentrationX","type":"uint256","internalType":"uint256"},{"name":"concentrationY","type":"uint256","internalType":"uint256"},{"name":"fee","type":"uint256","internalType":"uint256"},{"name":"protocolFee","type":"uint256","internalType":"uint256"},{"name":"protocolFeeRecipient","type":"address","internalType":"address"}]}],"anonymous":false},{"type":"event","name":"PoolUninstalled","inputs":[{"name":"pool","type":"address","indexed":true,"internalType":"address"}],"anonymous":false},{"type":"event","name":"SubAccountCreated","inputs":[{"name":"user","type":"address","indexed":true,"internalType":"address"},{"name":"subAccount","type":"address","indexed":false,"internalType":"address"},{"name":"nonce","type":"uint256","indexed":false,"internalType":"uint256"}],"anonymous":false},{"type":"event","name":"Transfer","inputs":[{"name":"from","type":"address","indexed":true,"internalType":"address"},{"name":"to","type":"address","indexed":true,"internalType":"address"},{"name":"value","type":"uint256","indexed":false,"internalType":"uint256"}],"anonymous":false},{"type":"event","name":"Withdraw","inputs":[{"name":"sender","type":"address","indexed":true,"internalType":"address"},{"name":"receiver","type":"address","indexed":true,"internalType":"address"},{"name":"owner","type":"address","indexed":true,"internalType":"address"},{"name":"assets","type":"uint256","indexed":false,"internalType":"uint256"},{"name":"shares","type":"uint256","indexed":false,"internalType":"uint256"}],"anonymous":false},{"type":"event","name":"WithdrawalExecuted","inputs":[{"name":"user","type":"address","indexed":true,"internalType":"address"},{"name":"usdcAmount","type":"uint256","indexed":false,"internalType":"uint256"},{"name":"wethAmount","type":"uint256","indexed":false,"internalType":"uint256"},{"name":"wethDebt","type":"uint256","indexed":false,"internalType":"uint256"}],"anonymous":false},{"type":"error","name":"ERC20InsufficientAllowance","inputs":[{"name":"spender","type":"address","internalType":"address"},{"name":"allowance","type":"uint256","internalType":"uint256"},{"name":"needed","type":"uint256","internalType":"uint256"}]},{"type":"error","name":"ERC20InsufficientBalance","inputs":[{"name":"sender","type":"address","internalType":"address"},{"name":"balance","type":"uint256","internalType":"uint256"},{"name":"needed","type":"uint256","internalType":"uint256"}]},{"type":"error","name":"ERC20InvalidApprover","inputs":[{"name":"approver","type":"address","internalType":"address"}]},{"type":"error","name":"ERC20InvalidReceiver","inputs":[{"name":"receiver","type":"address","internalType":"address"}]},{"type":"error","name":"ERC20InvalidSender","inputs":[{"name":"sender","type":"address","internalType":"address"}]},{"type":"error","name":"ERC20InvalidSpender","inputs":[{"name":"spender","type":"address","internalType":"address"}]},{"type":"error","name":"ERC4626ExceededMaxDeposit","inputs":[{"name":"receiver","type":"address","internalType":"address"},{"name":"assets","type":"uint256","internalType":"uint256"},{"name":"max","type":"uint256","internalType":"uint256"}]},{"type":"error","name":"ERC4626ExceededMaxMint","inputs":[{"name":"receiver","type":"address","internalType":"address"},{"name":"shares","type":"uint256","internalType":"uint256"},{"name":"max","type":"uint256","internalType":"uint256"}]},{"type":"error","name":"ERC4626ExceededMaxRedeem","inputs":[{"name":"owner","type":"address","internalType":"address"},{"name":"shares","type":"uint256","internalType":"uint256"},{"name":"max","type":"uint256","internalType":"uint256"}]},{"type":"error","name":"ERC4626ExceededMaxWithdraw","inputs":[{"name":"owner","type":"address","internalType":"address"},{"name":"assets","type":"uint256","internalType":"uint256"},{"name":"max","type":"uint256","internalType":"uint256"}]},{"type":"error","name":"OwnableInvalidOwner","inputs":[{"name":"owner","type":"address","internalType":"address"}]},{"type":"error","name":"OwnableUnauthorizedAccount","inputs":[{"name":"account","type":"address","internalType":"address"}]},{"type":"error","name":"ReentrancyGuardReentrantCall","inputs":[]},{"type":"error","name":"SafeERC20FailedOperation","inputs":[{"name":"token","type":"address","internalType":"address"}]}],"bytecode":{"object":"0x610160604052348015610010575f5ffd5b506040516198da3803806198da83398181016040528101906100329190610712565b80876040518060400160405280601381526020017f44656c7461204e65757472616c205661756c74000000000000000000000000008152506040518060400160405280600381526020017f444e56000000000000000000000000000000000000000000000000000000000081525081600390816100af91906109ec565b5080600490816100bf91906109ec565b5050505f5f6100d3836103fc60201b60201c565b91509150816100e35760126100e5565b805b60ff1660a08160ff16815250508273ffffffffffffffffffffffffffffffffffffffff1660808173ffffffffffffffffffffffffffffffffffffffff168152505050505060016005819055505f73ffffffffffffffffffffffffffffffffffffffff168173ffffffffffffffffffffffffffffffffffffffff16036101a1575f6040517f1e4fbdf70000000000000000000000000000000000000000000000000000000081526004016101989190610aca565b60405180910390fd5b6101b08161050560201b60201c565b508573ffffffffffffffffffffffffffffffffffffffff1660c08173ffffffffffffffffffffffffffffffffffffffff16815250508473ffffffffffffffffffffffffffffffffffffffff1660e08173ffffffffffffffffffffffffffffffffffffffff16815250508373ffffffffffffffffffffffffffffffffffffffff166101008173ffffffffffffffffffffffffffffffffffffffff16815250508273ffffffffffffffffffffffffffffffffffffffff166101208173ffffffffffffffffffffffffffffffffffffffff16815250508173ffffffffffffffffffffffffffffffffffffffff166101408173ffffffffffffffffffffffffffffffffffffffff16815250508673ffffffffffffffffffffffffffffffffffffffff1663095ea7b3857fffffffffffffffffffffffffffffffffffffffffffffffffffffffffffffffff6040518363ffffffff1660e01b8152600401610313929190610af2565b6020604051808303815f875af115801561032f573d5f5f3e3d5ffd5b505050506040513d601f19601f820116820180604052508101906103539190610b4e565b508173ffffffffffffffffffffffffffffffffffffffff1663095ea7b3847fffffffffffffffffffffffffffffffffffffffffffffffffffffffffffffffff6040518363ffffffff1660e01b81526004016103af929190610af2565b6020604051808303815f875af11580156103cb573d5f5f3e3d5ffd5b505050506040513d601f19601f820116820180604052508101906103ef9190610b4e565b5050505050505050610c36565b5f5f5f5f8473ffffffffffffffffffffffffffffffffffffffff1660405160240160405160208183030381529060405263313ce56760e01b6020820180517bffffffffffffffffffffffffffffffffffffffffffffffffffffffff838183161783525050505060405161046f9190610bcb565b5f60405180830381855afa9150503d805f81146104a7576040519150601f19603f3d011682016040523d82523d5f602084013e6104ac565b606091505b50915091508180156104c057506020815110155b156104f7575f818060200190518101906104da9190610c0b565b905060ff801681116104f55760018194509450505050610500565b505b5f5f9350935050505b915091565b5f60065f9054906101000a900473ffffffffffffffffffffffffffffffffffffffff1690508160065f6101000a81548173ffffffffffffffffffffffffffffffffffffffff021916908373ffffffffffffffffffffffffffffffffffffffff1602179055508173ffffffffffffffffffffffffffffffffffffffff168173ffffffffffffffffffffffffffffffffffffffff167f8be0079c531659141344cd1fd0a4f28419497f9722a3daafe3b4186f6b6457e060405160405180910390a35050565b5f5ffd5b5f73ffffffffffffffffffffffffffffffffffffffff82169050919050565b5f6105f5826105cc565b9050919050565b5f610606826105eb565b9050919050565b610616816105fc565b8114610620575f5ffd5b50565b5f815190506106318161060d565b92915050565b5f610641826105eb565b9050919050565b61065181610637565b811461065b575f5ffd5b50565b5f8151905061066c81610648565b92915050565b5f61067c826105eb565b9050919050565b61068c81610672565b8114610696575f5ffd5b50565b5f815190506106a781610683565b92915050565b5f6106b7826105eb565b9050919050565b6106c7816106ad565b81146106d1575f5ffd5b50565b5f815190506106e2816106be565b92915050565b6106f1816105eb565b81146106fb575f5ffd5b50565b5f8151905061070c816106e8565b92915050565b5f5f5f5f5f5f5f60e0888a03121561072d5761072c6105c8565b5b5f61073a8a828b01610623565b975050602061074b8a828b0161065e565b965050604061075c8a828b01610699565b955050606061076d8a828b016106d4565b945050608061077e8a828b016106d4565b93505060a061078f8a828b01610623565b92505060c06107a08a828b016106fe565b91505092959891949750929550565b5f81519050919050565b7f4e487b71000000000000000000000000000000000000000000000000000000005f52604160045260245ffd5b7f4e487b71000000000000000000000000000000000000000000000000000000005f52602260045260245ffd5b5f600282049050600182168061082a57607f821691505b60208210810361083d5761083c6107e6565b5b50919050565b5f819050815f5260205f209050919050565b5f6020601f8301049050919050565b5f82821b905092915050565b5f6008830261089f7fffffffffffffffffffffffffffffffffffffffffffffffffffffffffffffffff82610864565b6108a98683610864565b95508019841693508086168417925050509392505050565b5f819050919050565b5f819050919050565b5f6108ed6108e86108e3846108c1565b6108ca565b6108c1565b9050919050565b5f819050919050565b610906836108d3565b61091a610912826108f4565b848454610870565b825550505050565b5f5f905090565b610931610922565b61093c8184846108fd565b505050565b5b8181101561095f576109545f82610929565b600181019050610942565b5050565b601f8211156109a45761097581610843565b61097e84610855565b8101602085101561098d578190505b6109a161099985610855565b830182610941565b50505b505050565b5f82821c905092915050565b5f6109c45f19846008026109a9565b1980831691505092915050565b5f6109dc83836109b5565b9150826002028217905092915050565b6109f5826107af565b67ffffffffffffffff811115610a0e57610a0d6107b9565b5b610a188254610813565b610a23828285610963565b5f60209050601f831160018114610a54575f8415610a42578287015190505b610a4c85826109d1565b865550610ab3565b601f198416610a6286610843565b5f5b82811015610a8957848901518255600182019150602085019450602081019050610a64565b86831015610aa65784890151610aa2601f8916826109b5565b8355505b6001600288020188555050505b505050505050565b610ac4816105eb565b82525050565b5f602082019050610add5f830184610abb565b92915050565b610aec816108c1565b82525050565b5f604082019050610b055f830185610abb565b610b126020830184610ae3565b9392505050565b5f8115159050919050565b610b2d81610b19565b8114610b37575f5ffd5b50565b5f81519050610b4881610b24565b92915050565b5f60208284031215610b6357610b626105c8565b5b5f610b7084828501610b3a565b91505092915050565b5f81519050919050565b5f81905092915050565b8281835e5f83830152505050565b5f610ba582610b79565b610baf8185610b83565b9350610bbf818560208601610b8d565b80840191505092915050565b5f610bd68284610b9b565b915081905092915050565b610bea816108c1565b8114610bf4575f5ffd5b50565b5f81519050610c0581610be1565b92915050565b5f60208284031215610c2057610c1f6105c8565b5b5f610c2d84828501610bf7565b91505092915050565b60805160a05160c05160e051610100516101205161014051618989610f515f395f8181610c7201528181610f90015281816119970152818161267e01528181612a880152818161351f0152818161395001528181614041015281816146570152818161505701528181615bb90152615e5c01525f8181610d2a0152818161127a01528181611333015281816113e50152818161145301528181611ada0152818161271801528181612ba101528181612c5a01528181612d0c01528181612d7a01528181612f5201528181613662015281816139aa01528181613f4d0152818161411e0152818161473401528181614a3601528181614aef01528181614ba101528181614c5501528181614d0e01528181614dc0015281816150f2015281816151a30152818161527601528181615c4401528181615c6801528181615d7e0152615efa01525f8181610bba015281816110640152818161111d015281816111cf015281816114f2015281816118550152818161226b01528181612324015281816123d601528181612444015281816125e4015281816128a8015281816130ce01528181613286015281816133dd01528181613899015281816145b001528181614817015281816148d00152818161498201528181614e7401528181614f2d01528181614fdf015281816153a5015281816154560152818161552901528181615a1101528181615a350152615b0f01525f8181610eba01528181611027015281816110e0015281816111920152818161123d015281816112f6015281816113a80152818161222e015281816122e70152818161239901528181612b6401528181612c1d01528181612ccf015281816147da0152818161489301528181614945015281816149f901528181614ab201528181614b6401528181614c1801528181614cd101528181614d8301528181614e3701528181614ef001528181614fa2015281816159d501528181615c080152615d4201525f818161177501528181612f76015281816137d50152818161425601528181614427015261601c01525f610f3901525f8181610f6a015281816164e70152616a4b01526189895ff3fe608060405234801561000f575f5ffd5b5060043610610325575f3560e01c8063715018a6116101b6578063c63d75b611610102578063eeb47e09116100a0578063f442c17d1161007a578063f442c17d14610a64578063f75b102d14610a80578063f78ed1db14610a8a578063fa6e63a714610aba57610325565b8063eeb47e09146109e8578063ef8b30f714610a18578063f2fde38b14610a4857610325565b8063d905777e116100dc578063d905777e1461094d578063dd62ed3e1461097d578063ea02f72c146109ad578063ec900795146109cc57610325565b8063c63d75b6146108bd578063c6e6f592146108ed578063ce96cb771461091d57610325565b806396c89de51161016f578063b460af9411610149578063b460af9414610821578063ba08765214610851578063be93981f14610881578063c45a01551461089f57610325565b806396c89de5146107b7578063a9059cbb146107c1578063b3d7f6b9146107f157610325565b8063715018a61461071657806380275860146107205780638c24ff32146107415780638da5cb5b1461074b57806394bf804d1461076957806395d89b411461079957610325565b80633fc8cef311610275578063505007741161022e578063631a20ba11610208578063631a20ba1461067c578063692b69ae146106985780636e553f65146106b657806370a08231146106e657610325565b806350500774146105fe5780635659df081461062f5780635c572e3e1461066057610325565b80633fc8cef31461051d578063402d267d1461053b57806341fd74781461056b57806345c397eb146105875780634cdad506146105a557806350392716146105d557610325565b80630fb411e8116102e25780632f7801f4116102bc5780632f7801f41461049357806330996b97146104c3578063313ce567146104e157806338d52e0f146104ff57610325565b80630fb411e81461042757806318160ddd1461044557806323b872dd1461046357610325565b806301e1d1141461032957806306a925121461034757806306fdde031461037957806307a2d13a14610397578063095ea7b3146103c75780630a28a477146103f7575b5f5ffd5b610331610ad6565b60405161033e9190616de4565b60405180910390f35b610361600480360381019061035c9190616e68565b610b5b565b60405161037093929190616e93565b60405180910390f35b610381610de1565b60405161038e9190616f38565b60405180910390f35b6103b160048036038101906103ac9190616f82565b610e71565b6040516103be9190616de4565b60405180910390f35b6103e160048036038101906103dc9190616fad565b610e83565b6040516103ee9190617005565b60405180910390f35b610411600480360381019061040c9190616f82565b610ea5565b60405161041e9190616de4565b60405180910390f35b61042f610eb8565b60405161043c9190617079565b60405180910390f35b61044d610edc565b60405161045a9190616de4565b60405180910390f35b61047d60048036038101906104789190617092565b610ee5565b60405161048a9190617005565b60405180910390f35b6104ad60048036038101906104a89190616e68565b610f13565b6040516104ba9190616de4565b60405180910390f35b6104cb610f28565b6040516104d891906170fa565b60405180910390f35b6104e9610f2e565b6040516104f6919061712e565b60405180910390f35b610507610f67565b6040516105149190617156565b60405180910390f35b610525610f8e565b604051610532919061718f565b60405180910390f35b61055560048036038101906105509190616e68565b610fb2565b6040516105629190616de4565b60405180910390f35b61058560048036038101906105809190616f82565b610fdb565b005b61058f6114f0565b60405161059c91906171c8565b60405180910390f35b6105bf60048036038101906105ba9190616f82565b611514565b6040516105cc9190616de4565b60405180910390f35b6105dd611526565b6040516105f59c9b9a99989796959493929190617209565b60405180910390f35b61061860048036038101906106139190617322565b611622565b6040516106269291906173b8565b60405180910390f35b61064960048036038101906106449190616e68565b6120c4565b6040516106579291906173df565b60405180910390f35b61067a60048036038101906106759190617471565b61211b565b005b61069660048036038101906106919190616f82565b6121e2565b005b6106a06124e1565b6040516106ad9190617156565b60405180910390f35b6106d060048036038101906106cb91906174c4565b612506565b6040516106dd9190616de4565b60405180910390f35b61070060048036038101906106fb9190616e68565b612586565b60405161070d9190616de4565b60405180910390f35b61071e6125cb565b005b6107286125de565b6040516107389493929190617502565b60405180910390f35b6107496127da565b005b610753612945565b6040516107609190617156565b60405180910390f35b610783600480360381019061077e91906174c4565b61296d565b6040516107909190616de4565b60405180910390f35b6107a16129ed565b6040516107ae9190616f38565b60405180910390f35b6107bf612a7d565b005b6107db60048036038101906107d69190616fad565b612e17565b6040516107e89190617005565b60405180910390f35b61080b60048036038101906108069190616f82565b612e39565b6040516108189190616de4565b60405180910390f35b61083b60048036038101906108369190617545565b612e4c565b6040516108489190616de4565b60405180910390f35b61086b60048036038101906108669190617545565b612ece565b6040516108789190616de4565b60405180910390f35b610889612f50565b60405161089691906171c8565b60405180910390f35b6108a7612f74565b6040516108b491906175b5565b60405180910390f35b6108d760048036038101906108d29190616e68565b612f98565b6040516108e49190616de4565b60405180910390f35b61090760048036038101906109029190616f82565b612fc1565b6040516109149190616de4565b60405180910390f35b61093760048036038101906109329190616e68565b612fd3565b6040516109449190616de4565b60405180910390f35b61096760048036038101906109629190616e68565b612fed565b6040516109749190616de4565b60405180910390f35b610997600480360381019061099291906175ce565b612ffe565b6040516109a49190616de4565b60405180910390f35b6109b5613080565b6040516109c392919061760c565b60405180910390f35b6109e660048036038101906109e19190616f82565b6130c3565b005b610a0260048036038101906109fd9190617322565b613325565b604051610a0f9190616de4565b60405180910390f35b610a326004803603810190610a2d9190616f82565b613eac565b604051610a3f9190616de4565b60405180910390f35b610a626004803603810190610a5d9190616e68565b613ebe565b005b610a7e6004803603810190610a799190616f82565b613f42565b005b610a886141bd565b005b610aa46004803603810190610a9f9190616e68565b614375565b604051610ab19190617156565b60405180910390f35b610ad46004803603810190610acf9190617633565b6143c9565b005b5f610adf610f67565b73ffffffffffffffffffffffffffffffffffffffff166370a08231306040518263ffffffff1660e01b8152600401610b179190617156565b602060405180830381865afa158015610b32573d5f5f3e3d5ffd5b505050506040513d601f19601f82011682018060405250810190610b5691906176e7565b905090565b5f5f5f5f610b6885612586565b90505f610b73610edc565b90505f8103610b8c575f5f5f9450945094505050610dda565b5f81670de0b6b3a764000084610ba2919061773f565b610bac91906177ad565b9050670de0b6b3a7640000817f000000000000000000000000000000000000000000000000000000000000000073ffffffffffffffffffffffffffffffffffffffff166370a08231306040518263ffffffff1660e01b8152600401610c119190617156565b602060405180830381865afa158015610c2c573d5f5f3e3d5ffd5b505050506040513d601f19601f82011682018060405250810190610c5091906176e7565b610c5a919061773f565b610c6491906177ad565b9550670de0b6b3a7640000817f000000000000000000000000000000000000000000000000000000000000000073ffffffffffffffffffffffffffffffffffffffff166370a08231306040518263ffffffff1660e01b8152600401610cc99190617156565b602060405180830381865afa158015610ce4573d5f5f3e3d5ffd5b505050506040513d601f19601f82011682018060405250810190610d0891906176e7565b610d12919061773f565b610d1c91906177ad565b9450670de0b6b3a7640000817f000000000000000000000000000000000000000000000000000000000000000073ffffffffffffffffffffffffffffffffffffffff1663d283e75f306040518263ffffffff1660e01b8152600401610d819190617156565b602060405180830381865afa158015610d9c573d5f5f3e3d5ffd5b505050506040513d601f19601f82011682018060405250810190610dc091906176e7565b610dca919061773f565b610dd491906177ad565b93505050505b9193909250565b606060038054610df09061780a565b80601f0160208091040260200160405190810160405280929190818152602001828054610e1c9061780a565b8015610e675780601f10610e3e57610100808354040283529160200191610e67565b820191905f5260205f20905b815481529060010190602001808311610e4a57829003601f168201915b5050505050905090565b5f610e7c825f6155ff565b9050919050565b5f5f610e8d615657565b9050610e9a81858561565e565b600191505092915050565b5f610eb1826001615670565b9050919050565b7f000000000000000000000000000000000000000000000000000000000000000081565b5f600254905090565b5f5f610eef615657565b9050610efc8582856156c8565b610f0785858561575b565b60019150509392505050565b6015602052805f5260405f205f915090505481565b60145481565b5f610f3761584b565b7f0000000000000000000000000000000000000000000000000000000000000000610f62919061783a565b905090565b5f7f0000000000000000000000000000000000000000000000000000000000000000905090565b7f000000000000000000000000000000000000000000000000000000000000000081565b5f7fffffffffffffffffffffffffffffffffffffffffffffffffffffffffffffffff9050919050565b610fe3615852565b5f8111611025576040517f08c379a000000000000000000000000000000000000000000000000000000000815260040161101c906178b8565b60405180910390fd5b7f000000000000000000000000000000000000000000000000000000000000000073ffffffffffffffffffffffffffffffffffffffff16639e716d58307f00000000000000000000000000000000000000000000000000000000000000006040518363ffffffff1660e01b81526004016110a09291906178d6565b602060405180830381865afa9250505080156110da57506040513d601f19601f820116820180604052508101906110d79190617927565b60015b61118b577f000000000000000000000000000000000000000000000000000000000000000073ffffffffffffffffffffffffffffffffffffffff1663d44fee5a307f00000000000000000000000000000000000000000000000000000000000000006040518363ffffffff1660e01b81526004016111599291906178d6565b5f604051808303815f87803b158015611170575f5ffd5b505af1158015611182573d5f5f3e3d5ffd5b5050505061123b565b80611239577f000000000000000000000000000000000000000000000000000000000000000073ffffffffffffffffffffffffffffffffffffffff1663d44fee5a307f00000000000000000000000000000000000000000000000000000000000000006040518363ffffffff1660e01b815260040161120b9291906178d6565b5f604051808303815f87803b158015611222575f5ffd5b505af1158015611234573d5f5f3e3d5ffd5b505050505b505b7f000000000000000000000000000000000000000000000000000000000000000073ffffffffffffffffffffffffffffffffffffffff166347cfdac4307f00000000000000000000000000000000000000000000000000000000000000006040518363ffffffff1660e01b81526004016112b69291906178d6565b602060405180830381865afa9250505080156112f057506040513d601f19601f820116820180604052508101906112ed9190617927565b60015b6113a1577f000000000000000000000000000000000000000000000000000000000000000073ffffffffffffffffffffffffffffffffffffffff1663c368516c307f00000000000000000000000000000000000000000000000000000000000000006040518363ffffffff1660e01b815260040161136f9291906178d6565b5f604051808303815f87803b158015611386575f5ffd5b505af1158015611398573d5f5f3e3d5ffd5b50505050611451565b8061144f577f000000000000000000000000000000000000000000000000000000000000000073ffffffffffffffffffffffffffffffffffffffff1663c368516c307f00000000000000000000000000000000000000000000000000000000000000006040518363ffffffff1660e01b81526004016114219291906178d6565b5f604051808303815f87803b158015611438575f5ffd5b505af115801561144a573d5f5f3e3d5ffd5b505050505b505b7f000000000000000000000000000000000000000000000000000000000000000073ffffffffffffffffffffffffffffffffffffffff16634b3fd14882306040518363ffffffff1660e01b81526004016114ac9291906173b8565b6020604051808303815f875af11580156114c8573d5f5f3e3d5ffd5b505050506040513d601f19601f820116820180604052508101906114ec91906176e7565b5050565b7f000000000000000000000000000000000000000000000000000000000000000081565b5f61151f825f6155ff565b9050919050565b6008805f015f9054906101000a900473ffffffffffffffffffffffffffffffffffffffff1690806001015f9054906101000a900473ffffffffffffffffffffffffffffffffffffffff1690806002015f9054906101000a900473ffffffffffffffffffffffffffffffffffffffff1690806003015f9054906101000a90046dffffffffffffffffffffffffffff169080600301600e9054906101000a90046dffffffffffffffffffffffffffff169080600401549080600501549080600601549080600701549080600801549080600901549080600a015f9054906101000a900473ffffffffffffffffffffffffffffffffffffffff1690508c565b5f5f61162c6158d9565b8242111561166f576040517f08c379a00000000000000000000000000000000000000000000000000000000081526004016116669061799c565b60405180910390fd5b600385859050146116b5576040517f08c379a00000000000000000000000000000000000000000000000000000000081526004016116ac90617a04565b60405180910390fd5b6116c7876116c28961591f565b615965565b905060016116d48861591f565b6116de9190617a22565b60155f8973ffffffffffffffffffffffffffffffffffffffff1673ffffffffffffffffffffffffffffffffffffffff1681526020019081526020015f20819055505f73ffffffffffffffffffffffffffffffffffffffff1660075f9054906101000a900473ffffffffffffffffffffffffffffffffffffffff1673ffffffffffffffffffffffffffffffffffffffff161461182f577f000000000000000000000000000000000000000000000000000000000000000073ffffffffffffffffffffffffffffffffffffffff1663f75b102d6040518163ffffffff1660e01b81526004015f604051808303815f87803b1580156117d8575f5ffd5b505af11580156117ea573d5f5f3e3d5ffd5b505050505f60075f6101000a81548173ffffffffffffffffffffffffffffffffffffffff021916908373ffffffffffffffffffffffffffffffffffffffff1602179055505b5f670de0b6b3a7640000611841610edc565b670de0b6b3a76400006118538a612586565b7f000000000000000000000000000000000000000000000000000000000000000073ffffffffffffffffffffffffffffffffffffffff166370a08231306040518263ffffffff1660e01b81526004016118ac9190617156565b602060405180830381865afa1580156118c7573d5f5f3e3d5ffd5b505050506040513d601f19601f820116820180604052508101906118eb91906176e7565b6118f5919061773f565b6118ff919061773f565b61190991906177ad565b61191391906177ad565b905085855f81811061192857611927617a55565b5b90506020020135811015611971576040517f08c379a000000000000000000000000000000000000000000000000000000000815260040161196890617acc565b60405180910390fd5b5f670de0b6b3a7640000611983610edc565b670de0b6b3a76400006119958b612586565b7f000000000000000000000000000000000000000000000000000000000000000073ffffffffffffffffffffffffffffffffffffffff166370a08231306040518263ffffffff1660e01b81526004016119ee9190617156565b602060405180830381865afa158015611a09573d5f5f3e3d5ffd5b505050506040513d601f19601f82011682018060405250810190611a2d91906176e7565b611a37919061773f565b611a41919061773f565b611a4b91906177ad565b611a5591906177ad565b905086866001818110611a6b57611a6a617a55565b5b90506020020135811015611ab4576040517f08c379a0000000000000000000000000000000000000000000000000000000008152600401611aab90617b34565b60405180910390fd5b5f670de0b6b3a7640000611ac6610edc565b670de0b6b3a7640000611ad88c612586565b7f000000000000000000000000000000000000000000000000000000000000000073ffffffffffffffffffffffffffffffffffffffff1663d283e75f306040518263ffffffff1660e01b8152600401611b319190617156565b602060405180830381865afa158015611b4c573d5f5f3e3d5ffd5b505050506040513d601f19601f82011682018060405250810190611b7091906176e7565b611b7a919061773f565b611b84919061773f565b611b8e91906177ad565b611b9891906177ad565b905087876002818110611bae57611bad617a55565b5b90506020020135811115611bf7576040517f08c379a0000000000000000000000000000000000000000000000000000000008152600401611bee90617b9c565b60405180910390fd5b611c03848484846159cb565b611c0c8b610ea5565b9450611c188986615f9b565b5f611c21610edc565b118015611c7e57505f73ffffffffffffffffffffffffffffffffffffffff1660086002015f9054906101000a900473ffffffffffffffffffffffffffffffffffffffff1673ffffffffffffffffffffffffffffffffffffffff1614155b15611f4557611f446008604051806101800160405290815f82015f9054906101000a900473ffffffffffffffffffffffffffffffffffffffff1673ffffffffffffffffffffffffffffffffffffffff1673ffffffffffffffffffffffffffffffffffffffff168152602001600182015f9054906101000a900473ffffffffffffffffffffffffffffffffffffffff1673ffffffffffffffffffffffffffffffffffffffff1673ffffffffffffffffffffffffffffffffffffffff168152602001600282015f9054906101000a900473ffffffffffffffffffffffffffffffffffffffff1673ffffffffffffffffffffffffffffffffffffffff1673ffffffffffffffffffffffffffffffffffffffff168152602001600382015f9054906101000a90046dffffffffffffffffffffffffffff166dffffffffffffffffffffffffffff166dffffffffffffffffffffffffffff16815260200160038201600e9054906101000a90046dffffffffffffffffffffffffffff166dffffffffffffffffffffffffffff166dffffffffffffffffffffffffffff168152602001600482015481526020016005820154815260200160068201548152602001600782015481526020016008820154815260200160098201548152602001600a82015f9054906101000a900473ffffffffffffffffffffffffffffffffffffffff1673ffffffffffffffffffffffffffffffffffffffff1673ffffffffffffffffffffffffffffffffffffffff168152505060136040518060400160405290815f82015f9054906101000a90046dffffffffffffffffffffffffffff166dffffffffffffffffffffffffffff166dffffffffffffffffffffffffffff1681526020015f8201600e9054906101000a90046dffffffffffffffffffffffffffff166dffffffffffffffffffffffffffff166dffffffffffffffffffffffffffff168152505060145461601a565b5b8973ffffffffffffffffffffffffffffffffffffffff167f397f2b7c169cec61b33d4539e794ffe6b2be17a1f947d9630439a15ca568e81b85600160155f8f73ffffffffffffffffffffffffffffffffffffffff1673ffffffffffffffffffffffffffffffffffffffff1681526020019081526020015f2054611fc89190617bba565b604051611fd6929190617bed565b60405180910390a28973ffffffffffffffffffffffffffffffffffffffff167f1fd2e466982404121834498ff574c408f6bc78e2a56db572a408961b908d567e84848460405161202893929190616e93565b60405180910390a28873ffffffffffffffffffffffffffffffffffffffff168a73ffffffffffffffffffffffffffffffffffffffff163373ffffffffffffffffffffffffffffffffffffffff167ffbde797d201c681b91056529119e0b02407c7bb96a4a2c75c01fc9667232c8db8e896040516120a69291906173df565b60405180910390a45050506120b96163ba565b965096945050505050565b5f5f60155f8473ffffffffffffffffffffffffffffffffffffffff1673ffffffffffffffffffffffffffffffffffffffff1681526020019081526020015f20549150816101006121149190617bba565b9050915091565b612123615852565b5f73ffffffffffffffffffffffffffffffffffffffff1660075f9054906101000a900473ffffffffffffffffffffffffffffffffffffffff1673ffffffffffffffffffffffffffffffffffffffff16146121b2576040517f08c379a00000000000000000000000000000000000000000000000000000000081526004016121a990617c5e565b60405180910390fd5b6121dd838036038101906121c69190617e41565b838036038101906121d79190617eba565b8361601a565b505050565b6121ea615852565b5f811161222c576040517f08c379a0000000000000000000000000000000000000000000000000000000008152600401612223906178b8565b60405180910390fd5b7f000000000000000000000000000000000000000000000000000000000000000073ffffffffffffffffffffffffffffffffffffffff166347cfdac4307f00000000000000000000000000000000000000000000000000000000000000006040518363ffffffff1660e01b81526004016122a79291906178d6565b602060405180830381865afa9250505080156122e157506040513d601f19601f820116820180604052508101906122de9190617927565b60015b612392577f000000000000000000000000000000000000000000000000000000000000000073ffffffffffffffffffffffffffffffffffffffff1663c368516c307f00000000000000000000000000000000000000000000000000000000000000006040518363ffffffff1660e01b81526004016123609291906178d6565b5f604051808303815f87803b158015612377575f5ffd5b505af1158015612389573d5f5f3e3d5ffd5b50505050612442565b80612440577f000000000000000000000000000000000000000000000000000000000000000073ffffffffffffffffffffffffffffffffffffffff1663c368516c307f00000000000000000000000000000000000000000000000000000000000000006040518363ffffffff1660e01b81526004016124129291906178d6565b5f604051808303815f87803b158015612429575f5ffd5b505af115801561243b573d5f5f3e3d5ffd5b505050505b505b7f000000000000000000000000000000000000000000000000000000000000000073ffffffffffffffffffffffffffffffffffffffff16634b3fd14882306040518363ffffffff1660e01b815260040161249d9291906173b8565b6020604051808303815f875af11580156124b9573d5f5f3e3d5ffd5b505050506040513d601f19601f820116820180604052508101906124dd91906176e7565b5050565b60075f9054906101000a900473ffffffffffffffffffffffffffffffffffffffff1681565b5f5f61251183610fb2565b90508084111561255c578284826040517f79012fb200000000000000000000000000000000000000000000000000000000815260040161255393929190617ee5565b60405180910390fd5b5f61256685613eac565b905061257b612573615657565b8587846163c4565b809250505092915050565b5f5f5f8373ffffffffffffffffffffffffffffffffffffffff1673ffffffffffffffffffffffffffffffffffffffff1681526020019081526020015f20549050919050565b6125d3615852565b6125dc5f6163d6565b565b5f5f5f5f7f000000000000000000000000000000000000000000000000000000000000000073ffffffffffffffffffffffffffffffffffffffff166370a08231306040518263ffffffff1660e01b815260040161263b9190617156565b602060405180830381865afa158015612656573d5f5f3e3d5ffd5b505050506040513d601f19601f8201168201806040525081019061267a91906176e7565b93507f000000000000000000000000000000000000000000000000000000000000000073ffffffffffffffffffffffffffffffffffffffff166370a08231306040518263ffffffff1660e01b81526004016126d59190617156565b602060405180830381865afa1580156126f0573d5f5f3e3d5ffd5b505050506040513d601f19601f8201168201806040525081019061271491906176e7565b92507f000000000000000000000000000000000000000000000000000000000000000073ffffffffffffffffffffffffffffffffffffffff1663d283e75f306040518263ffffffff1660e01b815260040161276f9190617156565b602060405180830381865afa15801561278a573d5f5f3e3d5ffd5b505050506040513d601f19601f820116820180604052508101906127ae91906176e7565b915060075f9054906101000a900473ffffffffffffffffffffffffffffffffffffffff16905090919293565b6127e2615852565b5f6127eb610f67565b73ffffffffffffffffffffffffffffffffffffffff166370a08231306040518263ffffffff1660e01b81526004016128239190617156565b602060405180830381865afa15801561283e573d5f5f3e3d5ffd5b505050506040513d601f19601f8201168201806040525081019061286291906176e7565b90505f81116128a6576040517f08c379a000000000000000000000000000000000000000000000000000000000815260040161289d90617f64565b60405180910390fd5b7f000000000000000000000000000000000000000000000000000000000000000073ffffffffffffffffffffffffffffffffffffffff16636e553f6582306040518363ffffffff1660e01b81526004016129019291906173b8565b6020604051808303815f875af115801561291d573d5f5f3e3d5ffd5b505050506040513d601f19601f8201168201806040525081019061294191906176e7565b5050565b5f60065f9054906101000a900473ffffffffffffffffffffffffffffffffffffffff16905090565b5f5f61297883612f98565b9050808411156129c3578284826040517f284ff6670000000000000000000000000000000000000000000000000000000081526004016129ba93929190617ee5565b60405180910390fd5b5f6129cd85612e39565b90506129e26129da615657565b8583886163c4565b809250505092915050565b6060600480546129fc9061780a565b80601f0160208091040260200160405190810160405280929190818152602001828054612a289061780a565b8015612a735780601f10612a4a57610100808354040283529160200191612a73565b820191905f5260205f20905b815481529060010190602001808311612a5657829003601f168201915b5050505050905090565b612a85615852565b5f7f000000000000000000000000000000000000000000000000000000000000000073ffffffffffffffffffffffffffffffffffffffff166370a08231306040518263ffffffff1660e01b8152600401612adf9190617156565b602060405180830381865afa158015612afa573d5f5f3e3d5ffd5b505050506040513d601f19601f82011682018060405250810190612b1e91906176e7565b90505f8111612b62576040517f08c379a0000000000000000000000000000000000000000000000000000000008152600401612b5990617fcc565b60405180910390fd5b7f000000000000000000000000000000000000000000000000000000000000000073ffffffffffffffffffffffffffffffffffffffff16639e716d58307f00000000000000000000000000000000000000000000000000000000000000006040518363ffffffff1660e01b8152600401612bdd9291906178d6565b602060405180830381865afa925050508015612c1757506040513d601f19601f82011682018060405250810190612c149190617927565b60015b612cc8577f000000000000000000000000000000000000000000000000000000000000000073ffffffffffffffffffffffffffffffffffffffff1663d44fee5a307f00000000000000000000000000000000000000000000000000000000000000006040518363ffffffff1660e01b8152600401612c969291906178d6565b5f604051808303815f87803b158015612cad575f5ffd5b505af1158015612cbf573d5f5f3e3d5ffd5b50505050612d78565b80612d76577f000000000000000000000000000000000000000000000000000000000000000073ffffffffffffffffffffffffffffffffffffffff1663d44fee5a307f00000000000000000000000000000000000000000000000000000000000000006040518363ffffffff1660e01b8152600401612d489291906178d6565b5f604051808303815f87803b158015612d5f575f5ffd5b505af1158015612d71573d5f5f3e3d5ffd5b505050505b505b7f000000000000000000000000000000000000000000000000000000000000000073ffffffffffffffffffffffffffffffffffffffff16636e553f6582306040518363ffffffff1660e01b8152600401612dd39291906173b8565b6020604051808303815f875af1158015612def573d5f5f3e3d5ffd5b505050506040513d601f19601f82011682018060405250810190612e1391906176e7565b5050565b5f5f612e21615657565b9050612e2e81858561575b565b600191505092915050565b5f612e458260016155ff565b9050919050565b5f5f612e5783612fd3565b905080851115612ea2578285826040517ffe9cceec000000000000000000000000000000000000000000000000000000008152600401612e9993929190617ee5565b60405180910390fd5b5f612eac86610ea5565b9050612ec2612eb9615657565b86868985616499565b80925050509392505050565b5f5f612ed983612fed565b905080851115612f24578285826040517fb94abeec000000000000000000000000000000000000000000000000000000008152600401612f1b93929190617ee5565b60405180910390fd5b5f612f2e86611514565b9050612f44612f3b615657565b8686848a616499565b80925050509392505050565b7f000000000000000000000000000000000000000000000000000000000000000081565b7f000000000000000000000000000000000000000000000000000000000000000081565b5f7fffffffffffffffffffffffffffffffffffffffffffffffffffffffffffffffff9050919050565b5f612fcc825f615670565b9050919050565b5f612fe6612fe083612586565b5f6155ff565b9050919050565b5f612ff782612586565b9050919050565b5f60015f8473ffffffffffffffffffffffffffffffffffffffff1673ffffffffffffffffffffffffffffffffffffffff1681526020019081526020015f205f8373ffffffffffffffffffffffffffffffffffffffff1673ffffffffffffffffffffffffffffffffffffffff1681526020019081526020015f2054905092915050565b6013805f015f9054906101000a90046dffffffffffffffffffffffffffff1690805f01600e9054906101000a90046dffffffffffffffffffffffffffff16905082565b6130cb615852565b5f7f000000000000000000000000000000000000000000000000000000000000000073ffffffffffffffffffffffffffffffffffffffff1663d283e75f306040518263ffffffff1660e01b81526004016131259190617156565b602060405180830381865afa158015613140573d5f5f3e3d5ffd5b505050506040513d601f19601f8201168201806040525081019061316491906176e7565b90505f81116131a8576040517f08c379a000000000000000000000000000000000000000000000000000000000815260040161319f90618034565b60405180910390fd5b5f82036131b3578091505b808211156131bf578091505b5f6131c8610f67565b73ffffffffffffffffffffffffffffffffffffffff166370a08231306040518263ffffffff1660e01b81526004016132009190617156565b602060405180830381865afa15801561321b573d5f5f3e3d5ffd5b505050506040513d601f19601f8201168201806040525081019061323f91906176e7565b905082811015613284576040517f08c379a000000000000000000000000000000000000000000000000000000000815260040161327b906180c2565b60405180910390fd5b7f000000000000000000000000000000000000000000000000000000000000000073ffffffffffffffffffffffffffffffffffffffff1663acb7081584306040518363ffffffff1660e01b81526004016132df9291906173b8565b6020604051808303815f875af11580156132fb573d5f5f3e3d5ffd5b505050506040513d601f19601f8201168201806040525081019061331f91906176e7565b50505050565b5f61332e6158d9565b81421115613371576040517f08c379a00000000000000000000000000000000000000000000000000000000081526004016133689061799c565b60405180910390fd5b600384849050146133b7576040517f08c379a00000000000000000000000000000000000000000000000000000000081526004016133ae90617a04565b60405180910390fd5b5f670de0b6b3a76400006133c9610edc565b670de0b6b3a76400006133db89612586565b7f000000000000000000000000000000000000000000000000000000000000000073ffffffffffffffffffffffffffffffffffffffff166370a08231306040518263ffffffff1660e01b81526004016134349190617156565b602060405180830381865afa15801561344f573d5f5f3e3d5ffd5b505050506040513d601f19601f8201168201806040525081019061347391906176e7565b61347d919061773f565b613487919061773f565b61349191906177ad565b61349b91906177ad565b905084845f8181106134b0576134af617a55565b5b905060200201358110156134f9576040517f08c379a00000000000000000000000000000000000000000000000000000000081526004016134f090617acc565b60405180910390fd5b5f670de0b6b3a764000061350b610edc565b670de0b6b3a764000061351d8a612586565b7f000000000000000000000000000000000000000000000000000000000000000073ffffffffffffffffffffffffffffffffffffffff166370a08231306040518263ffffffff1660e01b81526004016135769190617156565b602060405180830381865afa158015613591573d5f5f3e3d5ffd5b505050506040513d601f19601f820116820180604052508101906135b591906176e7565b6135bf919061773f565b6135c9919061773f565b6135d391906177ad565b6135dd91906177ad565b9050858560018181106135f3576135f2617a55565b5b9050602002013581101561363c576040517f08c379a000000000000000000000000000000000000000000000000000000000815260040161363390617b34565b60405180910390fd5b5f670de0b6b3a764000061364e610edc565b670de0b6b3a76400006136608b612586565b7f000000000000000000000000000000000000000000000000000000000000000073ffffffffffffffffffffffffffffffffffffffff1663d283e75f306040518263ffffffff1660e01b81526004016136b99190617156565b602060405180830381865afa1580156136d4573d5f5f3e3d5ffd5b505050506040513d601f19601f820116820180604052508101906136f891906176e7565b613702919061773f565b61370c919061773f565b61371691906177ad565b61372091906177ad565b90508686600281811061373657613735617a55565b5b9050602002013581111561377f576040517f08c379a000000000000000000000000000000000000000000000000000000000815260040161377690617b9c565b60405180910390fd5b5f73ffffffffffffffffffffffffffffffffffffffff1660075f9054906101000a900473ffffffffffffffffffffffffffffffffffffffff1673ffffffffffffffffffffffffffffffffffffffff161461388f577f000000000000000000000000000000000000000000000000000000000000000073ffffffffffffffffffffffffffffffffffffffff1663f75b102d6040518163ffffffff1660e01b81526004015f604051808303815f87803b158015613838575f5ffd5b505af115801561384a573d5f5f3e3d5ffd5b505050505f60075f6101000a81548173ffffffffffffffffffffffffffffffffffffffff021916908373ffffffffffffffffffffffffffffffffffffffff1602179055505b5f831115613936577f000000000000000000000000000000000000000000000000000000000000000073ffffffffffffffffffffffffffffffffffffffff1663b460af94848b306040518463ffffffff1660e01b81526004016138f4939291906180e0565b6020604051808303815f875af1158015613910573d5f5f3e3d5ffd5b505050506040513d601f19601f8201168201806040525081019061393491906176e7565b505b808211156139955761399489828461394e9190617bba565b7f000000000000000000000000000000000000000000000000000000000000000073ffffffffffffffffffffffffffffffffffffffff166165929092919063ffffffff16565b5b5f821180156139a357505f81115b15613a53577f000000000000000000000000000000000000000000000000000000000000000073ffffffffffffffffffffffffffffffffffffffff1663acb708158284106139f157826139f3565b835b306040518363ffffffff1660e01b8152600401613a119291906173b8565b6020604051808303815f875af1158015613a2d573d5f5f3e3d5ffd5b505050506040513d601f19601f82011682018060405250810190613a5191906176e7565b505b613a5c8a610ea5565b9350613a688885615f9b565b5f613a71610edc565b118015613ace57505f73ffffffffffffffffffffffffffffffffffffffff1660086002015f9054906101000a900473ffffffffffffffffffffffffffffffffffffffff1673ffffffffffffffffffffffffffffffffffffffff1614155b15613d9557613d946008604051806101800160405290815f82015f9054906101000a900473ffffffffffffffffffffffffffffffffffffffff1673ffffffffffffffffffffffffffffffffffffffff1673ffffffffffffffffffffffffffffffffffffffff168152602001600182015f9054906101000a900473ffffffffffffffffffffffffffffffffffffffff1673ffffffffffffffffffffffffffffffffffffffff1673ffffffffffffffffffffffffffffffffffffffff168152602001600282015f9054906101000a900473ffffffffffffffffffffffffffffffffffffffff1673ffffffffffffffffffffffffffffffffffffffff1673ffffffffffffffffffffffffffffffffffffffff168152602001600382015f9054906101000a90046dffffffffffffffffffffffffffff166dffffffffffffffffffffffffffff166dffffffffffffffffffffffffffff16815260200160038201600e9054906101000a90046dffffffffffffffffffffffffffff166dffffffffffffffffffffffffffff166dffffffffffffffffffffffffffff168152602001600482015481526020016005820154815260200160068201548152602001600782015481526020016008820154815260200160098201548152602001600a82015f9054906101000a900473ffffffffffffffffffffffffffffffffffffffff1673ffffffffffffffffffffffffffffffffffffffff1673ffffffffffffffffffffffffffffffffffffffff168152505060136040518060400160405290815f82015f9054906101000a90046dffffffffffffffffffffffffffff166dffffffffffffffffffffffffffff166dffffffffffffffffffffffffffff1681526020015f8201600e9054906101000a90046dffffffffffffffffffffffffffff166dffffffffffffffffffffffffffff166dffffffffffffffffffffffffffff168152505060145461601a565b5b8873ffffffffffffffffffffffffffffffffffffffff167f1fd2e466982404121834498ff574c408f6bc78e2a56db572a408961b908d567e84838511613ddb575f613de8565b8385613de79190617bba565b5b858511613df5575f613e02565b8585613e019190617bba565b5b604051613e1193929190616e93565b60405180910390a28773ffffffffffffffffffffffffffffffffffffffff168973ffffffffffffffffffffffffffffffffffffffff163373ffffffffffffffffffffffffffffffffffffffff167ffbde797d201c681b91056529119e0b02407c7bb96a4a2c75c01fc9667232c8db8d88604051613e8f9291906173df565b60405180910390a4505050613ea26163ba565b9695505050505050565b5f613eb7825f615670565b9050919050565b613ec6615852565b5f73ffffffffffffffffffffffffffffffffffffffff168173ffffffffffffffffffffffffffffffffffffffff1603613f36575f6040517f1e4fbdf7000000000000000000000000000000000000000000000000000000008152600401613f2d9190617156565b60405180910390fd5b613f3f816163d6565b50565b613f4a615852565b5f7f000000000000000000000000000000000000000000000000000000000000000073ffffffffffffffffffffffffffffffffffffffff1663d283e75f306040518263ffffffff1660e01b8152600401613fa49190617156565b602060405180830381865afa158015613fbf573d5f5f3e3d5ffd5b505050506040513d601f19601f82011682018060405250810190613fe391906176e7565b90505f8111614027576040517f08c379a000000000000000000000000000000000000000000000000000000000815260040161401e9061815f565b60405180910390fd5b5f8203614032578091505b8082111561403e578091505b5f7f000000000000000000000000000000000000000000000000000000000000000073ffffffffffffffffffffffffffffffffffffffff166370a08231306040518263ffffffff1660e01b81526004016140989190617156565b602060405180830381865afa1580156140b3573d5f5f3e3d5ffd5b505050506040513d601f19601f820116820180604052508101906140d791906176e7565b90508281101561411c576040517f08c379a0000000000000000000000000000000000000000000000000000000008152600401614113906181ed565b60405180910390fd5b7f000000000000000000000000000000000000000000000000000000000000000073ffffffffffffffffffffffffffffffffffffffff1663acb7081584306040518363ffffffff1660e01b81526004016141779291906173b8565b6020604051808303815f875af1158015614193573d5f5f3e3d5ffd5b505050506040513d601f19601f820116820180604052508101906141b791906176e7565b50505050565b6141c5615852565b5f73ffffffffffffffffffffffffffffffffffffffff1660075f9054906101000a900473ffffffffffffffffffffffffffffffffffffffff1673ffffffffffffffffffffffffffffffffffffffff1603614254576040517f08c379a000000000000000000000000000000000000000000000000000000000815260040161424b90618255565b60405180910390fd5b7f000000000000000000000000000000000000000000000000000000000000000073ffffffffffffffffffffffffffffffffffffffff1663f75b102d6040518163ffffffff1660e01b81526004015f604051808303815f87803b1580156142b9575f5ffd5b505af11580156142cb573d5f5f3e3d5ffd5b505050505f60075f6101000a81548173ffffffffffffffffffffffffffffffffffffffff021916908373ffffffffffffffffffffffffffffffffffffffff16021790555060075f9054906101000a900473ffffffffffffffffffffffffffffffffffffffff1673ffffffffffffffffffffffffffffffffffffffff167f6d31a3b2839cdbd2b9efc1cc21dd13c940b1a7834627243e24ac9fae72f5106760405160405180910390a2565b5f5f60155f8473ffffffffffffffffffffffffffffffffffffffff1673ffffffffffffffffffffffffffffffffffffffff1681526020019081526020015f205490506143c18382615965565b915050919050565b6143d1615852565b5f73ffffffffffffffffffffffffffffffffffffffff1660075f9054906101000a900473ffffffffffffffffffffffffffffffffffffffff1673ffffffffffffffffffffffffffffffffffffffff16146144e1577f000000000000000000000000000000000000000000000000000000000000000073ffffffffffffffffffffffffffffffffffffffff1663f75b102d6040518163ffffffff1660e01b81526004015f604051808303815f87803b15801561448a575f5ffd5b505af115801561449c573d5f5f3e3d5ffd5b505050505f60075f6101000a81548173ffffffffffffffffffffffffffffffffffffffff021916908373ffffffffffffffffffffffffffffffffffffffff1602179055505b5f87111561464c575f6144f2610f67565b73ffffffffffffffffffffffffffffffffffffffff166370a08231306040518263ffffffff1660e01b815260040161452a9190617156565b602060405180830381865afa158015614545573d5f5f3e3d5ffd5b505050506040513d601f19601f8201168201806040525081019061456991906176e7565b9050878110156145ae576040517f08c379a00000000000000000000000000000000000000000000000000000000081526004016145a5906182bd565b60405180910390fd5b7f000000000000000000000000000000000000000000000000000000000000000073ffffffffffffffffffffffffffffffffffffffff16636e553f6589306040518363ffffffff1660e01b81526004016146099291906173b8565b6020604051808303815f875af1158015614625573d5f5f3e3d5ffd5b505050506040513d601f19601f8201168201806040525081019061464991906176e7565b50505b5f8511156147d0575f7f000000000000000000000000000000000000000000000000000000000000000073ffffffffffffffffffffffffffffffffffffffff166370a08231306040518263ffffffff1660e01b81526004016146ae9190617156565b602060405180830381865afa1580156146c9573d5f5f3e3d5ffd5b505050506040513d601f19601f820116820180604052508101906146ed91906176e7565b905085811015614732576040517f08c379a000000000000000000000000000000000000000000000000000000000815260040161472990618325565b60405180910390fd5b7f000000000000000000000000000000000000000000000000000000000000000073ffffffffffffffffffffffffffffffffffffffff16636e553f6587306040518363ffffffff1660e01b815260040161478d9291906173b8565b6020604051808303815f875af11580156147a9573d5f5f3e3d5ffd5b505050506040513d601f19601f820116820180604052508101906147cd91906176e7565b50505b5f8711156149ef577f000000000000000000000000000000000000000000000000000000000000000073ffffffffffffffffffffffffffffffffffffffff16639e716d58307f00000000000000000000000000000000000000000000000000000000000000006040518363ffffffff1660e01b81526004016148539291906178d6565b602060405180830381865afa92505050801561488d57506040513d601f19601f8201168201806040525081019061488a9190617927565b60015b61493e577f000000000000000000000000000000000000000000000000000000000000000073ffffffffffffffffffffffffffffffffffffffff1663d44fee5a307f00000000000000000000000000000000000000000000000000000000000000006040518363ffffffff1660e01b815260040161490c9291906178d6565b5f604051808303815f87803b158015614923575f5ffd5b505af1158015614935573d5f5f3e3d5ffd5b505050506149ee565b806149ec577f000000000000000000000000000000000000000000000000000000000000000073ffffffffffffffffffffffffffffffffffffffff1663d44fee5a307f00000000000000000000000000000000000000000000000000000000000000006040518363ffffffff1660e01b81526004016149be9291906178d6565b5f604051808303815f87803b1580156149d5575f5ffd5b505af11580156149e7573d5f5f3e3d5ffd5b505050505b505b5b5f851115614c0e577f000000000000000000000000000000000000000000000000000000000000000073ffffffffffffffffffffffffffffffffffffffff16639e716d58307f00000000000000000000000000000000000000000000000000000000000000006040518363ffffffff1660e01b8152600401614a729291906178d6565b602060405180830381865afa925050508015614aac57506040513d601f19601f82011682018060405250810190614aa99190617927565b60015b614b5d577f000000000000000000000000000000000000000000000000000000000000000073ffffffffffffffffffffffffffffffffffffffff1663d44fee5a307f00000000000000000000000000000000000000000000000000000000000000006040518363ffffffff1660e01b8152600401614b2b9291906178d6565b5f604051808303815f87803b158015614b42575f5ffd5b505af1158015614b54573d5f5f3e3d5ffd5b50505050614c0d565b80614c0b577f000000000000000000000000000000000000000000000000000000000000000073ffffffffffffffffffffffffffffffffffffffff1663d44fee5a307f00000000000000000000000000000000000000000000000000000000000000006040518363ffffffff1660e01b8152600401614bdd9291906178d6565b5f604051808303815f87803b158015614bf4575f5ffd5b505af1158015614c06573d5f5f3e3d5ffd5b505050505b505b5b5f861115614e2d577f000000000000000000000000000000000000000000000000000000000000000073ffffffffffffffffffffffffffffffffffffffff166347cfdac4307f00000000000000000000000000000000000000000000000000000000000000006040518363ffffffff1660e01b8152600401614c919291906178d6565b602060405180830381865afa925050508015614ccb57506040513d601f19601f82011682018060405250810190614cc89190617927565b60015b614d7c577f000000000000000000000000000000000000000000000000000000000000000073ffffffffffffffffffffffffffffffffffffffff1663c368516c307f00000000000000000000000000000000000000000000000000000000000000006040518363ffffffff1660e01b8152600401614d4a9291906178d6565b5f604051808303815f87803b158015614d61575f5ffd5b505af1158015614d73573d5f5f3e3d5ffd5b50505050614e2c565b80614e2a577f000000000000000000000000000000000000000000000000000000000000000073ffffffffffffffffffffffffffffffffffffffff1663c368516c307f00000000000000000000000000000000000000000000000000000000000000006040518363ffffffff1660e01b8152600401614dfc9291906178d6565b5f604051808303815f87803b158015614e13575f5ffd5b505af1158015614e25573d5f5f3e3d5ffd5b505050505b505b5b5f84111561504c577f000000000000000000000000000000000000000000000000000000000000000073ffffffffffffffffffffffffffffffffffffffff166347cfdac4307f00000000000000000000000000000000000000000000000000000000000000006040518363ffffffff1660e01b8152600401614eb09291906178d6565b602060405180830381865afa925050508015614eea57506040513d601f19601f82011682018060405250810190614ee79190617927565b60015b614f9b577f000000000000000000000000000000000000000000000000000000000000000073ffffffffffffffffffffffffffffffffffffffff1663c368516c307f00000000000000000000000000000000000000000000000000000000000000006040518363ffffffff1660e01b8152600401614f699291906178d6565b5f604051808303815f87803b158015614f80575f5ffd5b505af1158015614f92573d5f5f3e3d5ffd5b5050505061504b565b80615049577f000000000000000000000000000000000000000000000000000000000000000073ffffffffffffffffffffffffffffffffffffffff1663c368516c307f00000000000000000000000000000000000000000000000000000000000000006040518363ffffffff1660e01b815260040161501b9291906178d6565b5f604051808303815f87803b158015615032575f5ffd5b505af1158015615044573d5f5f3e3d5ffd5b505050505b505b5b5f861115615318575f7f000000000000000000000000000000000000000000000000000000000000000073ffffffffffffffffffffffffffffffffffffffff166370a08231306040518263ffffffff1660e01b81526004016150ae9190617156565b602060405180830381865afa1580156150c9573d5f5f3e3d5ffd5b505050506040513d601f19601f820116820180604052508101906150ed91906176e7565b90505f7f000000000000000000000000000000000000000000000000000000000000000073ffffffffffffffffffffffffffffffffffffffff1663d283e75f306040518263ffffffff1660e01b81526004016151499190617156565b602060405180830381865afa158015615164573d5f5f3e3d5ffd5b505050506040513d601f19601f8201168201806040525081019061518891906176e7565b905081881115615243575f828961519f9190617bba565b90507f000000000000000000000000000000000000000000000000000000000000000073ffffffffffffffffffffffffffffffffffffffff16634b3fd14882306040518363ffffffff1660e01b81526004016151fc9291906173b8565b6020604051808303815f875af1158015615218573d5f5f3e3d5ffd5b505050506040513d601f19601f8201168201806040525081019061523c91906176e7565b5050615315565b87821115615314575f88836152589190617bba565b90505f821115615312575f8183106152705781615272565b825b90507f000000000000000000000000000000000000000000000000000000000000000073ffffffffffffffffffffffffffffffffffffffff1663acb7081582306040518363ffffffff1660e01b81526004016152cf9291906173b8565b6020604051808303815f875af11580156152eb573d5f5f3e3d5ffd5b505050506040513d601f19601f8201168201806040525081019061530f91906176e7565b50505b505b5b50505b5f8411156155cb575f615329610f67565b73ffffffffffffffffffffffffffffffffffffffff166370a08231306040518263ffffffff1660e01b81526004016153619190617156565b602060405180830381865afa15801561537c573d5f5f3e3d5ffd5b505050506040513d601f19601f820116820180604052508101906153a091906176e7565b90505f7f000000000000000000000000000000000000000000000000000000000000000073ffffffffffffffffffffffffffffffffffffffff1663d283e75f306040518263ffffffff1660e01b81526004016153fc9190617156565b602060405180830381865afa158015615417573d5f5f3e3d5ffd5b505050506040513d601f19601f8201168201806040525081019061543b91906176e7565b9050818611156154f6575f82876154529190617bba565b90507f000000000000000000000000000000000000000000000000000000000000000073ffffffffffffffffffffffffffffffffffffffff16634b3fd14882306040518363ffffffff1660e01b81526004016154af9291906173b8565b6020604051808303815f875af11580156154cb573d5f5f3e3d5ffd5b505050506040513d601f19601f820116820180604052508101906154ef91906176e7565b50506155c8565b858211156155c7575f868361550b9190617bba565b90505f8211156155c5575f8183106155235781615525565b825b90507f000000000000000000000000000000000000000000000000000000000000000073ffffffffffffffffffffffffffffffffffffffff1663acb7081582306040518363ffffffff1660e01b81526004016155829291906173b8565b6020604051808303815f875af115801561559e573d5f5f3e3d5ffd5b505050506040513d601f19601f820116820180604052508101906155c291906176e7565b50505b505b5b50505b6155f6838036038101906155df9190617e41565b838036038101906155f09190617eba565b8361601a565b50505050505050565b5f61564f600161560d610ad6565b6156179190617a22565b61561f61584b565b600a61562b9190618472565b615633610edc565b61563d9190617a22565b8486616611909392919063ffffffff16565b905092915050565b5f33905090565b61566b838383600161665e565b505050565b5f6156c061567c61584b565b600a6156889190618472565b615690610edc565b61569a9190617a22565b60016156a4610ad6565b6156ae9190617a22565b8486616611909392919063ffffffff16565b905092915050565b5f6156d38484612ffe565b90507fffffffffffffffffffffffffffffffffffffffffffffffffffffffffffffffff8110156157555781811015615746578281836040517ffb8f41b200000000000000000000000000000000000000000000000000000000815260040161573d93929190617ee5565b60405180910390fd5b61575484848484035f61665e565b5b50505050565b5f73ffffffffffffffffffffffffffffffffffffffff168373ffffffffffffffffffffffffffffffffffffffff16036157cb575f6040517f96c6fd1e0000000000000000000000000000000000000000000000000000000081526004016157c29190617156565b60405180910390fd5b5f73ffffffffffffffffffffffffffffffffffffffff168273ffffffffffffffffffffffffffffffffffffffff160361583b575f6040517fec442f050000000000000000000000000000000000000000000000000000000081526004016158329190617156565b60405180910390fd5b61584683838361682d565b505050565b5f5f905090565b61585a615657565b73ffffffffffffffffffffffffffffffffffffffff16615878612945565b73ffffffffffffffffffffffffffffffffffffffff16146158d75761589b615657565b6040517f118cdaa70000000000000000000000000000000000000000000000000000000081526004016158ce9190617156565b60405180910390fd5b565b600260055403615915576040517f3ee5aeb500000000000000000000000000000000000000000000000000000000815260040160405180910390fd5b6002600581905550565b5f60155f8373ffffffffffffffffffffffffffffffffffffffff1673ffffffffffffffffffffffffffffffffffffffff1681526020019081526020015f20549050919050565b5f61010082106159aa576040517f08c379a00000000000000000000000000000000000000000000000000000000081526004016159a190618506565b60405180910390fd5b8173ffffffffffffffffffffffffffffffffffffff00841617905092915050565b5f831115615baa577f000000000000000000000000000000000000000000000000000000000000000073ffffffffffffffffffffffffffffffffffffffff16631f8b52157f0000000000000000000000000000000000000000000000000000000000000000865f887f0000000000000000000000000000000000000000000000000000000000000000604051602401615a659291906178d6565b60405160208183030381529060405263d44fee5a60e01b6020820180517bffffffffffffffffffffffffffffffffffffffffffffffffffffffff83818316178352505050506040518563ffffffff1660e01b8152600401615ac994939291906185af565b5f604051808303815f875af1158015615ae4573d5f5f3e3d5ffd5b505050506040513d5f823e3d601f19601f82011682018060405250810190615b0c919061869b565b507f000000000000000000000000000000000000000000000000000000000000000073ffffffffffffffffffffffffffffffffffffffff1663a9059cbb85856040518363ffffffff1660e01b8152600401615b68929190617bed565b6020604051808303815f875af1158015615b84573d5f5f3e3d5ffd5b505050506040513d601f19601f82011682018060405250810190615ba89190617927565b505b5f821115615bfe57615bfd84837f000000000000000000000000000000000000000000000000000000000000000073ffffffffffffffffffffffffffffffffffffffff166165929092919063ffffffff16565b5b5f811115615f95577f000000000000000000000000000000000000000000000000000000000000000073ffffffffffffffffffffffffffffffffffffffff16631f8b52157f0000000000000000000000000000000000000000000000000000000000000000865f887f0000000000000000000000000000000000000000000000000000000000000000604051602401615c989291906178d6565b60405160208183030381529060405263c368516c60e01b6020820180517bffffffffffffffffffffffffffffffffffffffffffffffffffffffff83818316178352505050506040518563ffffffff1660e01b8152600401615cfc94939291906185af565b5f604051808303815f875af1158015615d17573d5f5f3e3d5ffd5b505050506040513d5f823e3d601f19601f82011682018060405250810190615d3f919061869b565b507f000000000000000000000000000000000000000000000000000000000000000073ffffffffffffffffffffffffffffffffffffffff16631f8b52157f0000000000000000000000000000000000000000000000000000000000000000865f8589604051602401615db29291906173b8565b604051602081830303815290604052634b3fd14860e01b6020820180517bffffffffffffffffffffffffffffffffffffffffffffffffffffffff83818316178352505050506040518563ffffffff1660e01b8152600401615e1694939291906185af565b5f604051808303815f875af1158015615e31573d5f5f3e3d5ffd5b505050506040513d5f823e3d601f19601f82011682018060405250810190615e59919061869b565b507f000000000000000000000000000000000000000000000000000000000000000073ffffffffffffffffffffffffffffffffffffffff166323b872dd8530846040518463ffffffff1660e01b8152600401615eb7939291906186e2565b6020604051808303815f875af1158015615ed3573d5f5f3e3d5ffd5b505050506040513d601f19601f82011682018060405250810190615ef79190617927565b507f000000000000000000000000000000000000000000000000000000000000000073ffffffffffffffffffffffffffffffffffffffff1663acb7081582306040518363ffffffff1660e01b8152600401615f539291906173b8565b6020604051808303815f875af1158015615f6f573d5f5f3e3d5ffd5b505050506040513d601f19601f82011682018060405250810190615f9391906176e7565b505b50505050565b5f73ffffffffffffffffffffffffffffffffffffffff168273ffffffffffffffffffffffffffffffffffffffff160361600b575f6040517f96c6fd1e0000000000000000000000000000000000000000000000000000000081526004016160029190617156565b60405180910390fd5b616016825f8361682d565b5050565b7f000000000000000000000000000000000000000000000000000000000000000073ffffffffffffffffffffffffffffffffffffffff1663729b25798484846040518463ffffffff1660e01b815260040161607793929190618865565b6020604051808303815f875af1158015616093573d5f5f3e3d5ffd5b505050506040513d601f19601f820116820180604052508101906160b791906188b1565b60075f6101000a81548173ffffffffffffffffffffffffffffffffffffffff021916908373ffffffffffffffffffffffffffffffffffffffff1602179055508260085f820151815f015f6101000a81548173ffffffffffffffffffffffffffffffffffffffff021916908373ffffffffffffffffffffffffffffffffffffffff1602179055506020820151816001015f6101000a81548173ffffffffffffffffffffffffffffffffffffffff021916908373ffffffffffffffffffffffffffffffffffffffff1602179055506040820151816002015f6101000a81548173ffffffffffffffffffffffffffffffffffffffff021916908373ffffffffffffffffffffffffffffffffffffffff1602179055506060820151816003015f6101000a8154816dffffffffffffffffffffffffffff02191690836dffffffffffffffffffffffffffff160217905550608082015181600301600e6101000a8154816dffffffffffffffffffffffffffff02191690836dffffffffffffffffffffffffffff16021790555060a0820151816004015560c0820151816005015560e0820151816006015561010082015181600701556101208201518160080155610140820151816009015561016082015181600a015f6101000a81548173ffffffffffffffffffffffffffffffffffffffff021916908373ffffffffffffffffffffffffffffffffffffffff1602179055509050508160135f820151815f015f6101000a8154816dffffffffffffffffffffffffffff02191690836dffffffffffffffffffffffffffff1602179055506020820151815f01600e6101000a8154816dffffffffffffffffffffffffffff02191690836dffffffffffffffffffffffffffff1602179055509050508060148190555060075f9054906101000a900473ffffffffffffffffffffffffffffffffffffffff1673ffffffffffffffffffffffffffffffffffffffff167f68244a6f78d032d260c7257f790325b8c3f03d57b49c7bfae942a9d003d3ba43846040516163ad91906188dc565b60405180910390a2505050565b6001600581905550565b6163d084848484616a46565b50505050565b5f60065f9054906101000a900473ffffffffffffffffffffffffffffffffffffffff1690508160065f6101000a81548173ffffffffffffffffffffffffffffffffffffffff021916908373ffffffffffffffffffffffffffffffffffffffff1602179055508173ffffffffffffffffffffffffffffffffffffffff168173ffffffffffffffffffffffffffffffffffffffff167f8be0079c531659141344cd1fd0a4f28419497f9722a3daafe3b4186f6b6457e060405160405180910390a35050565b8273ffffffffffffffffffffffffffffffffffffffff168573ffffffffffffffffffffffffffffffffffffffff16146164d8576164d78386836156c8565b5b6164e28382615f9b565b61650d7f00000000000000000000000000000000000000000000000000000000000000008584616592565b8273ffffffffffffffffffffffffffffffffffffffff168473ffffffffffffffffffffffffffffffffffffffff168673ffffffffffffffffffffffffffffffffffffffff167ffbde797d201c681b91056529119e0b02407c7bb96a4a2c75c01fc9667232c8db85856040516165839291906173df565b60405180910390a45050505050565b61660c838473ffffffffffffffffffffffffffffffffffffffff1663a9059cbb85856040516024016165c5929190617bed565b604051602081830303815290604052915060e01b6020820180517bffffffffffffffffffffffffffffffffffffffffffffffffffffffff8381831617835250505050616ae9565b505050565b5f61663f61661e83616b84565b801561663a57505f848061663557616634617780565b5b868809115b616bb1565b61664a868686616bbc565b6166549190617a22565b9050949350505050565b5f73ffffffffffffffffffffffffffffffffffffffff168473ffffffffffffffffffffffffffffffffffffffff16036166ce575f6040517fe602df050000000000000000000000000000000000000000000000000000000081526004016166c59190617156565b60405180910390fd5b5f73ffffffffffffffffffffffffffffffffffffffff168373ffffffffffffffffffffffffffffffffffffffff160361673e575f6040517f94280d620000000000000000000000000000000000000000000000000000000081526004016167359190617156565b60405180910390fd5b8160015f8673ffffffffffffffffffffffffffffffffffffffff1673ffffffffffffffffffffffffffffffffffffffff1681526020019081526020015f205f8573ffffffffffffffffffffffffffffffffffffffff1673ffffffffffffffffffffffffffffffffffffffff1681526020019081526020015f20819055508015616827578273ffffffffffffffffffffffffffffffffffffffff168473ffffffffffffffffffffffffffffffffffffffff167f8c5be1e5ebec7d5bd14f71427d1e84f3dd0314c0f7b2291e5b200ac8c7c3b9258460405161681e9190616de4565b60405180910390a35b50505050565b5f73ffffffffffffffffffffffffffffffffffffffff168373ffffffffffffffffffffffffffffffffffffffff160361687d578060025f8282546168719190617a22565b9250508190555061694b565b5f5f5f8573ffffffffffffffffffffffffffffffffffffffff1673ffffffffffffffffffffffffffffffffffffffff1681526020019081526020015f2054905081811015616906578381836040517fe450d38c0000000000000000000000000000000000000000000000000000000081526004016168fd93929190617ee5565b60405180910390fd5b8181035f5f8673ffffffffffffffffffffffffffffffffffffffff1673ffffffffffffffffffffffffffffffffffffffff1681526020019081526020015f2081905550505b5f73ffffffffffffffffffffffffffffffffffffffff168273ffffffffffffffffffffffffffffffffffffffff1603616992578060025f82825403925050819055506169dc565b805f5f8473ffffffffffffffffffffffffffffffffffffffff1673ffffffffffffffffffffffffffffffffffffffff1681526020019081526020015f205f82825401925050819055505b8173ffffffffffffffffffffffffffffffffffffffff168373ffffffffffffffffffffffffffffffffffffffff167fddf252ad1be2c89b69c2b068fc378daa952ba7f163c4a11628f55a4df523b3ef83604051616a399190616de4565b60405180910390a3505050565b616a727f0000000000000000000000000000000000000000000000000000000000000000853085616ca1565b616a7c8382616d23565b8273ffffffffffffffffffffffffffffffffffffffff168473ffffffffffffffffffffffffffffffffffffffff167fdcbc1c05240f31ff3ad067ef1ee35ce4997762752e3a095284754544f4c709d78484604051616adb9291906173df565b60405180910390a350505050565b5f5f60205f8451602086015f885af180616b08576040513d5f823e3d81fd5b3d92505f519150505f8214616b21576001811415616b3c565b5f8473ffffffffffffffffffffffffffffffffffffffff163b145b15616b7e57836040517f5274afe7000000000000000000000000000000000000000000000000000000008152600401616b759190617156565b60405180910390fd5b50505050565b5f60016002836003811115616b9c57616b9b6188f6565b5b616ba69190618923565b60ff16149050919050565b5f8115159050919050565b5f5f83850290505f5f19858709828110838203039150505f8103616bf457838281616bea57616be9617780565b5b0492505050616c9a565b808411616c1357616c12616c0d5f861460126011616da2565b616dbb565b5b5f8486880990508281118203915080830392505f855f038616905080860495508084049350600181825f0304019050808302841793505f600287600302189050808702600203810290508087026002038102905080870260020381029050808702600203810290508087026002038102905080870260020381029050808502955050505050505b9392505050565b616d1d848573ffffffffffffffffffffffffffffffffffffffff166323b872dd868686604051602401616cd6939291906186e2565b604051602081830303815290604052915060e01b6020820180517bffffffffffffffffffffffffffffffffffffffffffffffffffffffff8381831617835250505050616ae9565b50505050565b5f73ffffffffffffffffffffffffffffffffffffffff168273ffffffffffffffffffffffffffffffffffffffff1603616d93575f6040517fec442f05000000000000000000000000000000000000000000000000000000008152600401616d8a9190617156565b60405180910390fd5b616d9e5f838361682d565b5050565b5f616dac84616bb1565b82841802821890509392505050565b634e487b715f52806020526024601cfd5b5f819050919050565b616dde81616dcc565b82525050565b5f602082019050616df75f830184616dd5565b92915050565b5f604051905090565b5f5ffd5b5f5ffd5b5f73ffffffffffffffffffffffffffffffffffffffff82169050919050565b5f616e3782616e0e565b9050919050565b616e4781616e2d565b8114616e51575f5ffd5b50565b5f81359050616e6281616e3e565b92915050565b5f60208284031215616e7d57616e7c616e06565b5b5f616e8a84828501616e54565b91505092915050565b5f606082019050616ea65f830186616dd5565b616eb36020830185616dd5565b616ec06040830184616dd5565b949350505050565b5f81519050919050565b5f82825260208201905092915050565b8281835e5f83830152505050565b5f601f19601f8301169050919050565b5f616f0a82616ec8565b616f148185616ed2565b9350616f24818560208601616ee2565b616f2d81616ef0565b840191505092915050565b5f6020820190508181035f830152616f508184616f00565b905092915050565b616f6181616dcc565b8114616f6b575f5ffd5b50565b5f81359050616f7c81616f58565b92915050565b5f60208284031215616f9757616f96616e06565b5b5f616fa484828501616f6e565b91505092915050565b5f5f60408385031215616fc357616fc2616e06565b5b5f616fd085828601616e54565b9250506020616fe185828601616f6e565b9150509250929050565b5f8115159050919050565b616fff81616feb565b82525050565b5f6020820190506170185f830184616ff6565b92915050565b5f819050919050565b5f61704161703c61703784616e0e565b61701e565b616e0e565b9050919050565b5f61705282617027565b9050919050565b5f61706382617048565b9050919050565b61707381617059565b82525050565b5f60208201905061708c5f83018461706a565b92915050565b5f5f5f606084860312156170a9576170a8616e06565b5b5f6170b686828701616e54565b93505060206170c786828701616e54565b92505060406170d886828701616f6e565b9150509250925092565b5f819050919050565b6170f4816170e2565b82525050565b5f60208201905061710d5f8301846170eb565b92915050565b5f60ff82169050919050565b61712881617113565b82525050565b5f6020820190506171415f83018461711f565b92915050565b61715081616e2d565b82525050565b5f6020820190506171695f830184617147565b92915050565b5f61717982617048565b9050919050565b6171898161716f565b82525050565b5f6020820190506171a25f830184617180565b92915050565b5f6171b282617048565b9050919050565b6171c2816171a8565b82525050565b5f6020820190506171db5f8301846171b9565b92915050565b5f6dffffffffffffffffffffffffffff82169050919050565b617203816171e1565b82525050565b5f6101808201905061721d5f83018f617147565b61722a602083018e617147565b617237604083018d617147565b617244606083018c6171fa565b617251608083018b6171fa565b61725e60a083018a616dd5565b61726b60c0830189616dd5565b61727860e0830188616dd5565b617286610100830187616dd5565b617294610120830186616dd5565b6172a2610140830185616dd5565b6172b0610160830184617147565b9d9c50505050505050505050505050565b5f5ffd5b5f5ffd5b5f5ffd5b5f5f83601f8401126172e2576172e16172c1565b5b8235905067ffffffffffffffff8111156172ff576172fe6172c5565b5b60208301915083602082028301111561731b5761731a6172c9565b5b9250929050565b5f5f5f5f5f5f60a0878903121561733c5761733b616e06565b5b5f61734989828a01616f6e565b965050602061735a89828a01616e54565b955050604061736b89828a01616e54565b945050606087013567ffffffffffffffff81111561738c5761738b616e0a565b5b61739889828a016172cd565b935093505060806173ab89828a01616f6e565b9150509295509295509295565b5f6040820190506173cb5f830185616dd5565b6173d86020830184617147565b9392505050565b5f6040820190506173f25f830185616dd5565b6173ff6020830184616dd5565b9392505050565b5f5ffd5b5f61018082840312156174205761741f617406565b5b81905092915050565b5f6040828403121561743e5761743d617406565b5b81905092915050565b617450816170e2565b811461745a575f5ffd5b50565b5f8135905061746b81617447565b92915050565b5f5f5f6101e0848603121561748957617488616e06565b5b5f6174968682870161740a565b9350506101806174a886828701617429565b9250506101c06174ba8682870161745d565b9150509250925092565b5f5f604083850312156174da576174d9616e06565b5b5f6174e785828601616f6e565b92505060206174f885828601616e54565b9150509250929050565b5f6080820190506175155f830187616dd5565b6175226020830186616dd5565b61752f6040830185616dd5565b61753c6060830184617147565b95945050505050565b5f5f5f6060848603121561755c5761755b616e06565b5b5f61756986828701616f6e565b935050602061757a86828701616e54565b925050604061758b86828701616e54565b9150509250925092565b5f61759f82617048565b9050919050565b6175af81617595565b82525050565b5f6020820190506175c85f8301846175a6565b92915050565b5f5f604083850312156175e4576175e3616e06565b5b5f6175f185828601616e54565b925050602061760285828601616e54565b9150509250929050565b5f60408201905061761f5f8301856171fa565b61762c60208301846171fa565b9392505050565b5f5f5f5f5f5f5f610260888a03121561764f5761764e616e06565b5b5f61765c8a828b01616f6e565b975050602061766d8a828b01616f6e565b965050604061767e8a828b01616f6e565b955050606061768f8a828b01616f6e565b94505060806176a08a828b0161740a565b9350506102006176b28a828b01617429565b9250506102406176c48a828b0161745d565b91505092959891949750929550565b5f815190506176e181616f58565b92915050565b5f602082840312156176fc576176fb616e06565b5b5f617709848285016176d3565b91505092915050565b7f4e487b71000000000000000000000000000000000000000000000000000000005f52601160045260245ffd5b5f61774982616dcc565b915061775483616dcc565b925082820261776281616dcc565b9150828204841483151761777957617778617712565b5b5092915050565b7f4e487b71000000000000000000000000000000000000000000000000000000005f52601260045260245ffd5b5f6177b782616dcc565b91506177c283616dcc565b9250826177d2576177d1617780565b5b828204905092915050565b7f4e487b71000000000000000000000000000000000000000000000000000000005f52602260045260245ffd5b5f600282049050600182168061782157607f821691505b602082108103617834576178336177dd565b5b50919050565b5f61784482617113565b915061784f83617113565b9250828201905060ff81111561786857617867617712565b5b92915050565b7f496e76616c696420626f72726f7720616d6f756e7400000000000000000000005f82015250565b5f6178a2601583616ed2565b91506178ad8261786e565b602082019050919050565b5f6020820190508181035f8301526178cf81617896565b9050919050565b5f6040820190506178e95f830185617147565b6178f66020830184617147565b9392505050565b61790681616feb565b8114617910575f5ffd5b50565b5f81519050617921816178fd565b92915050565b5f6020828403121561793c5761793b616e06565b5b5f61794984828501617913565b91505092915050565b7f446561646c696e652065786365656465640000000000000000000000000000005f82015250565b5f617986601183616ed2565b915061799182617952565b602082019050919050565b5f6020820190508181035f8301526179b38161797a565b9050919050565b7f496e76616c6964206d696e4f75742061727261790000000000000000000000005f82015250565b5f6179ee601483616ed2565b91506179f9826179ba565b602082019050919050565b5f6020820190508181035f830152617a1b816179e2565b9050919050565b5f617a2c82616dcc565b9150617a3783616dcc565b9250828201905080821115617a4f57617a4e617712565b5b92915050565b7f4e487b71000000000000000000000000000000000000000000000000000000005f52603260045260245ffd5b7f496e73756666696369656e7420555344430000000000000000000000000000005f82015250565b5f617ab6601183616ed2565b9150617ac182617a82565b602082019050919050565b5f6020820190508181035f830152617ae381617aaa565b9050919050565b7f496e73756666696369656e7420574554480000000000000000000000000000005f82015250565b5f617b1e601183616ed2565b9150617b2982617aea565b602082019050919050565b5f6020820190508181035f830152617b4b81617b12565b9050919050565b7f4465627420746f6f2068696768000000000000000000000000000000000000005f82015250565b5f617b86600d83616ed2565b9150617b9182617b52565b602082019050919050565b5f6020820190508181035f830152617bb381617b7a565b9050919050565b5f617bc482616dcc565b9150617bcf83616dcc565b9250828203905081811115617be757617be6617712565b5b92915050565b5f604082019050617c005f830185617147565b617c0d6020830184616dd5565b9392505050565b7f506f6f6c20616c726561647920696e7374616c6c6564000000000000000000005f82015250565b5f617c48601683616ed2565b9150617c5382617c14565b602082019050919050565b5f6020820190508181035f830152617c7581617c3c565b9050919050565b5f5ffd5b7f4e487b71000000000000000000000000000000000000000000000000000000005f52604160045260245ffd5b617cb682616ef0565b810181811067ffffffffffffffff82111715617cd557617cd4617c80565b5b80604052505050565b5f617ce7616dfd565b9050617cf38282617cad565b919050565b617d01816171e1565b8114617d0b575f5ffd5b50565b5f81359050617d1c81617cf8565b92915050565b5f6101808284031215617d3857617d37617c7c565b5b617d43610180617cde565b90505f617d5284828501616e54565b5f830152506020617d6584828501616e54565b6020830152506040617d7984828501616e54565b6040830152506060617d8d84828501617d0e565b6060830152506080617da184828501617d0e565b60808301525060a0617db584828501616f6e565b60a08301525060c0617dc984828501616f6e565b60c08301525060e0617ddd84828501616f6e565b60e083015250610100617df284828501616f6e565b61010083015250610120617e0884828501616f6e565b61012083015250610140617e1e84828501616f6e565b61014083015250610160617e3484828501616e54565b6101608301525092915050565b5f6101808284031215617e5757617e56616e06565b5b5f617e6484828501617d22565b91505092915050565b5f60408284031215617e8257617e81617c7c565b5b617e8c6040617cde565b90505f617e9b84828501617d0e565b5f830152506020617eae84828501617d0e565b60208301525092915050565b5f60408284031215617ecf57617ece616e06565b5b5f617edc84828501617e6d565b91505092915050565b5f606082019050617ef85f830186617147565b617f056020830185616dd5565b617f126040830184616dd5565b949350505050565b7f4e6f205553444320746f206c656e6400000000000000000000000000000000005f82015250565b5f617f4e600f83616ed2565b9150617f5982617f1a565b602082019050919050565b5f6020820190508181035f830152617f7b81617f42565b9050919050565b7f4e6f205745544820746f206c656e6400000000000000000000000000000000005f82015250565b5f617fb6600f83616ed2565b9150617fc182617f82565b602082019050919050565b5f6020820190508181035f830152617fe381617faa565b9050919050565b7f4e6f2055534443206465627420746f20726570617900000000000000000000005f82015250565b5f61801e601583616ed2565b915061802982617fea565b602082019050919050565b5f6020820190508181035f83015261804b81618012565b9050919050565b7f496e73756666696369656e7420555344432062616c616e636520666f722072655f8201527f7061796d656e7400000000000000000000000000000000000000000000000000602082015250565b5f6180ac602783616ed2565b91506180b782618052565b604082019050919050565b5f6020820190508181035f8301526180d9816180a0565b9050919050565b5f6060820190506180f35f830186616dd5565b6181006020830185617147565b61810d6040830184617147565b949350505050565b7f4e6f206465627420746f207265706179000000000000000000000000000000005f82015250565b5f618149601083616ed2565b915061815482618115565b602082019050919050565b5f6020820190508181035f8301526181768161813d565b9050919050565b7f496e73756666696369656e7420574554482062616c616e636520666f722072655f8201527f7061796d656e7400000000000000000000000000000000000000000000000000602082015250565b5f6181d7602783616ed2565b91506181e28261817d565b604082019050919050565b5f6020820190508181035f830152618204816181cb565b9050919050565b7f4e6f20706f6f6c20696e7374616c6c65640000000000000000000000000000005f82015250565b5f61823f601183616ed2565b915061824a8261820b565b602082019050919050565b5f6020820190508181035f83015261826c81618233565b9050919050565b7f496e73756666696369656e7420555344432062616c616e6365000000000000005f82015250565b5f6182a7601983616ed2565b91506182b282618273565b602082019050919050565b5f6020820190508181035f8301526182d48161829b565b9050919050565b7f496e73756666696369656e7420574554482062616c616e6365000000000000005f82015250565b5f61830f601983616ed2565b915061831a826182db565b602082019050919050565b5f6020820190508181035f83015261833c81618303565b9050919050565b5f8160011c9050919050565b5f5f8291508390505b60018511156183985780860481111561837457618373617712565b5b60018516156183835780820291505b808102905061839185618343565b9450618358565b94509492505050565b5f826183b0576001905061846b565b816183bd575f905061846b565b81600181146183d357600281146183dd5761840c565b600191505061846b565b60ff8411156183ef576183ee617712565b5b8360020a91508482111561840657618405617712565b5b5061846b565b5060208310610133831016604e8410600b84101617156184415782820a90508381111561843c5761843b617712565b5b61846b565b61844e848484600161834f565b9250905081840481111561846557618464617712565b5b81810290505b9392505050565b5f61847c82616dcc565b915061848783617113565b92506184b47fffffffffffffffffffffffffffffffffffffffffffffffffffffffffffffffff84846183a1565b905092915050565b7f4e6f6e636520746f6f206c6172676500000000000000000000000000000000005f82015250565b5f6184f0600f83616ed2565b91506184fb826184bc565b602082019050919050565b5f6020820190508181035f83015261851d816184e4565b9050919050565b5f819050919050565b5f61854761854261853d84618524565b61701e565b616dcc565b9050919050565b6185578161852d565b82525050565b5f81519050919050565b5f82825260208201905092915050565b5f6185818261855d565b61858b8185618567565b935061859b818560208601616ee2565b6185a481616ef0565b840191505092915050565b5f6080820190506185c25f830187617147565b6185cf6020830186617147565b6185dc604083018561854e565b81810360608301526185ee8184618577565b905095945050505050565b5f5ffd5b5f67ffffffffffffffff82111561861757618616617c80565b5b61862082616ef0565b9050602081019050919050565b5f61863f61863a846185fd565b617cde565b90508281526020810184848401111561865b5761865a6185f9565b5b618666848285616ee2565b509392505050565b5f82601f830112618682576186816172c1565b5b815161869284826020860161862d565b91505092915050565b5f602082840312156186b0576186af616e06565b5b5f82015167ffffffffffffffff8111156186cd576186cc616e0a565b5b6186d98482850161866e565b91505092915050565b5f6060820190506186f55f830186617147565b6187026020830185617147565b61870f6040830184616dd5565b949350505050565b61872081616e2d565b82525050565b61872f816171e1565b82525050565b61873e81616dcc565b82525050565b61018082015f8201516187595f850182618717565b50602082015161876c6020850182618717565b50604082015161877f6040850182618717565b5060608201516187926060850182618726565b5060808201516187a56080850182618726565b5060a08201516187b860a0850182618735565b5060c08201516187cb60c0850182618735565b5060e08201516187de60e0850182618735565b506101008201516187f3610100850182618735565b50610120820151618808610120850182618735565b5061014082015161881d610140850182618735565b50610160820151618832610160850182618717565b50505050565b604082015f82015161884c5f850182618726565b50602082015161885f6020850182618726565b50505050565b5f6101e0820190506188795f830186618744565b618887610180830185618838565b6188956101c08301846170eb565b949350505050565b5f815190506188ab81616e3e565b92915050565b5f602082840312156188c6576188c5616e06565b5b5f6188d38482850161889d565b91505092915050565b5f610180820190506188f05f830184618744565b92915050565b7f4e487b71000000000000000000000000000000000000000000000000000000005f52602160045260245ffd5b5f61892d82617113565b915061893883617113565b92508261894857618947617780565b5b82820690509291505056fea2646970667358221220dc50e95b53afed59c100642d9e670092c96c37d64262029f498ecbf36dfa734f64736f6c634300081b0033","linkReferences":{}},"methodIdentifiers":{"allowance(address,address)":"dd62ed3e","approve(address,uint256)":"095ea7b3","asset()":"38d52e0f","balanceOf(address)":"70a08231","borrowUsdc(uint256)":"631a20ba","borrowWeth(uint256)":"41fd7478","convertToAssets(uint256)":"07a2d13a","convertToShares(uint256)":"c6e6f592","currentPool()":"692b69ae","decimals()":"313ce567","deposit(uint256,address)":"6e553f65","evc()":"0fb411e8","factory()":"c45a0155","getPositions()":"80275860","getUserNonceInfo(address)":"5659df08","installPool((address,address,address,uint112,uint112,uint256,uint256,uint256,uint256,uint256,uint256,address),(uint112,uint112),bytes32)":"5c572e3e","lastInitialState()":"ea02f72c","lastParams()":"50392716","lastSalt()":"30996b97","lendUsdc()":"8c24ff32","lendWeth()":"96c89de5","maxDeposit(address)":"402d267d","maxMint(address)":"c63d75b6","maxRedeem(address)":"d905777e","maxWithdraw(address)":"ce96cb77","mint(uint256,address)":"94bf804d","name()":"06fdde03","owner()":"8da5cb5b","previewDeposit(uint256)":"ef8b30f7","previewMint(uint256)":"b3d7f6b9","previewProportionalWithdraw(address)":"06a92512","previewRedeem(uint256)":"4cdad506","previewWithdraw(uint256)":"0a28a477","previewWithdrawalSubAccount(address)":"f78ed1db","rebalance(uint256,uint256,uint256,uint256,(address,address,address,uint112,uint112,uint256,uint256,uint256,uint256,uint256,uint256,address),(uint112,uint112),bytes32)":"fa6e63a7","redeem(uint256,address,address)":"ba087652","renounceOwnership()":"715018a6","repayUsdc(uint256)":"ec900795","repayWeth(uint256)":"f442c17d","symbol()":"95d89b41","totalAssets()":"01e1d114","totalSupply()":"18160ddd","transfer(address,uint256)":"a9059cbb","transferFrom(address,address,uint256)":"23b872dd","transferOwnership(address)":"f2fde38b","uninstallPool()":"f75b102d","usdcVault()":"45c397eb","userNonces(address)":"2f7801f4","weth()":"3fc8cef3","wethVault()":"be93981f","withdraw(uint256,address,address)":"b460af94","withdraw(uint256,address,address,uint256[],uint256)":"eeb47e09","withdrawToSubAccount(uint256,address,address,uint256[],uint256)":"50500774"},"id":46}