{"abi":[{"type":"constructor","inputs":[{"name":"_usdc","type":"address","internalType":"contract IERC20"},{"name":"_factory","type":"address","internalType":"contract IEulerSwapFactory"},{"name":"_evc","type":"address","internalType":"contract IEVC"},{"name":"_usdcVault","type":"address","internalType":"contract IEVault"},{"name":"_wethVault","type":"address","internalType":"contract IEVault"},{"name":"_weth","type":"address","internalType":"contract IERC20"},{"name":"_owner","type":"address","internalType":"address"}],"stateMutability":"nonpayable"},{"type":"function","name":"allowance","inputs":[{"name":"owner","type":"address","internalType":"address"},{"name":"spender","type":"address","internalType":"address"}],"outputs":[{"name":"","type":"uint256","internalType":"uint256"}],"stateMutability":"view"},{"type":"function","name":"approve","inputs":[{"name":"spender","type":"address","internalType":"address"},{"name":"value","type":"uint256","internalType":"uint256"}],"outputs":[{"name":"","type":"bool","internalType":"bool"}],"stateMutability":"nonpayable"},{"type":"function","name":"asset","inputs":[],"outputs":[{"name":"","type":"address","internalType":"address"}],"stateMutability":"view"},{"type":"function","name":"balanceOf","inputs":[{"name":"account","type":"address","internalType":"address"}],"outputs":[{"name":"","type":"uint256","internalType":"uint256"}],"stateMutability":"view"},{"type":"function","name":"borrowUsdc","inputs":[{"name":"usdcAmount","type":"uint256","internalType":"uint256"}],"outputs":[],"stateMutability":"nonpayable"},{"type":"function","name":"borrowWeth","inputs":[{"name":"wethAmount","type":"uint256","internalType":"uint256"}],"outputs":[],"stateMutability":"nonpayable"},{"type":"function","name":"convertToAssets","inputs":[{"name":"shares","type":"uint256","internalType":"uint256"}],"outputs":[{"name":"","type":"uint256","internalType":"uint256"}],"stateMutability":"view"},{"type":"function","name":"convertToShares","inputs":[{"name":"assets","type":"uint256","internalType":"uint256"}],"outputs":[{"name":"","type":"uint256","internalType":"uint256"}],"stateMutability":"view"},{"type":"function","name":"currentPool","inputs":[],"outputs":[{"name":"","type":"address","internalType":"address"}],"stateMutability":"view"},{"type":"function","name":"decimals","inputs":[],"outputs":[{"name":"","type":"uint8","internalType":"uint8"}],"stateMutability":"view"},{"type":"function","name":"deposit","inputs":[{"name":"assets","type":"uint256","internalType":"uint256"},{"name":"receiver","type":"address","internalType":"address"}],"outputs":[{"name":"","type":"uint256","internalType":"uint256"}],"stateMutability":"nonpayable"},{"type":"function","name":"evc","inputs":[],"outputs":[{"name":"","type":"address","internalType":"contract IEVC"}],"stateMutability":"view"},{"type":"function","name":"factory","inputs":[],"outputs":[{"name":"","type":"address","internalType":"contract IEulerSwapFactory"}],"stateMutability":"view"},{"type":"function","name":"getPositions","inputs":[],"outputs":[{"name":"usdcCollateral","type":"uint256","internalType":"uint256"},{"name":"wethBalance","type":"uint256","internalType":"uint256"},{"name":"wethDebt","type":"uint256","internalType":"uint256"},{"name":"activePool","type":"address","internalType":"address"}],"stateMutability":"view"},{"type":"function","name":"getUserNonceInfo","inputs":[{"name":"user","type":"address","internalType":"address"}],"outputs":[{"name":"used","type":"uint256","internalType":"uint256"},{"name":"remaining","type":"uint256","internalType":"uint256"}],"stateMutability":"view"},{"type":"function","name":"installPool","inputs":[{"name":"params","type":"tuple","internalType":"struct IEulerSwap.Params","components":[{"name":"vault0","type":"address","internalType":"address"},{"name":"vault1","type":"address","internalType":"address"},{"name":"eulerAccount","type":"address","internalType":"address"},{"name":"equilibriumReserve0","type":"uint112","internalType":"uint112"},{"name":"equilibriumReserve1","type":"uint112","internalType":"uint112"},{"name":"priceX","type":"uint256","internalType":"uint256"},{"name":"priceY","type":"uint256","internalType":"uint256"},{"name":"concentrationX","type":"uint256","internalType":"uint256"},{"name":"concentrationY","type":"uint256","internalType":"uint256"},{"name":"fee","type":"uint256","internalType":"uint256"},{"name":"protocolFee","type":"uint256","internalType":"uint256"},{"name":"protocolFeeRecipient","type":"address","internalType":"address"}]},{"name":"initialState","type":"tuple","internalType":"struct IEulerSwap.InitialState","components":[{"name":"currReserve0","type":"uint112","internalType":"uint112"},{"name":"currReserve1","type":"uint112","internalType":"uint112"}]},{"name":"salt","type":"bytes32","internalType":"bytes32"}],"outputs":[],"stateMutability":"nonpayable"},{"type":"function","name":"lastInitialState","inputs":[],"outputs":[{"name":"currReserve0","type":"uint112","internalType":"uint112"},{"name":"currReserve1","type":"uint112","internalType":"uint112"}],"stateMutability":"view"},{"type":"function","name":"lastParams","inputs":[],"outputs":[{"name":"vault0","type":"address","internalType":"address"},{"name":"vault1","type":"address","internalType":"address"},{"name":"eulerAccount","type":"address","internalType":"address"},{"name":"equilibriumReserve0","type":"uint112","internalType":"uint112"},{"name":"equilibriumReserve1","type":"uint112","internalType":"uint112"},{"name":"priceX","type":"uint256","internalType":"uint256"},{"name":"priceY","type":"uint256","internalType":"uint256"},{"name":"concentrationX","type":"uint256","internalType":"uint256"},{"name":"concentrationY","type":"uint256","internalType":"uint256"},{"name":"fee","type":"uint256","internalType":"uint256"},{"name":"protocolFee","type":"uint256","internalType":"uint256"},{"name":"protocolFeeRecipient","type":"address","internalType":"address"}],"stateMutability":"view"},{"type":"function","name":"lastSalt","inputs":[],"outputs":[{"name":"","type":"bytes32","internalType":"bytes32"}],"stateMutability":"view"},{"type":"function","name":"lendUsdc","inputs":[],"outputs":[],"stateMutability":"nonpayable"},{"type":"function","name":"lendWeth","inputs":[],"outputs":[],"stateMutability":"nonpayable"},{"type":"function","name":"maxDeposit","inputs":[{"name":"","type":"address","internalType":"address"}],"outputs":[{"name":"","type":"uint256","internalType":"uint256"}],"stateMutability":"view"},{"type":"function","name":"maxMint","inputs":[{"name":"","type":"address","internalType":"address"}],"outputs":[{"name":"","type":"uint256","internalType":"uint256"}],"stateMutability":"view"},{"type":"function","name":"maxRedeem","inputs":[{"name":"owner","type":"address","internalType":"address"}],"outputs":[{"name":"","type":"uint256","internalType":"uint256"}],"stateMutability":"view"},{"type":"function","name":"maxWithdraw","inputs":[{"name":"owner","type":"address","internalType":"address"}],"outputs":[{"name":"","type":"uint256","internalType":"uint256"}],"stateMutability":"view"},{"type":"function","name":"mint","inputs":[{"name":"shares","type":"uint256","internalType":"uint256"},{"name":"receiver","type":"address","internalType":"address"}],"outputs":[{"name":"","type":"uint256","internalType":"uint256"}],"stateMutability":"nonpayable"},{"type":"function","name":"name","inputs":[],"outputs":[{"name":"","type":"string","internalType":"string"}],"stateMutability":"view"},{"type":"function","name":"owner","inputs":[],"outputs":[{"name":"","type":"address","internalType":"address"}],"stateMutability":"view"},{"type":"function","name":"previewDeposit","inputs":[{"name":"assets","type":"uint256","internalType":"uint256"}],"outputs":[{"name":"","type":"uint256","internalType":"uint256"}],"stateMutability":"view"},{"type":"function","name":"previewMint","inputs":[{"name":"shares","type":"uint256","internalType":"uint256"}],"outputs":[{"name":"","type":"uint256","internalType":"uint256"}],"stateMutability":"view"},{"type":"function","name":"previewProportionalWithdraw","inputs":[{"name":"user","type":"address","internalType":"address"}],"outputs":[{"name":"usdcAmount","type":"uint256","internalType":"uint256"},{"name":"wethAmount","type":"uint256","internalType":"uint256"},{"name":"wethDebt","type":"uint256","internalType":"uint256"}],"stateMutability":"view"},{"type":"function","name":"previewRedeem","inputs":[{"name":"shares","type":"uint256","internalType":"uint256"}],"outputs":[{"name":"","type":"uint256","internalType":"uint256"}],"stateMutability":"view"},{"type":"function","name":"previewWithdraw","inputs":[{"name":"assets","type":"uint256","internalType":"uint256"}],"outputs":[{"name":"","type":"uint256","internalType":"uint256"}],"stateMutability":"view"},{"type":"function","name":"previewWithdrawalSubAccount","inputs":[{"name":"user","type":"address","internalType":"address"}],"outputs":[{"name":"","type":"address","internalType":"address"}],"stateMutability":"view"},{"type":"function","name":"rebalance","inputs":[{"name":"usdcToLend","type":"uint256","internalType":"uint256"},{"name":"targetWethBorrow","type":"uint256","internalType":"uint256"},{"name":"wethToLend","type":"uint256","internalType":"uint256"},{"name":"targetUsdcBorrow","type":"uint256","internalType":"uint256"},{"name":"newParams","type":"tuple","internalType":"struct IEulerSwap.Params","components":[{"name":"vault0","type":"address","internalType":"address"},{"name":"vault1","type":"address","internalType":"address"},{"name":"eulerAccount","type":"address","internalType":"address"},{"name":"equilibriumReserve0","type":"uint112","internalType":"uint112"},{"name":"equilibriumReserve1","type":"uint112","internalType":"uint112"},{"name":"priceX","type":"uint256","internalType":"uint256"},{"name":"priceY","type":"uint256","internalType":"uint256"},{"name":"concentrationX","type":"uint256","internalType":"uint256"},{"name":"concentrationY","type":"uint256","internalType":"uint256"},{"name":"fee","type":"uint256","internalType":"uint256"},{"name":"protocolFee","type":"uint256","internalType":"uint256"},{"name":"protocolFeeRecipient","type":"address","internalType":"address"}]},{"name":"newInitialState","type":"tuple","internalType":"struct IEulerSwap.InitialState","components":[{"name":"currReserve0","type":"uint112","internalType":"uint112"},{"name":"currReserve1","type":"uint112","internalType":"uint112"}]},{"name":"newSalt","type":"bytes32","internalType":"bytes32"}],"outputs":[],"stateMutability":"nonpayable"},{"type":"function","name":"redeem","inputs":[{"name":"shares","type":"uint256","internalType":"uint256"},{"name":"receiver","type":"address","internalType":"address"},{"name":"owner","type":"address","internalType":"address"}],"outputs":[{"name":"","type":"uint256","internalType":"uint256"}],"stateMutability":"nonpayable"},{"type":"function","name":"renounceOwnership","inputs":[],"outputs":[],"stateMutability":"nonpayable"},{"type":"function","name":"repayUsdc","inputs":[{"name":"usdcAmount","type":"uint256","internalType":"uint256"}],"outputs":[],"stateMutability":"nonpayable"},{"type":"function","name":"repayWeth","inputs":[{"name":"wethAmount","type":"uint256","internalType":"uint256"}],"outputs":[],"stateMutability":"nonpayable"},{"type":"function","name":"symbol","inputs":[],"outputs":[{"name":"","type":"string","internalType":"string"}],"stateMutability":"view"},{"type":"function","name":"totalAssets","inputs":[],"outputs":[{"name":"","type":"uint256","internalType":"uint256"}],"stateMutability":"view"},{"type":"function","name":"totalSupply","inputs":[],"outputs":[{"name":"","type":"uint256","internalType":"uint256"}],"stateMutability":"view"},{"type":"function","name":"transfer","inputs":[{"name":"to","type":"address","internalType":"address"},{"name":"value","type":"uint256","internalType":"uint256"}],"outputs":[{"name":"","type":"bool","internalType":"bool"}],"stateMutability":"nonpayable"},{"type":"function","name":"transferFrom","inputs":[{"name":"from","type":"address","internalType":"address"},{"name":"to","type":"address","internalType":"address"},{"name":"value","type":"uint256","internalType":"uint256"}],"outputs":[{"name":"","type":"bool","internalType":"bool"}],"stateMutability":"nonpayable"},{"type":"function","name":"transferOwnership","inputs":[{"name":"newOwner","type":"address","internalType":"address"}],"outputs":[],"stateMutability":"nonpayable"},{"type":"function","name":"uninstallPool","inputs":[],"outputs":[],"stateMutability":"nonpayable"},{"type":"function","name":"usdcVault","inputs":[],"outputs":[{"name":"","type":"address","internalType":"contract IEVault"}],"stateMutability":"view"},{"type":"function","name":"userNonces","inputs":[{"name":"","type":"address","internalType":"address"}],"outputs":[{"name":"","type":"uint256","internalType":"uint256"}],"stateMutability":"view"},{"type":"function","name":"weth","inputs":[],"outputs":[{"name":"","type":"address","internalType":"contract IERC20"}],"stateMutability":"view"},{"type":"function","name":"wethVault","inputs":[],"outputs":[{"name":"","type":"address","internalType":"contract IEVault"}],"stateMutability":"view"},{"type":"function","name":"withdraw","inputs":[{"name":"assets","type":"uint256","internalType":"uint256"},{"name":"receiver","type":"address","internalType":"address"},{"name":"owner","type":"address","internalType":"address"}],"outputs":[{"name":"","type":"uint256","internalType":"uint256"}],"stateMutability":"nonpayable"},{"type":"function","name":"withdrawToSubAccount","inputs":[{"name":"assets","type":"uint256","internalType":"uint256"},{"name":"receiver","type":"address","internalType":"address"},{"name":"owner","type":"address","internalType":"address"},{"name":"minOut","type":"uint256[]","internalType":"uint256[]"},{"name":"deadline","type":"uint256","internalType":"uint256"}],"outputs":[{"name":"shares","type":"uint256","internalType":"uint256"},{"name":"userSubAccount","type":"address","internalType":"address"}],"stateMutability":"nonpayable"},{"type":"event","name":"Approval","inputs":[{"name":"owner","type":"address","indexed":true,"internalType":"address"},{"name":"spender","type":"address","indexed":true,"internalType":"address"},{"name":"value","type":"uint256","indexed":false,"internalType":"uint256"}],"anonymous":false},{"type":"event","name":"Deposit","inputs":[{"name":"sender","type":"address","indexed":true,"internalType":"address"},{"name":"owner","type":"address","indexed":true,"internalType":"address"},{"name":"assets","type":"uint256","indexed":false,"internalType":"uint256"},{"name":"shares","type":"uint256","indexed":false,"internalType":"uint256"}],"anonymous":false},{"type":"event","name":"OwnershipTransferred","inputs":[{"name":"previousOwner","type":"address","indexed":true,"internalType":"address"},{"name":"newOwner","type":"address","indexed":true,"internalType":"address"}],"anonymous":false},{"type":"event","name":"PoolInstalled","inputs":[{"name":"pool","type":"address","indexed":true,"internalType":"address"},{"name":"params","type":"tuple","indexed":false,"internalType":"struct IEulerSwap.Params","components":[{"name":"vault0","type":"address","internalType":"address"},{"name":"vault1","type":"address","internalType":"address"},{"name":"eulerAccount","type":"address","internalType":"address"},{"name":"equilibriumReserve0","type":"uint112","internalType":"uint112"},{"name":"equilibriumReserve1","type":"uint112","internalType":"uint112"},{"name":"priceX","type":"uint256","internalType":"uint256"},{"name":"priceY","type":"uint256","internalType":"uint256"},{"name":"concentrationX","type":"uint256","internalType":"uint256"},{"name":"concentrationY","type":"uint256","internalType":"uint256"},{"name":"fee","type":"uint256","internalType":"uint256"},{"name":"protocolFee","type":"uint256","internalType":"uint256"},{"name":"protocolFeeRecipient","type":"address","internalType":"address"}]}],"anonymous":false},{"type":"event","name":"PoolUninstalled","inputs":[{"name":"pool","type":"address","indexed":true,"internalType":"address"}],"anonymous":false},{"type":"event","name":"SubAccountCreated","inputs":[{"name":"user","type":"address","indexed":true,"internalType":"address"},{"name":"subAccount","type":"address","indexed":false,"internalType":"address"},{"name":"nonce","type":"uint256","indexed":false,"internalType":"uint256"}],"anonymous":false},{"type":"event","name":"Transfer","inputs":[{"name":"from","type":"address","indexed":true,"internalType":"address"},{"name":"to","type":"address","indexed":true,"internalType":"address"},{"name":"value","type":"uint256","indexed":false,"internalType":"uint256"}],"anonymous":false},{"type":"event","name":"Withdraw","inputs":[{"name":"sender","type":"address","indexed":true,"internalType":"address"},{"name":"receiver","type":"address","indexed":true,"internalType":"address"},{"name":"owner","type":"address","indexed":true,"internalType":"address"},{"name":"assets","type":"uint256","indexed":false,"internalType":"uint256"},{"name":"shares","type":"uint256","indexed":false,"internalType":"uint256"}],"anonymous":false},{"type":"event","name":"WithdrawalExecuted","inputs":[{"name":"user","type":"address","indexed":true,"internalType":"address"},{"name":"usdcAmount","type":"uint256","indexed":false,"internalType":"uint256"},{"name":"wethAmount","type":"uint256","indexed":false,"internalType":"uint256"},{"name":"wethDebt","type":"uint256","indexed":false,"internalType":"uint256"}],"anonymous":false},{"type":"error","name":"ERC20InsufficientAllowance","inputs":[{"name":"spender","type":"address","internalType":"address"},{"name":"allowance","type":"uint256","internalType":"uint256"},{"name":"needed","type":"uint256","internalType":"uint256"}]},{"type":"error","name":"ERC20InsufficientBalance","inputs":[{"name":"sender","type":"address","internalType":"address"},{"name":"balance","type":"uint256","internalType":"uint256"},{"name":"needed","type":"uint256","internalType":"uint256"}]},{"type":"error","name":"ERC20InvalidApprover","inputs":[{"name":"approver","type":"address","internalType":"address"}]},{"type":"error","name":"ERC20InvalidReceiver","inputs":[{"name":"receiver","type":"address","internalType":"address"}]},{"type":"error","name":"ERC20InvalidSender","inputs":[{"name":"sender","type":"address","internalType":"address"}]},{"type":"error","name":"ERC20InvalidSpender","inputs":[{"name":"spender","type":"address","internalType":"address"}]},{"type":"error","name":"ERC4626ExceededMaxDeposit","inputs":[{"name":"receiver","type":"address","internalType":"address"},{"name":"assets","type":"uint256","internalType":"uint256"},{"name":"max","type":"uint256","internalType":"uint256"}]},{"type":"error","name":"ERC4626ExceededMaxMint","inputs":[{"name":"receiver","type":"address","internalType":"address"},{"name":"shares","type":"uint256","internalType":"uint256"},{"name":"max","type":"uint256","internalType":"uint256"}]},{"type":"error","name":"ERC4626ExceededMaxRedeem","inputs":[{"name":"owner","type":"address","internalType":"address"},{"name":"shares","type":"uint256","internalType":"uint256"},{"name":"max","type":"uint256","internalType":"uint256"}]},{"type":"error","name":"ERC4626ExceededMaxWithdraw","inputs":[{"name":"owner","type":"address","internalType":"address"},{"name":"assets","type":"uint256","internalType":"uint256"},{"name":"max","type":"uint256","internalType":"uint256"}]},{"type":"error","name":"OwnableInvalidOwner","inputs":[{"name":"owner","type":"address","internalType":"address"}]},{"type":"error","name":"OwnableUnauthorizedAccount","inputs":[{"name":"account","type":"address","internalType":"address"}]},{"type":"error","name":"ReentrancyGuardReentrantCall","inputs":[]},{"type":"error","name":"SafeERC20FailedOperation","inputs":[{"name":"token","type":"address","internalType":"address"}]}],"bytecode":{"object":"0x610160604052348015610010575f5ffd5b50604051618e55380380618e5583398181016040528101906100329190610712565b80876040518060400160405280601381526020017f44656c7461204e65757472616c205661756c74000000000000000000000000008152506040518060400160405280600381526020017f444e56000000000000000000000000000000000000000000000000000000000081525081600390816100af91906109ec565b5080600490816100bf91906109ec565b5050505f5f6100d3836103fc60201b60201c565b91509150816100e35760126100e5565b805b60ff1660a08160ff16815250508273ffffffffffffffffffffffffffffffffffffffff1660808173ffffffffffffffffffffffffffffffffffffffff168152505050505060016005819055505f73ffffffffffffffffffffffffffffffffffffffff168173ffffffffffffffffffffffffffffffffffffffff16036101a1575f6040517f1e4fbdf70000000000000000000000000000000000000000000000000000000081526004016101989190610aca565b60405180910390fd5b6101b08161050560201b60201c565b508573ffffffffffffffffffffffffffffffffffffffff1660c08173ffffffffffffffffffffffffffffffffffffffff16815250508473ffffffffffffffffffffffffffffffffffffffff1660e08173ffffffffffffffffffffffffffffffffffffffff16815250508373ffffffffffffffffffffffffffffffffffffffff166101008173ffffffffffffffffffffffffffffffffffffffff16815250508273ffffffffffffffffffffffffffffffffffffffff166101208173ffffffffffffffffffffffffffffffffffffffff16815250508173ffffffffffffffffffffffffffffffffffffffff166101408173ffffffffffffffffffffffffffffffffffffffff16815250508673ffffffffffffffffffffffffffffffffffffffff1663095ea7b3857fffffffffffffffffffffffffffffffffffffffffffffffffffffffffffffffff6040518363ffffffff1660e01b8152600401610313929190610af2565b6020604051808303815f875af115801561032f573d5f5f3e3d5ffd5b505050506040513d601f19601f820116820180604052508101906103539190610b4e565b508173ffffffffffffffffffffffffffffffffffffffff1663095ea7b3847fffffffffffffffffffffffffffffffffffffffffffffffffffffffffffffffff6040518363ffffffff1660e01b81526004016103af929190610af2565b6020604051808303815f875af11580156103cb573d5f5f3e3d5ffd5b505050506040513d601f19601f820116820180604052508101906103ef9190610b4e565b5050505050505050610c36565b5f5f5f5f8473ffffffffffffffffffffffffffffffffffffffff1660405160240160405160208183030381529060405263313ce56760e01b6020820180517bffffffffffffffffffffffffffffffffffffffffffffffffffffffff838183161783525050505060405161046f9190610bcb565b5f60405180830381855afa9150503d805f81146104a7576040519150601f19603f3d011682016040523d82523d5f602084013e6104ac565b606091505b50915091508180156104c057506020815110155b156104f7575f818060200190518101906104da9190610c0b565b905060ff801681116104f55760018194509450505050610500565b505b5f5f9350935050505b915091565b5f60065f9054906101000a900473ffffffffffffffffffffffffffffffffffffffff1690508160065f6101000a81548173ffffffffffffffffffffffffffffffffffffffff021916908373ffffffffffffffffffffffffffffffffffffffff1602179055508173ffffffffffffffffffffffffffffffffffffffff168173ffffffffffffffffffffffffffffffffffffffff167f8be0079c531659141344cd1fd0a4f28419497f9722a3daafe3b4186f6b6457e060405160405180910390a35050565b5f5ffd5b5f73ffffffffffffffffffffffffffffffffffffffff82169050919050565b5f6105f5826105cc565b9050919050565b5f610606826105eb565b9050919050565b610616816105fc565b8114610620575f5ffd5b50565b5f815190506106318161060d565b92915050565b5f610641826105eb565b9050919050565b61065181610637565b811461065b575f5ffd5b50565b5f8151905061066c81610648565b92915050565b5f61067c826105eb565b9050919050565b61068c81610672565b8114610696575f5ffd5b50565b5f815190506106a781610683565b92915050565b5f6106b7826105eb565b9050919050565b6106c7816106ad565b81146106d1575f5ffd5b50565b5f815190506106e2816106be565b92915050565b6106f1816105eb565b81146106fb575f5ffd5b50565b5f8151905061070c816106e8565b92915050565b5f5f5f5f5f5f5f60e0888a03121561072d5761072c6105c8565b5b5f61073a8a828b01610623565b975050602061074b8a828b0161065e565b965050604061075c8a828b01610699565b955050606061076d8a828b016106d4565b945050608061077e8a828b016106d4565b93505060a061078f8a828b01610623565b92505060c06107a08a828b016106fe565b91505092959891949750929550565b5f81519050919050565b7f4e487b71000000000000000000000000000000000000000000000000000000005f52604160045260245ffd5b7f4e487b71000000000000000000000000000000000000000000000000000000005f52602260045260245ffd5b5f600282049050600182168061082a57607f821691505b60208210810361083d5761083c6107e6565b5b50919050565b5f819050815f5260205f209050919050565b5f6020601f8301049050919050565b5f82821b905092915050565b5f6008830261089f7fffffffffffffffffffffffffffffffffffffffffffffffffffffffffffffffff82610864565b6108a98683610864565b95508019841693508086168417925050509392505050565b5f819050919050565b5f819050919050565b5f6108ed6108e86108e3846108c1565b6108ca565b6108c1565b9050919050565b5f819050919050565b610906836108d3565b61091a610912826108f4565b848454610870565b825550505050565b5f5f905090565b610931610922565b61093c8184846108fd565b505050565b5b8181101561095f576109545f82610929565b600181019050610942565b5050565b601f8211156109a45761097581610843565b61097e84610855565b8101602085101561098d578190505b6109a161099985610855565b830182610941565b50505b505050565b5f82821c905092915050565b5f6109c45f19846008026109a9565b1980831691505092915050565b5f6109dc83836109b5565b9150826002028217905092915050565b6109f5826107af565b67ffffffffffffffff811115610a0e57610a0d6107b9565b5b610a188254610813565b610a23828285610963565b5f60209050601f831160018114610a54575f8415610a42578287015190505b610a4c85826109d1565b865550610ab3565b601f198416610a6286610843565b5f5b82811015610a8957848901518255600182019150602085019450602081019050610a64565b86831015610aa65784890151610aa2601f8916826109b5565b8355505b6001600288020188555050505b505050505050565b610ac4816105eb565b82525050565b5f602082019050610add5f830184610abb565b92915050565b610aec816108c1565b82525050565b5f604082019050610b055f830185610abb565b610b126020830184610ae3565b9392505050565b5f8115159050919050565b610b2d81610b19565b8114610b37575f5ffd5b50565b5f81519050610b4881610b24565b92915050565b5f60208284031215610b6357610b626105c8565b5b5f610b7084828501610b3a565b91505092915050565b5f81519050919050565b5f81905092915050565b8281835e5f83830152505050565b5f610ba582610b79565b610baf8185610b83565b9350610bbf818560208601610b8d565b80840191505092915050565b5f610bd68284610b9b565b915081905092915050565b610bea816108c1565b8114610bf4575f5ffd5b50565b5f81519050610c0581610be1565b92915050565b5f60208284031215610c2057610c1f6105c8565b5b5f610c2d84828501610bf7565b91505092915050565b60805160a05160c05160e051610100516101205161014051617f35610f205f395f8181610c2701528181610f45015281816119950152818161269001528181612a9a015281816134cc01528181613ae2015281816144e201528181614ffe01526152a101525f8181610cdf0152818161122f015281816112e80152818161139a0152818161140801528181611ad80152818161272a01528181612bb301528181612c6c01528181612d1e01528181612d8c01528181612f64015281816133d8015281816135a901528181613bbf01528181613ec101528181613f7a0152818161402c015281816140e0015281816141990152818161424b0152818161457d0152818161462e0152818161470101528181615089015281816150ad015281816151c3015261533f01525f8181610b6f01528181611019015281816110d201528181611184015281816114a7015281816118530152818161227d01528181612336015281816123e801528181612456015281816125f6015281816128ba015281816130e00152818161329801528181613a3b01528181613ca201528181613d5b01528181613e0d015281816142ff015281816143b80152818161446a01528181614830015281816148e1015281816149b401528181614e5601528181614e7a0152614f5401525f8181610e6f01528181610fdc0152818161109501528181611147015281816111f2015281816112ab0152818161135d01528181612240015281816122f9015281816123ab01528181612b7601528181612c2f01528181612ce101528181613c6501528181613d1e01528181613dd001528181613e8401528181613f3d01528181613fef015281816140a30152818161415c0152818161420e015281816142c20152818161437b0152818161442d01528181614e1a0152818161504d015261518701525f818161177301528181612f88015281816136e1015281816138b2015261546101525f610eee01525f8181610f1f015281816159ac0152615f100152617f355ff3fe608060405234801561000f575f5ffd5b506004361061030a575f3560e01c8063715018a61161019b578063c63d75b6116100e7578063ec900795116100a0578063f442c17d1161007a578063f442c17d14610a19578063f75b102d14610a35578063f78ed1db14610a3f578063fa6e63a714610a6f5761030a565b8063ec900795146109b1578063ef8b30f7146109cd578063f2fde38b146109fd5761030a565b8063c63d75b6146108a2578063c6e6f592146108d2578063ce96cb7714610902578063d905777e14610932578063dd62ed3e14610962578063ea02f72c146109925761030a565b806396c89de511610154578063b460af941161012e578063b460af9414610806578063ba08765214610836578063be93981f14610866578063c45a0155146108845761030a565b806396c89de51461079c578063a9059cbb146107a6578063b3d7f6b9146107d65761030a565b8063715018a6146106fb57806380275860146107055780638c24ff32146107265780638da5cb5b1461073057806394bf804d1461074e57806395d89b411461077e5761030a565b80633fc8cef31161025a5780635050077411610213578063631a20ba116101ed578063631a20ba14610661578063692b69ae1461067d5780636e553f651461069b57806370a08231146106cb5761030a565b806350500774146105e35780635659df08146106145780635c572e3e146106455761030a565b80633fc8cef314610502578063402d267d1461052057806341fd74781461055057806345c397eb1461056c5780634cdad5061461058a57806350392716146105ba5761030a565b80630fb411e8116102c75780632f7801f4116102a15780632f7801f41461047857806330996b97146104a8578063313ce567146104c657806338d52e0f146104e45761030a565b80630fb411e81461040c57806318160ddd1461042a57806323b872dd146104485761030a565b806301e1d1141461030e57806306a925121461032c57806306fdde031461035e57806307a2d13a1461037c578063095ea7b3146103ac5780630a28a477146103dc575b5f5ffd5b610316610a8b565b60405161032391906162a9565b60405180910390f35b6103466004803603810190610341919061632d565b610b10565b60405161035593929190616358565b60405180910390f35b610366610d96565b60405161037391906163fd565b60405180910390f35b61039660048036038101906103919190616447565b610e26565b6040516103a391906162a9565b60405180910390f35b6103c660048036038101906103c19190616472565b610e38565b6040516103d391906164ca565b60405180910390f35b6103f660048036038101906103f19190616447565b610e5a565b60405161040391906162a9565b60405180910390f35b610414610e6d565b604051610421919061653e565b60405180910390f35b610432610e91565b60405161043f91906162a9565b60405180910390f35b610462600480360381019061045d9190616557565b610e9a565b60405161046f91906164ca565b60405180910390f35b610492600480360381019061048d919061632d565b610ec8565b60405161049f91906162a9565b60405180910390f35b6104b0610edd565b6040516104bd91906165bf565b60405180910390f35b6104ce610ee3565b6040516104db91906165f3565b60405180910390f35b6104ec610f1c565b6040516104f9919061661b565b60405180910390f35b61050a610f43565b6040516105179190616654565b60405180910390f35b61053a6004803603810190610535919061632d565b610f67565b60405161054791906162a9565b60405180910390f35b61056a60048036038101906105659190616447565b610f90565b005b6105746114a5565b604051610581919061668d565b60405180910390f35b6105a4600480360381019061059f9190616447565b6114c9565b6040516105b191906162a9565b60405180910390f35b6105c26114db565b6040516105da9c9b9a999897969594939291906166ce565b60405180910390f35b6105fd60048036038101906105f891906167e7565b6115d7565b60405161060b92919061687d565b60405180910390f35b61062e6004803603810190610629919061632d565b6120c8565b60405161063c9291906168a4565b60405180910390f35b61065f600480360381019061065a9190616936565b61212d565b005b61067b60048036038101906106769190616447565b6121f4565b005b6106856124f3565b604051610692919061661b565b60405180910390f35b6106b560048036038101906106b09190616989565b612518565b6040516106c291906162a9565b60405180910390f35b6106e560048036038101906106e0919061632d565b612598565b6040516106f291906162a9565b60405180910390f35b6107036125dd565b005b61070d6125f0565b60405161071d94939291906169c7565b60405180910390f35b61072e6127ec565b005b610738612957565b604051610745919061661b565b60405180910390f35b61076860048036038101906107639190616989565b61297f565b60405161077591906162a9565b60405180910390f35b6107866129ff565b60405161079391906163fd565b60405180910390f35b6107a4612a8f565b005b6107c060048036038101906107bb9190616472565b612e29565b6040516107cd91906164ca565b60405180910390f35b6107f060048036038101906107eb9190616447565b612e4b565b6040516107fd91906162a9565b60405180910390f35b610820600480360381019061081b9190616a0a565b612e5e565b60405161082d91906162a9565b60405180910390f35b610850600480360381019061084b9190616a0a565b612ee0565b60405161085d91906162a9565b60405180910390f35b61086e612f62565b60405161087b919061668d565b60405180910390f35b61088c612f86565b6040516108999190616a7a565b60405180910390f35b6108bc60048036038101906108b7919061632d565b612faa565b6040516108c991906162a9565b60405180910390f35b6108ec60048036038101906108e79190616447565b612fd3565b6040516108f991906162a9565b60405180910390f35b61091c6004803603810190610917919061632d565b612fe5565b60405161092991906162a9565b60405180910390f35b61094c6004803603810190610947919061632d565b612fff565b60405161095991906162a9565b60405180910390f35b61097c60048036038101906109779190616a93565b613010565b60405161098991906162a9565b60405180910390f35b61099a613092565b6040516109a8929190616ad1565b60405180910390f35b6109cb60048036038101906109c69190616447565b6130d5565b005b6109e760048036038101906109e29190616447565b613337565b6040516109f491906162a9565b60405180910390f35b610a176004803603810190610a12919061632d565b613349565b005b610a336004803603810190610a2e9190616447565b6133cd565b005b610a3d613648565b005b610a596004803603810190610a54919061632d565b613800565b604051610a66919061661b565b60405180910390f35b610a896004803603810190610a849190616af8565b613854565b005b5f610a94610f1c565b73ffffffffffffffffffffffffffffffffffffffff166370a08231306040518263ffffffff1660e01b8152600401610acc919061661b565b602060405180830381865afa158015610ae7573d5f5f3e3d5ffd5b505050506040513d601f19601f82011682018060405250810190610b0b9190616bac565b905090565b5f5f5f5f610b1d85612598565b90505f610b28610e91565b90505f8103610b41575f5f5f9450945094505050610d8f565b5f81670de0b6b3a764000084610b579190616c04565b610b619190616c72565b9050670de0b6b3a7640000817f000000000000000000000000000000000000000000000000000000000000000073ffffffffffffffffffffffffffffffffffffffff166370a08231306040518263ffffffff1660e01b8152600401610bc6919061661b565b602060405180830381865afa158015610be1573d5f5f3e3d5ffd5b505050506040513d601f19601f82011682018060405250810190610c059190616bac565b610c0f9190616c04565b610c199190616c72565b9550670de0b6b3a7640000817f000000000000000000000000000000000000000000000000000000000000000073ffffffffffffffffffffffffffffffffffffffff166370a08231306040518263ffffffff1660e01b8152600401610c7e919061661b565b602060405180830381865afa158015610c99573d5f5f3e3d5ffd5b505050506040513d601f19601f82011682018060405250810190610cbd9190616bac565b610cc79190616c04565b610cd19190616c72565b9450670de0b6b3a7640000817f000000000000000000000000000000000000000000000000000000000000000073ffffffffffffffffffffffffffffffffffffffff1663d283e75f306040518263ffffffff1660e01b8152600401610d36919061661b565b602060405180830381865afa158015610d51573d5f5f3e3d5ffd5b505050506040513d601f19601f82011682018060405250810190610d759190616bac565b610d7f9190616c04565b610d899190616c72565b93505050505b9193909250565b606060038054610da590616ccf565b80601f0160208091040260200160405190810160405280929190818152602001828054610dd190616ccf565b8015610e1c5780601f10610df357610100808354040283529160200191610e1c565b820191905f5260205f20905b815481529060010190602001808311610dff57829003601f168201915b5050505050905090565b5f610e31825f614a8a565b9050919050565b5f5f610e42614ae2565b9050610e4f818585614ae9565b600191505092915050565b5f610e66826001614afb565b9050919050565b7f000000000000000000000000000000000000000000000000000000000000000081565b5f600254905090565b5f5f610ea4614ae2565b9050610eb1858285614b53565b610ebc858585614be6565b60019150509392505050565b6015602052805f5260405f205f915090505481565b60145481565b5f610eec614cd6565b7f0000000000000000000000000000000000000000000000000000000000000000610f179190616cff565b905090565b5f7f0000000000000000000000000000000000000000000000000000000000000000905090565b7f000000000000000000000000000000000000000000000000000000000000000081565b5f7fffffffffffffffffffffffffffffffffffffffffffffffffffffffffffffffff9050919050565b610f98614cdd565b5f8111610fda576040517f08c379a0000000000000000000000000000000000000000000000000000000008152600401610fd190616d7d565b60405180910390fd5b7f000000000000000000000000000000000000000000000000000000000000000073ffffffffffffffffffffffffffffffffffffffff16639e716d58307f00000000000000000000000000000000000000000000000000000000000000006040518363ffffffff1660e01b8152600401611055929190616d9b565b602060405180830381865afa92505050801561108f57506040513d601f19601f8201168201806040525081019061108c9190616dec565b60015b611140577f000000000000000000000000000000000000000000000000000000000000000073ffffffffffffffffffffffffffffffffffffffff1663d44fee5a307f00000000000000000000000000000000000000000000000000000000000000006040518363ffffffff1660e01b815260040161110e929190616d9b565b5f604051808303815f87803b158015611125575f5ffd5b505af1158015611137573d5f5f3e3d5ffd5b505050506111f0565b806111ee577f000000000000000000000000000000000000000000000000000000000000000073ffffffffffffffffffffffffffffffffffffffff1663d44fee5a307f00000000000000000000000000000000000000000000000000000000000000006040518363ffffffff1660e01b81526004016111c0929190616d9b565b5f604051808303815f87803b1580156111d7575f5ffd5b505af11580156111e9573d5f5f3e3d5ffd5b505050505b505b7f000000000000000000000000000000000000000000000000000000000000000073ffffffffffffffffffffffffffffffffffffffff166347cfdac4307f00000000000000000000000000000000000000000000000000000000000000006040518363ffffffff1660e01b815260040161126b929190616d9b565b602060405180830381865afa9250505080156112a557506040513d601f19601f820116820180604052508101906112a29190616dec565b60015b611356577f000000000000000000000000000000000000000000000000000000000000000073ffffffffffffffffffffffffffffffffffffffff1663c368516c307f00000000000000000000000000000000000000000000000000000000000000006040518363ffffffff1660e01b8152600401611324929190616d9b565b5f604051808303815f87803b15801561133b575f5ffd5b505af115801561134d573d5f5f3e3d5ffd5b50505050611406565b80611404577f000000000000000000000000000000000000000000000000000000000000000073ffffffffffffffffffffffffffffffffffffffff1663c368516c307f00000000000000000000000000000000000000000000000000000000000000006040518363ffffffff1660e01b81526004016113d6929190616d9b565b5f604051808303815f87803b1580156113ed575f5ffd5b505af11580156113ff573d5f5f3e3d5ffd5b505050505b505b7f000000000000000000000000000000000000000000000000000000000000000073ffffffffffffffffffffffffffffffffffffffff16634b3fd14882306040518363ffffffff1660e01b815260040161146192919061687d565b6020604051808303815f875af115801561147d573d5f5f3e3d5ffd5b505050506040513d601f19601f820116820180604052508101906114a19190616bac565b5050565b7f000000000000000000000000000000000000000000000000000000000000000081565b5f6114d4825f614a8a565b9050919050565b6008805f015f9054906101000a900473ffffffffffffffffffffffffffffffffffffffff1690806001015f9054906101000a900473ffffffffffffffffffffffffffffffffffffffff1690806002015f9054906101000a900473ffffffffffffffffffffffffffffffffffffffff1690806003015f9054906101000a90046dffffffffffffffffffffffffffff169080600301600e9054906101000a90046dffffffffffffffffffffffffffff169080600401549080600501549080600601549080600701549080600801549080600901549080600a015f9054906101000a900473ffffffffffffffffffffffffffffffffffffffff1690508c565b5f5f6115e1614d64565b82421115611624576040517f08c379a000000000000000000000000000000000000000000000000000000000815260040161161b90616e61565b60405180910390fd5b6003858590501461166a576040517f08c379a000000000000000000000000000000000000000000000000000000000815260040161166190616ec9565b60405180910390fd5b5f60155f8973ffffffffffffffffffffffffffffffffffffffff1673ffffffffffffffffffffffffffffffffffffffff1681526020019081526020015f2054905060ff8103611711575f6116bd88612598565b9050808a14806116cd5750808a10155b61170c576040517f08c379a000000000000000000000000000000000000000000000000000000000815260040161170390616f57565b60405180910390fd5b809950505b61171b8882614daa565b91505f73ffffffffffffffffffffffffffffffffffffffff1660075f9054906101000a900473ffffffffffffffffffffffffffffffffffffffff1673ffffffffffffffffffffffffffffffffffffffff161461182d577f000000000000000000000000000000000000000000000000000000000000000073ffffffffffffffffffffffffffffffffffffffff1663f75b102d6040518163ffffffff1660e01b81526004015f604051808303815f87803b1580156117d6575f5ffd5b505af11580156117e8573d5f5f3e3d5ffd5b505050505f60075f6101000a81548173ffffffffffffffffffffffffffffffffffffffff021916908373ffffffffffffffffffffffffffffffffffffffff1602179055505b5f670de0b6b3a764000061183f610e91565b670de0b6b3a76400006118518b612598565b7f000000000000000000000000000000000000000000000000000000000000000073ffffffffffffffffffffffffffffffffffffffff166370a08231306040518263ffffffff1660e01b81526004016118aa919061661b565b602060405180830381865afa1580156118c5573d5f5f3e3d5ffd5b505050506040513d601f19601f820116820180604052508101906118e99190616bac565b6118f39190616c04565b6118fd9190616c04565b6119079190616c72565b6119119190616c72565b905086865f81811061192657611925616f75565b5b9050602002013581101561196f576040517f08c379a000000000000000000000000000000000000000000000000000000000815260040161196690616fec565b60405180910390fd5b5f670de0b6b3a7640000611981610e91565b670de0b6b3a76400006119938c612598565b7f000000000000000000000000000000000000000000000000000000000000000073ffffffffffffffffffffffffffffffffffffffff166370a08231306040518263ffffffff1660e01b81526004016119ec919061661b565b602060405180830381865afa158015611a07573d5f5f3e3d5ffd5b505050506040513d601f19601f82011682018060405250810190611a2b9190616bac565b611a359190616c04565b611a3f9190616c04565b611a499190616c72565b611a539190616c72565b905087876001818110611a6957611a68616f75565b5b90506020020135811015611ab2576040517f08c379a0000000000000000000000000000000000000000000000000000000008152600401611aa990617054565b60405180910390fd5b5f670de0b6b3a7640000611ac4610e91565b670de0b6b3a7640000611ad68d612598565b7f000000000000000000000000000000000000000000000000000000000000000073ffffffffffffffffffffffffffffffffffffffff1663d283e75f306040518263ffffffff1660e01b8152600401611b2f919061661b565b602060405180830381865afa158015611b4a573d5f5f3e3d5ffd5b505050506040513d601f19601f82011682018060405250810190611b6e9190616bac565b611b789190616c04565b611b829190616c04565b611b8c9190616c72565b611b969190616c72565b905088886002818110611bac57611bab616f75565b5b90506020020135811115611bf5576040517f08c379a0000000000000000000000000000000000000000000000000000000008152600401611bec906170bc565b60405180910390fd5b611c0185848484614e10565b611c0a8c610e5a565b9550611c168a876153e0565b600184611c2391906170da565b60155f8d73ffffffffffffffffffffffffffffffffffffffff1673ffffffffffffffffffffffffffffffffffffffff1681526020019081526020015f20819055505f611c6d610e91565b118015611cca57505f73ffffffffffffffffffffffffffffffffffffffff1660086002015f9054906101000a900473ffffffffffffffffffffffffffffffffffffffff1673ffffffffffffffffffffffffffffffffffffffff1614155b15611f9157611f906008604051806101800160405290815f82015f9054906101000a900473ffffffffffffffffffffffffffffffffffffffff1673ffffffffffffffffffffffffffffffffffffffff1673ffffffffffffffffffffffffffffffffffffffff168152602001600182015f9054906101000a900473ffffffffffffffffffffffffffffffffffffffff1673ffffffffffffffffffffffffffffffffffffffff1673ffffffffffffffffffffffffffffffffffffffff168152602001600282015f9054906101000a900473ffffffffffffffffffffffffffffffffffffffff1673ffffffffffffffffffffffffffffffffffffffff1673ffffffffffffffffffffffffffffffffffffffff168152602001600382015f9054906101000a90046dffffffffffffffffffffffffffff166dffffffffffffffffffffffffffff166dffffffffffffffffffffffffffff16815260200160038201600e9054906101000a90046dffffffffffffffffffffffffffff166dffffffffffffffffffffffffffff166dffffffffffffffffffffffffffff168152602001600482015481526020016005820154815260200160068201548152602001600782015481526020016008820154815260200160098201548152602001600a82015f9054906101000a900473ffffffffffffffffffffffffffffffffffffffff1673ffffffffffffffffffffffffffffffffffffffff1673ffffffffffffffffffffffffffffffffffffffff168152505060136040518060400160405290815f82015f9054906101000a90046dffffffffffffffffffffffffffff166dffffffffffffffffffffffffffff166dffffffffffffffffffffffffffff1681526020015f8201600e9054906101000a90046dffffffffffffffffffffffffffff166dffffffffffffffffffffffffffff166dffffffffffffffffffffffffffff168152505060145461545f565b5b8a73ffffffffffffffffffffffffffffffffffffffff167f397f2b7c169cec61b33d4539e794ffe6b2be17a1f947d9630439a15ca568e81b8686604051611fd992919061710d565b60405180910390a28a73ffffffffffffffffffffffffffffffffffffffff167f1fd2e466982404121834498ff574c408f6bc78e2a56db572a408961b908d567e84848460405161202b93929190616358565b60405180910390a28973ffffffffffffffffffffffffffffffffffffffff168b73ffffffffffffffffffffffffffffffffffffffff163373ffffffffffffffffffffffffffffffffffffffff167ffbde797d201c681b91056529119e0b02407c7bb96a4a2c75c01fc9667232c8db8f8a6040516120a99291906168a4565b60405180910390a4505050506120bd6157ff565b965096945050505050565b5f5f60155f8473ffffffffffffffffffffffffffffffffffffffff1673ffffffffffffffffffffffffffffffffffffffff1681526020019081526020015f2054915060ff8210612118575f612126565b8160ff6121259190617134565b5b9050915091565b612135614cdd565b5f73ffffffffffffffffffffffffffffffffffffffff1660075f9054906101000a900473ffffffffffffffffffffffffffffffffffffffff1673ffffffffffffffffffffffffffffffffffffffff16146121c4576040517f08c379a00000000000000000000000000000000000000000000000000000000081526004016121bb906171b1565b60405180910390fd5b6121ef838036038101906121d89190617394565b838036038101906121e9919061740d565b8361545f565b505050565b6121fc614cdd565b5f811161223e576040517f08c379a000000000000000000000000000000000000000000000000000000000815260040161223590616d7d565b60405180910390fd5b7f000000000000000000000000000000000000000000000000000000000000000073ffffffffffffffffffffffffffffffffffffffff166347cfdac4307f00000000000000000000000000000000000000000000000000000000000000006040518363ffffffff1660e01b81526004016122b9929190616d9b565b602060405180830381865afa9250505080156122f357506040513d601f19601f820116820180604052508101906122f09190616dec565b60015b6123a4577f000000000000000000000000000000000000000000000000000000000000000073ffffffffffffffffffffffffffffffffffffffff1663c368516c307f00000000000000000000000000000000000000000000000000000000000000006040518363ffffffff1660e01b8152600401612372929190616d9b565b5f604051808303815f87803b158015612389575f5ffd5b505af115801561239b573d5f5f3e3d5ffd5b50505050612454565b80612452577f000000000000000000000000000000000000000000000000000000000000000073ffffffffffffffffffffffffffffffffffffffff1663c368516c307f00000000000000000000000000000000000000000000000000000000000000006040518363ffffffff1660e01b8152600401612424929190616d9b565b5f604051808303815f87803b15801561243b575f5ffd5b505af115801561244d573d5f5f3e3d5ffd5b505050505b505b7f000000000000000000000000000000000000000000000000000000000000000073ffffffffffffffffffffffffffffffffffffffff16634b3fd14882306040518363ffffffff1660e01b81526004016124af92919061687d565b6020604051808303815f875af11580156124cb573d5f5f3e3d5ffd5b505050506040513d601f19601f820116820180604052508101906124ef9190616bac565b5050565b60075f9054906101000a900473ffffffffffffffffffffffffffffffffffffffff1681565b5f5f61252383610f67565b90508084111561256e578284826040517f79012fb200000000000000000000000000000000000000000000000000000000815260040161256593929190617438565b60405180910390fd5b5f61257885613337565b905061258d612585614ae2565b858784615809565b809250505092915050565b5f5f5f8373ffffffffffffffffffffffffffffffffffffffff1673ffffffffffffffffffffffffffffffffffffffff1681526020019081526020015f20549050919050565b6125e5614cdd565b6125ee5f61589b565b565b5f5f5f5f7f000000000000000000000000000000000000000000000000000000000000000073ffffffffffffffffffffffffffffffffffffffff166370a08231306040518263ffffffff1660e01b815260040161264d919061661b565b602060405180830381865afa158015612668573d5f5f3e3d5ffd5b505050506040513d601f19601f8201168201806040525081019061268c9190616bac565b93507f000000000000000000000000000000000000000000000000000000000000000073ffffffffffffffffffffffffffffffffffffffff166370a08231306040518263ffffffff1660e01b81526004016126e7919061661b565b602060405180830381865afa158015612702573d5f5f3e3d5ffd5b505050506040513d601f19601f820116820180604052508101906127269190616bac565b92507f000000000000000000000000000000000000000000000000000000000000000073ffffffffffffffffffffffffffffffffffffffff1663d283e75f306040518263ffffffff1660e01b8152600401612781919061661b565b602060405180830381865afa15801561279c573d5f5f3e3d5ffd5b505050506040513d601f19601f820116820180604052508101906127c09190616bac565b915060075f9054906101000a900473ffffffffffffffffffffffffffffffffffffffff16905090919293565b6127f4614cdd565b5f6127fd610f1c565b73ffffffffffffffffffffffffffffffffffffffff166370a08231306040518263ffffffff1660e01b8152600401612835919061661b565b602060405180830381865afa158015612850573d5f5f3e3d5ffd5b505050506040513d601f19601f820116820180604052508101906128749190616bac565b90505f81116128b8576040517f08c379a00000000000000000000000000000000000000000000000000000000081526004016128af906174b7565b60405180910390fd5b7f000000000000000000000000000000000000000000000000000000000000000073ffffffffffffffffffffffffffffffffffffffff16636e553f6582306040518363ffffffff1660e01b815260040161291392919061687d565b6020604051808303815f875af115801561292f573d5f5f3e3d5ffd5b505050506040513d601f19601f820116820180604052508101906129539190616bac565b5050565b5f60065f9054906101000a900473ffffffffffffffffffffffffffffffffffffffff16905090565b5f5f61298a83612faa565b9050808411156129d5578284826040517f284ff6670000000000000000000000000000000000000000000000000000000081526004016129cc93929190617438565b60405180910390fd5b5f6129df85612e4b565b90506129f46129ec614ae2565b858388615809565b809250505092915050565b606060048054612a0e90616ccf565b80601f0160208091040260200160405190810160405280929190818152602001828054612a3a90616ccf565b8015612a855780601f10612a5c57610100808354040283529160200191612a85565b820191905f5260205f20905b815481529060010190602001808311612a6857829003601f168201915b5050505050905090565b612a97614cdd565b5f7f000000000000000000000000000000000000000000000000000000000000000073ffffffffffffffffffffffffffffffffffffffff166370a08231306040518263ffffffff1660e01b8152600401612af1919061661b565b602060405180830381865afa158015612b0c573d5f5f3e3d5ffd5b505050506040513d601f19601f82011682018060405250810190612b309190616bac565b90505f8111612b74576040517f08c379a0000000000000000000000000000000000000000000000000000000008152600401612b6b9061751f565b60405180910390fd5b7f000000000000000000000000000000000000000000000000000000000000000073ffffffffffffffffffffffffffffffffffffffff16639e716d58307f00000000000000000000000000000000000000000000000000000000000000006040518363ffffffff1660e01b8152600401612bef929190616d9b565b602060405180830381865afa925050508015612c2957506040513d601f19601f82011682018060405250810190612c269190616dec565b60015b612cda577f000000000000000000000000000000000000000000000000000000000000000073ffffffffffffffffffffffffffffffffffffffff1663d44fee5a307f00000000000000000000000000000000000000000000000000000000000000006040518363ffffffff1660e01b8152600401612ca8929190616d9b565b5f604051808303815f87803b158015612cbf575f5ffd5b505af1158015612cd1573d5f5f3e3d5ffd5b50505050612d8a565b80612d88577f000000000000000000000000000000000000000000000000000000000000000073ffffffffffffffffffffffffffffffffffffffff1663d44fee5a307f00000000000000000000000000000000000000000000000000000000000000006040518363ffffffff1660e01b8152600401612d5a929190616d9b565b5f604051808303815f87803b158015612d71575f5ffd5b505af1158015612d83573d5f5f3e3d5ffd5b505050505b505b7f000000000000000000000000000000000000000000000000000000000000000073ffffffffffffffffffffffffffffffffffffffff16636e553f6582306040518363ffffffff1660e01b8152600401612de592919061687d565b6020604051808303815f875af1158015612e01573d5f5f3e3d5ffd5b505050506040513d601f19601f82011682018060405250810190612e259190616bac565b5050565b5f5f612e33614ae2565b9050612e40818585614be6565b600191505092915050565b5f612e57826001614a8a565b9050919050565b5f5f612e6983612fe5565b905080851115612eb4578285826040517ffe9cceec000000000000000000000000000000000000000000000000000000008152600401612eab93929190617438565b60405180910390fd5b5f612ebe86610e5a565b9050612ed4612ecb614ae2565b8686898561595e565b80925050509392505050565b5f5f612eeb83612fff565b905080851115612f36578285826040517fb94abeec000000000000000000000000000000000000000000000000000000008152600401612f2d93929190617438565b60405180910390fd5b5f612f40866114c9565b9050612f56612f4d614ae2565b8686848a61595e565b80925050509392505050565b7f000000000000000000000000000000000000000000000000000000000000000081565b7f000000000000000000000000000000000000000000000000000000000000000081565b5f7fffffffffffffffffffffffffffffffffffffffffffffffffffffffffffffffff9050919050565b5f612fde825f614afb565b9050919050565b5f612ff8612ff283612598565b5f614a8a565b9050919050565b5f61300982612598565b9050919050565b5f60015f8473ffffffffffffffffffffffffffffffffffffffff1673ffffffffffffffffffffffffffffffffffffffff1681526020019081526020015f205f8373ffffffffffffffffffffffffffffffffffffffff1673ffffffffffffffffffffffffffffffffffffffff1681526020019081526020015f2054905092915050565b6013805f015f9054906101000a90046dffffffffffffffffffffffffffff1690805f01600e9054906101000a90046dffffffffffffffffffffffffffff16905082565b6130dd614cdd565b5f7f000000000000000000000000000000000000000000000000000000000000000073ffffffffffffffffffffffffffffffffffffffff1663d283e75f306040518263ffffffff1660e01b8152600401613137919061661b565b602060405180830381865afa158015613152573d5f5f3e3d5ffd5b505050506040513d601f19601f820116820180604052508101906131769190616bac565b90505f81116131ba576040517f08c379a00000000000000000000000000000000000000000000000000000000081526004016131b190617587565b60405180910390fd5b5f82036131c5578091505b808211156131d1578091505b5f6131da610f1c565b73ffffffffffffffffffffffffffffffffffffffff166370a08231306040518263ffffffff1660e01b8152600401613212919061661b565b602060405180830381865afa15801561322d573d5f5f3e3d5ffd5b505050506040513d601f19601f820116820180604052508101906132519190616bac565b905082811015613296576040517f08c379a000000000000000000000000000000000000000000000000000000000815260040161328d90617615565b60405180910390fd5b7f000000000000000000000000000000000000000000000000000000000000000073ffffffffffffffffffffffffffffffffffffffff1663acb7081584306040518363ffffffff1660e01b81526004016132f192919061687d565b6020604051808303815f875af115801561330d573d5f5f3e3d5ffd5b505050506040513d601f19601f820116820180604052508101906133319190616bac565b50505050565b5f613342825f614afb565b9050919050565b613351614cdd565b5f73ffffffffffffffffffffffffffffffffffffffff168173ffffffffffffffffffffffffffffffffffffffff16036133c1575f6040517f1e4fbdf70000000000000000000000000000000000000000000000000000000081526004016133b8919061661b565b60405180910390fd5b6133ca8161589b565b50565b6133d5614cdd565b5f7f000000000000000000000000000000000000000000000000000000000000000073ffffffffffffffffffffffffffffffffffffffff1663d283e75f306040518263ffffffff1660e01b815260040161342f919061661b565b602060405180830381865afa15801561344a573d5f5f3e3d5ffd5b505050506040513d601f19601f8201168201806040525081019061346e9190616bac565b90505f81116134b2576040517f08c379a00000000000000000000000000000000000000000000000000000000081526004016134a99061767d565b60405180910390fd5b5f82036134bd578091505b808211156134c9578091505b5f7f000000000000000000000000000000000000000000000000000000000000000073ffffffffffffffffffffffffffffffffffffffff166370a08231306040518263ffffffff1660e01b8152600401613523919061661b565b602060405180830381865afa15801561353e573d5f5f3e3d5ffd5b505050506040513d601f19601f820116820180604052508101906135629190616bac565b9050828110156135a7576040517f08c379a000000000000000000000000000000000000000000000000000000000815260040161359e9061770b565b60405180910390fd5b7f000000000000000000000000000000000000000000000000000000000000000073ffffffffffffffffffffffffffffffffffffffff1663acb7081584306040518363ffffffff1660e01b815260040161360292919061687d565b6020604051808303815f875af115801561361e573d5f5f3e3d5ffd5b505050506040513d601f19601f820116820180604052508101906136429190616bac565b50505050565b613650614cdd565b5f73ffffffffffffffffffffffffffffffffffffffff1660075f9054906101000a900473ffffffffffffffffffffffffffffffffffffffff1673ffffffffffffffffffffffffffffffffffffffff16036136df576040517f08c379a00000000000000000000000000000000000000000000000000000000081526004016136d690617773565b60405180910390fd5b7f000000000000000000000000000000000000000000000000000000000000000073ffffffffffffffffffffffffffffffffffffffff1663f75b102d6040518163ffffffff1660e01b81526004015f604051808303815f87803b158015613744575f5ffd5b505af1158015613756573d5f5f3e3d5ffd5b505050505f60075f6101000a81548173ffffffffffffffffffffffffffffffffffffffff021916908373ffffffffffffffffffffffffffffffffffffffff16021790555060075f9054906101000a900473ffffffffffffffffffffffffffffffffffffffff1673ffffffffffffffffffffffffffffffffffffffff167f6d31a3b2839cdbd2b9efc1cc21dd13c940b1a7834627243e24ac9fae72f5106760405160405180910390a2565b5f5f60155f8473ffffffffffffffffffffffffffffffffffffffff1673ffffffffffffffffffffffffffffffffffffffff1681526020019081526020015f2054905061384c8382614daa565b915050919050565b61385c614cdd565b5f73ffffffffffffffffffffffffffffffffffffffff1660075f9054906101000a900473ffffffffffffffffffffffffffffffffffffffff1673ffffffffffffffffffffffffffffffffffffffff161461396c577f000000000000000000000000000000000000000000000000000000000000000073ffffffffffffffffffffffffffffffffffffffff1663f75b102d6040518163ffffffff1660e01b81526004015f604051808303815f87803b158015613915575f5ffd5b505af1158015613927573d5f5f3e3d5ffd5b505050505f60075f6101000a81548173ffffffffffffffffffffffffffffffffffffffff021916908373ffffffffffffffffffffffffffffffffffffffff1602179055505b5f871115613ad7575f61397d610f1c565b73ffffffffffffffffffffffffffffffffffffffff166370a08231306040518263ffffffff1660e01b81526004016139b5919061661b565b602060405180830381865afa1580156139d0573d5f5f3e3d5ffd5b505050506040513d601f19601f820116820180604052508101906139f49190616bac565b905087811015613a39576040517f08c379a0000000000000000000000000000000000000000000000000000000008152600401613a30906177db565b60405180910390fd5b7f000000000000000000000000000000000000000000000000000000000000000073ffffffffffffffffffffffffffffffffffffffff16636e553f6589306040518363ffffffff1660e01b8152600401613a9492919061687d565b6020604051808303815f875af1158015613ab0573d5f5f3e3d5ffd5b505050506040513d601f19601f82011682018060405250810190613ad49190616bac565b50505b5f851115613c5b575f7f000000000000000000000000000000000000000000000000000000000000000073ffffffffffffffffffffffffffffffffffffffff166370a08231306040518263ffffffff1660e01b8152600401613b39919061661b565b602060405180830381865afa158015613b54573d5f5f3e3d5ffd5b505050506040513d601f19601f82011682018060405250810190613b789190616bac565b905085811015613bbd576040517f08c379a0000000000000000000000000000000000000000000000000000000008152600401613bb490617843565b60405180910390fd5b7f000000000000000000000000000000000000000000000000000000000000000073ffffffffffffffffffffffffffffffffffffffff16636e553f6587306040518363ffffffff1660e01b8152600401613c1892919061687d565b6020604051808303815f875af1158015613c34573d5f5f3e3d5ffd5b505050506040513d601f19601f82011682018060405250810190613c589190616bac565b50505b5f871115613e7a577f000000000000000000000000000000000000000000000000000000000000000073ffffffffffffffffffffffffffffffffffffffff16639e716d58307f00000000000000000000000000000000000000000000000000000000000000006040518363ffffffff1660e01b8152600401613cde929190616d9b565b602060405180830381865afa925050508015613d1857506040513d601f19601f82011682018060405250810190613d159190616dec565b60015b613dc9577f000000000000000000000000000000000000000000000000000000000000000073ffffffffffffffffffffffffffffffffffffffff1663d44fee5a307f00000000000000000000000000000000000000000000000000000000000000006040518363ffffffff1660e01b8152600401613d97929190616d9b565b5f604051808303815f87803b158015613dae575f5ffd5b505af1158015613dc0573d5f5f3e3d5ffd5b50505050613e79565b80613e77577f000000000000000000000000000000000000000000000000000000000000000073ffffffffffffffffffffffffffffffffffffffff1663d44fee5a307f00000000000000000000000000000000000000000000000000000000000000006040518363ffffffff1660e01b8152600401613e49929190616d9b565b5f604051808303815f87803b158015613e60575f5ffd5b505af1158015613e72573d5f5f3e3d5ffd5b505050505b505b5b5f851115614099577f000000000000000000000000000000000000000000000000000000000000000073ffffffffffffffffffffffffffffffffffffffff16639e716d58307f00000000000000000000000000000000000000000000000000000000000000006040518363ffffffff1660e01b8152600401613efd929190616d9b565b602060405180830381865afa925050508015613f3757506040513d601f19601f82011682018060405250810190613f349190616dec565b60015b613fe8577f000000000000000000000000000000000000000000000000000000000000000073ffffffffffffffffffffffffffffffffffffffff1663d44fee5a307f00000000000000000000000000000000000000000000000000000000000000006040518363ffffffff1660e01b8152600401613fb6929190616d9b565b5f604051808303815f87803b158015613fcd575f5ffd5b505af1158015613fdf573d5f5f3e3d5ffd5b50505050614098565b80614096577f000000000000000000000000000000000000000000000000000000000000000073ffffffffffffffffffffffffffffffffffffffff1663d44fee5a307f00000000000000000000000000000000000000000000000000000000000000006040518363ffffffff1660e01b8152600401614068929190616d9b565b5f604051808303815f87803b15801561407f575f5ffd5b505af1158015614091573d5f5f3e3d5ffd5b505050505b505b5b5f8611156142b8577f000000000000000000000000000000000000000000000000000000000000000073ffffffffffffffffffffffffffffffffffffffff166347cfdac4307f00000000000000000000000000000000000000000000000000000000000000006040518363ffffffff1660e01b815260040161411c929190616d9b565b602060405180830381865afa92505050801561415657506040513d601f19601f820116820180604052508101906141539190616dec565b60015b614207577f000000000000000000000000000000000000000000000000000000000000000073ffffffffffffffffffffffffffffffffffffffff1663c368516c307f00000000000000000000000000000000000000000000000000000000000000006040518363ffffffff1660e01b81526004016141d5929190616d9b565b5f604051808303815f87803b1580156141ec575f5ffd5b505af11580156141fe573d5f5f3e3d5ffd5b505050506142b7565b806142b5577f000000000000000000000000000000000000000000000000000000000000000073ffffffffffffffffffffffffffffffffffffffff1663c368516c307f00000000000000000000000000000000000000000000000000000000000000006040518363ffffffff1660e01b8152600401614287929190616d9b565b5f604051808303815f87803b15801561429e575f5ffd5b505af11580156142b0573d5f5f3e3d5ffd5b505050505b505b5b5f8411156144d7577f000000000000000000000000000000000000000000000000000000000000000073ffffffffffffffffffffffffffffffffffffffff166347cfdac4307f00000000000000000000000000000000000000000000000000000000000000006040518363ffffffff1660e01b815260040161433b929190616d9b565b602060405180830381865afa92505050801561437557506040513d601f19601f820116820180604052508101906143729190616dec565b60015b614426577f000000000000000000000000000000000000000000000000000000000000000073ffffffffffffffffffffffffffffffffffffffff1663c368516c307f00000000000000000000000000000000000000000000000000000000000000006040518363ffffffff1660e01b81526004016143f4929190616d9b565b5f604051808303815f87803b15801561440b575f5ffd5b505af115801561441d573d5f5f3e3d5ffd5b505050506144d6565b806144d4577f000000000000000000000000000000000000000000000000000000000000000073ffffffffffffffffffffffffffffffffffffffff1663c368516c307f00000000000000000000000000000000000000000000000000000000000000006040518363ffffffff1660e01b81526004016144a6929190616d9b565b5f604051808303815f87803b1580156144bd575f5ffd5b505af11580156144cf573d5f5f3e3d5ffd5b505050505b505b5b5f8611156147a3575f7f000000000000000000000000000000000000000000000000000000000000000073ffffffffffffffffffffffffffffffffffffffff166370a08231306040518263ffffffff1660e01b8152600401614539919061661b565b602060405180830381865afa158015614554573d5f5f3e3d5ffd5b505050506040513d601f19601f820116820180604052508101906145789190616bac565b90505f7f000000000000000000000000000000000000000000000000000000000000000073ffffffffffffffffffffffffffffffffffffffff1663d283e75f306040518263ffffffff1660e01b81526004016145d4919061661b565b602060405180830381865afa1580156145ef573d5f5f3e3d5ffd5b505050506040513d601f19601f820116820180604052508101906146139190616bac565b9050818811156146ce575f828961462a9190617134565b90507f000000000000000000000000000000000000000000000000000000000000000073ffffffffffffffffffffffffffffffffffffffff16634b3fd14882306040518363ffffffff1660e01b815260040161468792919061687d565b6020604051808303815f875af11580156146a3573d5f5f3e3d5ffd5b505050506040513d601f19601f820116820180604052508101906146c79190616bac565b50506147a0565b8782111561479f575f88836146e39190617134565b90505f82111561479d575f8183106146fb57816146fd565b825b90507f000000000000000000000000000000000000000000000000000000000000000073ffffffffffffffffffffffffffffffffffffffff1663acb7081582306040518363ffffffff1660e01b815260040161475a92919061687d565b6020604051808303815f875af1158015614776573d5f5f3e3d5ffd5b505050506040513d601f19601f8201168201806040525081019061479a9190616bac565b50505b505b5b50505b5f841115614a56575f6147b4610f1c565b73ffffffffffffffffffffffffffffffffffffffff166370a08231306040518263ffffffff1660e01b81526004016147ec919061661b565b602060405180830381865afa158015614807573d5f5f3e3d5ffd5b505050506040513d601f19601f8201168201806040525081019061482b9190616bac565b90505f7f000000000000000000000000000000000000000000000000000000000000000073ffffffffffffffffffffffffffffffffffffffff1663d283e75f306040518263ffffffff1660e01b8152600401614887919061661b565b602060405180830381865afa1580156148a2573d5f5f3e3d5ffd5b505050506040513d601f19601f820116820180604052508101906148c69190616bac565b905081861115614981575f82876148dd9190617134565b90507f000000000000000000000000000000000000000000000000000000000000000073ffffffffffffffffffffffffffffffffffffffff16634b3fd14882306040518363ffffffff1660e01b815260040161493a92919061687d565b6020604051808303815f875af1158015614956573d5f5f3e3d5ffd5b505050506040513d601f19601f8201168201806040525081019061497a9190616bac565b5050614a53565b85821115614a52575f86836149969190617134565b90505f821115614a50575f8183106149ae57816149b0565b825b90507f000000000000000000000000000000000000000000000000000000000000000073ffffffffffffffffffffffffffffffffffffffff1663acb7081582306040518363ffffffff1660e01b8152600401614a0d92919061687d565b6020604051808303815f875af1158015614a29573d5f5f3e3d5ffd5b505050506040513d601f19601f82011682018060405250810190614a4d9190616bac565b50505b505b5b50505b614a8183803603810190614a6a9190617394565b83803603810190614a7b919061740d565b8361545f565b50505050505050565b5f614ada6001614a98610a8b565b614aa291906170da565b614aaa614cd6565b600a614ab69190617990565b614abe610e91565b614ac891906170da565b8486615a57909392919063ffffffff16565b905092915050565b5f33905090565b614af68383836001615aa4565b505050565b5f614b4b614b07614cd6565b600a614b139190617990565b614b1b610e91565b614b2591906170da565b6001614b2f610a8b565b614b3991906170da565b8486615a57909392919063ffffffff16565b905092915050565b5f614b5e8484613010565b90507fffffffffffffffffffffffffffffffffffffffffffffffffffffffffffffffff811015614be05781811015614bd1578281836040517ffb8f41b2000000000000000000000000000000000000000000000000000000008152600401614bc893929190617438565b60405180910390fd5b614bdf84848484035f615aa4565b5b50505050565b5f73ffffffffffffffffffffffffffffffffffffffff168373ffffffffffffffffffffffffffffffffffffffff1603614c56575f6040517f96c6fd1e000000000000000000000000000000000000000000000000000000008152600401614c4d919061661b565b60405180910390fd5b5f73ffffffffffffffffffffffffffffffffffffffff168273ffffffffffffffffffffffffffffffffffffffff1603614cc6575f6040517fec442f05000000000000000000000000000000000000000000000000000000008152600401614cbd919061661b565b60405180910390fd5b614cd1838383615c73565b505050565b5f5f905090565b614ce5614ae2565b73ffffffffffffffffffffffffffffffffffffffff16614d03612957565b73ffffffffffffffffffffffffffffffffffffffff1614614d6257614d26614ae2565b6040517f118cdaa7000000000000000000000000000000000000000000000000000000008152600401614d59919061661b565b60405180910390fd5b565b600260055403614da0576040517f3ee5aeb500000000000000000000000000000000000000000000000000000000815260040160405180910390fd5b6002600581905550565b5f6101008210614def576040517f08c379a0000000000000000000000000000000000000000000000000000000008152600401614de690617a24565b60405180910390fd5b8173ffffffffffffffffffffffffffffffffffffff00841617905092915050565b5f831115614fef577f000000000000000000000000000000000000000000000000000000000000000073ffffffffffffffffffffffffffffffffffffffff16631f8b52157f0000000000000000000000000000000000000000000000000000000000000000865f887f0000000000000000000000000000000000000000000000000000000000000000604051602401614eaa929190616d9b565b60405160208183030381529060405263d44fee5a60e01b6020820180517bffffffffffffffffffffffffffffffffffffffffffffffffffffffff83818316178352505050506040518563ffffffff1660e01b8152600401614f0e9493929190617acd565b5f604051808303815f875af1158015614f29573d5f5f3e3d5ffd5b505050506040513d5f823e3d601f19601f82011682018060405250810190614f519190617bb9565b507f000000000000000000000000000000000000000000000000000000000000000073ffffffffffffffffffffffffffffffffffffffff1663a9059cbb85856040518363ffffffff1660e01b8152600401614fad92919061710d565b6020604051808303815f875af1158015614fc9573d5f5f3e3d5ffd5b505050506040513d601f19601f82011682018060405250810190614fed9190616dec565b505b5f8211156150435761504284837f000000000000000000000000000000000000000000000000000000000000000073ffffffffffffffffffffffffffffffffffffffff16615e8c9092919063ffffffff16565b5b5f8111156153da577f000000000000000000000000000000000000000000000000000000000000000073ffffffffffffffffffffffffffffffffffffffff16631f8b52157f0000000000000000000000000000000000000000000000000000000000000000865f887f00000000000000000000000000000000000000000000000000000000000000006040516024016150dd929190616d9b565b60405160208183030381529060405263c368516c60e01b6020820180517bffffffffffffffffffffffffffffffffffffffffffffffffffffffff83818316178352505050506040518563ffffffff1660e01b81526004016151419493929190617acd565b5f604051808303815f875af115801561515c573d5f5f3e3d5ffd5b505050506040513d5f823e3d601f19601f820116820180604052508101906151849190617bb9565b507f000000000000000000000000000000000000000000000000000000000000000073ffffffffffffffffffffffffffffffffffffffff16631f8b52157f0000000000000000000000000000000000000000000000000000000000000000865f85896040516024016151f792919061687d565b604051602081830303815290604052634b3fd14860e01b6020820180517bffffffffffffffffffffffffffffffffffffffffffffffffffffffff83818316178352505050506040518563ffffffff1660e01b815260040161525b9493929190617acd565b5f604051808303815f875af1158015615276573d5f5f3e3d5ffd5b505050506040513d5f823e3d601f19601f8201168201806040525081019061529e9190617bb9565b507f000000000000000000000000000000000000000000000000000000000000000073ffffffffffffffffffffffffffffffffffffffff166323b872dd8530846040518463ffffffff1660e01b81526004016152fc93929190617c00565b6020604051808303815f875af1158015615318573d5f5f3e3d5ffd5b505050506040513d601f19601f8201168201806040525081019061533c9190616dec565b507f000000000000000000000000000000000000000000000000000000000000000073ffffffffffffffffffffffffffffffffffffffff1663acb7081582306040518363ffffffff1660e01b815260040161539892919061687d565b6020604051808303815f875af11580156153b4573d5f5f3e3d5ffd5b505050506040513d601f19601f820116820180604052508101906153d89190616bac565b505b50505050565b5f73ffffffffffffffffffffffffffffffffffffffff168273ffffffffffffffffffffffffffffffffffffffff1603615450575f6040517f96c6fd1e000000000000000000000000000000000000000000000000000000008152600401615447919061661b565b60405180910390fd5b61545b825f83615c73565b5050565b7f000000000000000000000000000000000000000000000000000000000000000073ffffffffffffffffffffffffffffffffffffffff1663729b25798484846040518463ffffffff1660e01b81526004016154bc93929190617d83565b6020604051808303815f875af11580156154d8573d5f5f3e3d5ffd5b505050506040513d601f19601f820116820180604052508101906154fc9190617dcf565b60075f6101000a81548173ffffffffffffffffffffffffffffffffffffffff021916908373ffffffffffffffffffffffffffffffffffffffff1602179055508260085f820151815f015f6101000a81548173ffffffffffffffffffffffffffffffffffffffff021916908373ffffffffffffffffffffffffffffffffffffffff1602179055506020820151816001015f6101000a81548173ffffffffffffffffffffffffffffffffffffffff021916908373ffffffffffffffffffffffffffffffffffffffff1602179055506040820151816002015f6101000a81548173ffffffffffffffffffffffffffffffffffffffff021916908373ffffffffffffffffffffffffffffffffffffffff1602179055506060820151816003015f6101000a8154816dffffffffffffffffffffffffffff02191690836dffffffffffffffffffffffffffff160217905550608082015181600301600e6101000a8154816dffffffffffffffffffffffffffff02191690836dffffffffffffffffffffffffffff16021790555060a0820151816004015560c0820151816005015560e0820151816006015561010082015181600701556101208201518160080155610140820151816009015561016082015181600a015f6101000a81548173ffffffffffffffffffffffffffffffffffffffff021916908373ffffffffffffffffffffffffffffffffffffffff1602179055509050508160135f820151815f015f6101000a8154816dffffffffffffffffffffffffffff02191690836dffffffffffffffffffffffffffff1602179055506020820151815f01600e6101000a8154816dffffffffffffffffffffffffffff02191690836dffffffffffffffffffffffffffff1602179055509050508060148190555060075f9054906101000a900473ffffffffffffffffffffffffffffffffffffffff1673ffffffffffffffffffffffffffffffffffffffff167f68244a6f78d032d260c7257f790325b8c3f03d57b49c7bfae942a9d003d3ba43846040516157f29190617dfa565b60405180910390a2505050565b6001600581905550565b60ff60155f8573ffffffffffffffffffffffffffffffffffffffff1673ffffffffffffffffffffffffffffffffffffffff1681526020019081526020015f205410615889576040517f08c379a000000000000000000000000000000000000000000000000000000000815260040161588090617e84565b60405180910390fd5b61589584848484615f0b565b50505050565b5f60065f9054906101000a900473ffffffffffffffffffffffffffffffffffffffff1690508160065f6101000a81548173ffffffffffffffffffffffffffffffffffffffff021916908373ffffffffffffffffffffffffffffffffffffffff1602179055508173ffffffffffffffffffffffffffffffffffffffff168173ffffffffffffffffffffffffffffffffffffffff167f8be0079c531659141344cd1fd0a4f28419497f9722a3daafe3b4186f6b6457e060405160405180910390a35050565b8273ffffffffffffffffffffffffffffffffffffffff168573ffffffffffffffffffffffffffffffffffffffff161461599d5761599c838683614b53565b5b6159a783826153e0565b6159d27f00000000000000000000000000000000000000000000000000000000000000008584615e8c565b8273ffffffffffffffffffffffffffffffffffffffff168473ffffffffffffffffffffffffffffffffffffffff168673ffffffffffffffffffffffffffffffffffffffff167ffbde797d201c681b91056529119e0b02407c7bb96a4a2c75c01fc9667232c8db8585604051615a489291906168a4565b60405180910390a45050505050565b5f615a85615a6483615fae565b8015615a8057505f8480615a7b57615a7a616c45565b5b868809115b615fdb565b615a90868686615fe6565b615a9a91906170da565b9050949350505050565b5f73ffffffffffffffffffffffffffffffffffffffff168473ffffffffffffffffffffffffffffffffffffffff1603615b14575f6040517fe602df05000000000000000000000000000000000000000000000000000000008152600401615b0b919061661b565b60405180910390fd5b5f73ffffffffffffffffffffffffffffffffffffffff168373ffffffffffffffffffffffffffffffffffffffff1603615b84575f6040517f94280d62000000000000000000000000000000000000000000000000000000008152600401615b7b919061661b565b60405180910390fd5b8160015f8673ffffffffffffffffffffffffffffffffffffffff1673ffffffffffffffffffffffffffffffffffffffff1681526020019081526020015f205f8573ffffffffffffffffffffffffffffffffffffffff1673ffffffffffffffffffffffffffffffffffffffff1681526020019081526020015f20819055508015615c6d578273ffffffffffffffffffffffffffffffffffffffff168473ffffffffffffffffffffffffffffffffffffffff167f8c5be1e5ebec7d5bd14f71427d1e84f3dd0314c0f7b2291e5b200ac8c7c3b92584604051615c6491906162a9565b60405180910390a35b50505050565b5f73ffffffffffffffffffffffffffffffffffffffff168373ffffffffffffffffffffffffffffffffffffffff1603615cc3578060025f828254615cb791906170da565b92505081905550615d91565b5f5f5f8573ffffffffffffffffffffffffffffffffffffffff1673ffffffffffffffffffffffffffffffffffffffff1681526020019081526020015f2054905081811015615d4c578381836040517fe450d38c000000000000000000000000000000000000000000000000000000008152600401615d4393929190617438565b60405180910390fd5b8181035f5f8673ffffffffffffffffffffffffffffffffffffffff1673ffffffffffffffffffffffffffffffffffffffff1681526020019081526020015f2081905550505b5f73ffffffffffffffffffffffffffffffffffffffff168273ffffffffffffffffffffffffffffffffffffffff1603615dd8578060025f8282540392505081905550615e22565b805f5f8473ffffffffffffffffffffffffffffffffffffffff1673ffffffffffffffffffffffffffffffffffffffff1681526020019081526020015f205f82825401925050819055505b8173ffffffffffffffffffffffffffffffffffffffff168373ffffffffffffffffffffffffffffffffffffffff167fddf252ad1be2c89b69c2b068fc378daa952ba7f163c4a11628f55a4df523b3ef83604051615e7f91906162a9565b60405180910390a3505050565b615f06838473ffffffffffffffffffffffffffffffffffffffff1663a9059cbb8585604051602401615ebf92919061710d565b604051602081830303815290604052915060e01b6020820180517bffffffffffffffffffffffffffffffffffffffffffffffffffffffff83818316178352505050506160cb565b505050565b615f377f0000000000000000000000000000000000000000000000000000000000000000853085616166565b615f4183826161e8565b8273ffffffffffffffffffffffffffffffffffffffff168473ffffffffffffffffffffffffffffffffffffffff167fdcbc1c05240f31ff3ad067ef1ee35ce4997762752e3a095284754544f4c709d78484604051615fa09291906168a4565b60405180910390a350505050565b5f60016002836003811115615fc657615fc5617ea2565b5b615fd09190617ecf565b60ff16149050919050565b5f8115159050919050565b5f5f83850290505f5f19858709828110838203039150505f810361601e5783828161601457616013616c45565b5b04925050506160c4565b80841161603d5761603c6160375f861460126011616267565b616280565b5b5f8486880990508281118203915080830392505f855f038616905080860495508084049350600181825f0304019050808302841793505f600287600302189050808702600203810290508087026002038102905080870260020381029050808702600203810290508087026002038102905080870260020381029050808502955050505050505b9392505050565b5f5f60205f8451602086015f885af1806160ea576040513d5f823e3d81fd5b3d92505f519150505f821461610357600181141561611e565b5f8473ffffffffffffffffffffffffffffffffffffffff163b145b1561616057836040517f5274afe7000000000000000000000000000000000000000000000000000000008152600401616157919061661b565b60405180910390fd5b50505050565b6161e2848573ffffffffffffffffffffffffffffffffffffffff166323b872dd86868660405160240161619b93929190617c00565b604051602081830303815290604052915060e01b6020820180517bffffffffffffffffffffffffffffffffffffffffffffffffffffffff83818316178352505050506160cb565b50505050565b5f73ffffffffffffffffffffffffffffffffffffffff168273ffffffffffffffffffffffffffffffffffffffff1603616258575f6040517fec442f0500000000000000000000000000000000000000000000000000000000815260040161624f919061661b565b60405180910390fd5b6162635f8383615c73565b5050565b5f61627184615fdb565b82841802821890509392505050565b634e487b715f52806020526024601cfd5b5f819050919050565b6162a381616291565b82525050565b5f6020820190506162bc5f83018461629a565b92915050565b5f604051905090565b5f5ffd5b5f5ffd5b5f73ffffffffffffffffffffffffffffffffffffffff82169050919050565b5f6162fc826162d3565b9050919050565b61630c816162f2565b8114616316575f5ffd5b50565b5f8135905061632781616303565b92915050565b5f60208284031215616342576163416162cb565b5b5f61634f84828501616319565b91505092915050565b5f60608201905061636b5f83018661629a565b616378602083018561629a565b616385604083018461629a565b949350505050565b5f81519050919050565b5f82825260208201905092915050565b8281835e5f83830152505050565b5f601f19601f8301169050919050565b5f6163cf8261638d565b6163d98185616397565b93506163e98185602086016163a7565b6163f2816163b5565b840191505092915050565b5f6020820190508181035f83015261641581846163c5565b905092915050565b61642681616291565b8114616430575f5ffd5b50565b5f813590506164418161641d565b92915050565b5f6020828403121561645c5761645b6162cb565b5b5f61646984828501616433565b91505092915050565b5f5f60408385031215616488576164876162cb565b5b5f61649585828601616319565b92505060206164a685828601616433565b9150509250929050565b5f8115159050919050565b6164c4816164b0565b82525050565b5f6020820190506164dd5f8301846164bb565b92915050565b5f819050919050565b5f6165066165016164fc846162d3565b6164e3565b6162d3565b9050919050565b5f616517826164ec565b9050919050565b5f6165288261650d565b9050919050565b6165388161651e565b82525050565b5f6020820190506165515f83018461652f565b92915050565b5f5f5f6060848603121561656e5761656d6162cb565b5b5f61657b86828701616319565b935050602061658c86828701616319565b925050604061659d86828701616433565b9150509250925092565b5f819050919050565b6165b9816165a7565b82525050565b5f6020820190506165d25f8301846165b0565b92915050565b5f60ff82169050919050565b6165ed816165d8565b82525050565b5f6020820190506166065f8301846165e4565b92915050565b616615816162f2565b82525050565b5f60208201905061662e5f83018461660c565b92915050565b5f61663e8261650d565b9050919050565b61664e81616634565b82525050565b5f6020820190506166675f830184616645565b92915050565b5f6166778261650d565b9050919050565b6166878161666d565b82525050565b5f6020820190506166a05f83018461667e565b92915050565b5f6dffffffffffffffffffffffffffff82169050919050565b6166c8816166a6565b82525050565b5f610180820190506166e25f83018f61660c565b6166ef602083018e61660c565b6166fc604083018d61660c565b616709606083018c6166bf565b616716608083018b6166bf565b61672360a083018a61629a565b61673060c083018961629a565b61673d60e083018861629a565b61674b61010083018761629a565b61675961012083018661629a565b61676761014083018561629a565b61677561016083018461660c565b9d9c50505050505050505050505050565b5f5ffd5b5f5ffd5b5f5ffd5b5f5f83601f8401126167a7576167a6616786565b5b8235905067ffffffffffffffff8111156167c4576167c361678a565b5b6020830191508360208202830111156167e0576167df61678e565b5b9250929050565b5f5f5f5f5f5f60a08789031215616801576168006162cb565b5b5f61680e89828a01616433565b965050602061681f89828a01616319565b955050604061683089828a01616319565b945050606087013567ffffffffffffffff811115616851576168506162cf565b5b61685d89828a01616792565b9350935050608061687089828a01616433565b9150509295509295509295565b5f6040820190506168905f83018561629a565b61689d602083018461660c565b9392505050565b5f6040820190506168b75f83018561629a565b6168c4602083018461629a565b9392505050565b5f5ffd5b5f61018082840312156168e5576168e46168cb565b5b81905092915050565b5f60408284031215616903576169026168cb565b5b81905092915050565b616915816165a7565b811461691f575f5ffd5b50565b5f813590506169308161690c565b92915050565b5f5f5f6101e0848603121561694e5761694d6162cb565b5b5f61695b868287016168cf565b93505061018061696d868287016168ee565b9250506101c061697f86828701616922565b9150509250925092565b5f5f6040838503121561699f5761699e6162cb565b5b5f6169ac85828601616433565b92505060206169bd85828601616319565b9150509250929050565b5f6080820190506169da5f83018761629a565b6169e7602083018661629a565b6169f4604083018561629a565b616a01606083018461660c565b95945050505050565b5f5f5f60608486031215616a2157616a206162cb565b5b5f616a2e86828701616433565b9350506020616a3f86828701616319565b9250506040616a5086828701616319565b9150509250925092565b5f616a648261650d565b9050919050565b616a7481616a5a565b82525050565b5f602082019050616a8d5f830184616a6b565b92915050565b5f5f60408385031215616aa957616aa86162cb565b5b5f616ab685828601616319565b9250506020616ac785828601616319565b9150509250929050565b5f604082019050616ae45f8301856166bf565b616af160208301846166bf565b9392505050565b5f5f5f5f5f5f5f610260888a031215616b1457616b136162cb565b5b5f616b218a828b01616433565b9750506020616b328a828b01616433565b9650506040616b438a828b01616433565b9550506060616b548a828b01616433565b9450506080616b658a828b016168cf565b935050610200616b778a828b016168ee565b925050610240616b898a828b01616922565b91505092959891949750929550565b5f81519050616ba68161641d565b92915050565b5f60208284031215616bc157616bc06162cb565b5b5f616bce84828501616b98565b91505092915050565b7f4e487b71000000000000000000000000000000000000000000000000000000005f52601160045260245ffd5b5f616c0e82616291565b9150616c1983616291565b9250828202616c2781616291565b91508282048414831517616c3e57616c3d616bd7565b5b5092915050565b7f4e487b71000000000000000000000000000000000000000000000000000000005f52601260045260245ffd5b5f616c7c82616291565b9150616c8783616291565b925082616c9757616c96616c45565b5b828204905092915050565b7f4e487b71000000000000000000000000000000000000000000000000000000005f52602260045260245ffd5b5f6002820490506001821680616ce657607f821691505b602082108103616cf957616cf8616ca2565b5b50919050565b5f616d09826165d8565b9150616d14836165d8565b9250828201905060ff811115616d2d57616d2c616bd7565b5b92915050565b7f496e76616c696420626f72726f7720616d6f756e7400000000000000000000005f82015250565b5f616d67601583616397565b9150616d7282616d33565b602082019050919050565b5f6020820190508181035f830152616d9481616d5b565b9050919050565b5f604082019050616dae5f83018561660c565b616dbb602083018461660c565b9392505050565b616dcb816164b0565b8114616dd5575f5ffd5b50565b5f81519050616de681616dc2565b92915050565b5f60208284031215616e0157616e006162cb565b5b5f616e0e84828501616dd8565b91505092915050565b7f446561646c696e652065786365656465640000000000000000000000000000005f82015250565b5f616e4b601183616397565b9150616e5682616e17565b602082019050919050565b5f6020820190508181035f830152616e7881616e3f565b9050919050565b7f496e76616c6964206d696e4f75742061727261790000000000000000000000005f82015250565b5f616eb3601483616397565b9150616ebe82616e7f565b602082019050919050565b5f6020820190508181035f830152616ee081616ea7565b9050919050565b7f4d75737420776974686472617720616c6c20736861726573206f6e2066696e615f8201527f6c206e6f6e636500000000000000000000000000000000000000000000000000602082015250565b5f616f41602783616397565b9150616f4c82616ee7565b604082019050919050565b5f6020820190508181035f830152616f6e81616f35565b9050919050565b7f4e487b71000000000000000000000000000000000000000000000000000000005f52603260045260245ffd5b7f496e73756666696369656e7420555344430000000000000000000000000000005f82015250565b5f616fd6601183616397565b9150616fe182616fa2565b602082019050919050565b5f6020820190508181035f83015261700381616fca565b9050919050565b7f496e73756666696369656e7420574554480000000000000000000000000000005f82015250565b5f61703e601183616397565b91506170498261700a565b602082019050919050565b5f6020820190508181035f83015261706b81617032565b9050919050565b7f4465627420746f6f2068696768000000000000000000000000000000000000005f82015250565b5f6170a6600d83616397565b91506170b182617072565b602082019050919050565b5f6020820190508181035f8301526170d38161709a565b9050919050565b5f6170e482616291565b91506170ef83616291565b925082820190508082111561710757617106616bd7565b5b92915050565b5f6040820190506171205f83018561660c565b61712d602083018461629a565b9392505050565b5f61713e82616291565b915061714983616291565b925082820390508181111561716157617160616bd7565b5b92915050565b7f506f6f6c20616c726561647920696e7374616c6c6564000000000000000000005f82015250565b5f61719b601683616397565b91506171a682617167565b602082019050919050565b5f6020820190508181035f8301526171c88161718f565b9050919050565b5f5ffd5b7f4e487b71000000000000000000000000000000000000000000000000000000005f52604160045260245ffd5b617209826163b5565b810181811067ffffffffffffffff82111715617228576172276171d3565b5b80604052505050565b5f61723a6162c2565b90506172468282617200565b919050565b617254816166a6565b811461725e575f5ffd5b50565b5f8135905061726f8161724b565b92915050565b5f610180828403121561728b5761728a6171cf565b5b617296610180617231565b90505f6172a584828501616319565b5f8301525060206172b884828501616319565b60208301525060406172cc84828501616319565b60408301525060606172e084828501617261565b60608301525060806172f484828501617261565b60808301525060a061730884828501616433565b60a08301525060c061731c84828501616433565b60c08301525060e061733084828501616433565b60e08301525061010061734584828501616433565b6101008301525061012061735b84828501616433565b6101208301525061014061737184828501616433565b6101408301525061016061738784828501616319565b6101608301525092915050565b5f61018082840312156173aa576173a96162cb565b5b5f6173b784828501617275565b91505092915050565b5f604082840312156173d5576173d46171cf565b5b6173df6040617231565b90505f6173ee84828501617261565b5f83015250602061740184828501617261565b60208301525092915050565b5f60408284031215617422576174216162cb565b5b5f61742f848285016173c0565b91505092915050565b5f60608201905061744b5f83018661660c565b617458602083018561629a565b617465604083018461629a565b949350505050565b7f4e6f205553444320746f206c656e6400000000000000000000000000000000005f82015250565b5f6174a1600f83616397565b91506174ac8261746d565b602082019050919050565b5f6020820190508181035f8301526174ce81617495565b9050919050565b7f4e6f205745544820746f206c656e6400000000000000000000000000000000005f82015250565b5f617509600f83616397565b9150617514826174d5565b602082019050919050565b5f6020820190508181035f830152617536816174fd565b9050919050565b7f4e6f2055534443206465627420746f20726570617900000000000000000000005f82015250565b5f617571601583616397565b915061757c8261753d565b602082019050919050565b5f6020820190508181035f83015261759e81617565565b9050919050565b7f496e73756666696369656e7420555344432062616c616e636520666f722072655f8201527f7061796d656e7400000000000000000000000000000000000000000000000000602082015250565b5f6175ff602783616397565b915061760a826175a5565b604082019050919050565b5f6020820190508181035f83015261762c816175f3565b9050919050565b7f4e6f206465627420746f207265706179000000000000000000000000000000005f82015250565b5f617667601083616397565b915061767282617633565b602082019050919050565b5f6020820190508181035f8301526176948161765b565b9050919050565b7f496e73756666696369656e7420574554482062616c616e636520666f722072655f8201527f7061796d656e7400000000000000000000000000000000000000000000000000602082015250565b5f6176f5602783616397565b91506177008261769b565b604082019050919050565b5f6020820190508181035f830152617722816176e9565b9050919050565b7f4e6f20706f6f6c20696e7374616c6c65640000000000000000000000000000005f82015250565b5f61775d601183616397565b915061776882617729565b602082019050919050565b5f6020820190508181035f83015261778a81617751565b9050919050565b7f496e73756666696369656e7420555344432062616c616e6365000000000000005f82015250565b5f6177c5601983616397565b91506177d082617791565b602082019050919050565b5f6020820190508181035f8301526177f2816177b9565b9050919050565b7f496e73756666696369656e7420574554482062616c616e6365000000000000005f82015250565b5f61782d601983616397565b9150617838826177f9565b602082019050919050565b5f6020820190508181035f83015261785a81617821565b9050919050565b5f8160011c9050919050565b5f5f8291508390505b60018511156178b65780860481111561789257617891616bd7565b5b60018516156178a15780820291505b80810290506178af85617861565b9450617876565b94509492505050565b5f826178ce5760019050617989565b816178db575f9050617989565b81600181146178f157600281146178fb5761792a565b6001915050617989565b60ff84111561790d5761790c616bd7565b5b8360020a91508482111561792457617923616bd7565b5b50617989565b5060208310610133831016604e8410600b841016171561795f5782820a90508381111561795a57617959616bd7565b5b617989565b61796c848484600161786d565b9250905081840481111561798357617982616bd7565b5b81810290505b9392505050565b5f61799a82616291565b91506179a5836165d8565b92506179d27fffffffffffffffffffffffffffffffffffffffffffffffffffffffffffffffff84846178bf565b905092915050565b7f4e6f6e636520746f6f206c6172676500000000000000000000000000000000005f82015250565b5f617a0e600f83616397565b9150617a19826179da565b602082019050919050565b5f6020820190508181035f830152617a3b81617a02565b9050919050565b5f819050919050565b5f617a65617a60617a5b84617a42565b6164e3565b616291565b9050919050565b617a7581617a4b565b82525050565b5f81519050919050565b5f82825260208201905092915050565b5f617a9f82617a7b565b617aa98185617a85565b9350617ab98185602086016163a7565b617ac2816163b5565b840191505092915050565b5f608082019050617ae05f83018761660c565b617aed602083018661660c565b617afa6040830185617a6c565b8181036060830152617b0c8184617a95565b905095945050505050565b5f5ffd5b5f67ffffffffffffffff821115617b3557617b346171d3565b5b617b3e826163b5565b9050602081019050919050565b5f617b5d617b5884617b1b565b617231565b905082815260208101848484011115617b7957617b78617b17565b5b617b848482856163a7565b509392505050565b5f82601f830112617ba057617b9f616786565b5b8151617bb0848260208601617b4b565b91505092915050565b5f60208284031215617bce57617bcd6162cb565b5b5f82015167ffffffffffffffff811115617beb57617bea6162cf565b5b617bf784828501617b8c565b91505092915050565b5f606082019050617c135f83018661660c565b617c20602083018561660c565b617c2d604083018461629a565b949350505050565b617c3e816162f2565b82525050565b617c4d816166a6565b82525050565b617c5c81616291565b82525050565b61018082015f820151617c775f850182617c35565b506020820151617c8a6020850182617c35565b506040820151617c9d6040850182617c35565b506060820151617cb06060850182617c44565b506080820151617cc36080850182617c44565b5060a0820151617cd660a0850182617c53565b5060c0820151617ce960c0850182617c53565b5060e0820151617cfc60e0850182617c53565b50610100820151617d11610100850182617c53565b50610120820151617d26610120850182617c53565b50610140820151617d3b610140850182617c53565b50610160820151617d50610160850182617c35565b50505050565b604082015f820151617d6a5f850182617c44565b506020820151617d7d6020850182617c44565b50505050565b5f6101e082019050617d975f830186617c62565b617da5610180830185617d56565b617db36101c08301846165b0565b949350505050565b5f81519050617dc981616303565b92915050565b5f60208284031215617de457617de36162cb565b5b5f617df184828501617dbb565b91505092915050565b5f61018082019050617e0e5f830184617c62565b92915050565b7f43616e6e6f74206465706f7369743a20757365722068617320726561636865645f8201527f207375622d6163636f756e74206c696d69740000000000000000000000000000602082015250565b5f617e6e603283616397565b9150617e7982617e14565b604082019050919050565b5f6020820190508181035f830152617e9b81617e62565b9050919050565b7f4e487b71000000000000000000000000000000000000000000000000000000005f52602160045260245ffd5b5f617ed9826165d8565b9150617ee4836165d8565b925082617ef457617ef3616c45565b5b82820690509291505056fea26469706673582212200191112f9777ab5046fe42cb0e05eb92c0a0330517e0b9dfcc17e5137c17160464736f6c634300081b0033","linkReferences":{}},"methodIdentifiers":{"allowance(address,address)":"dd62ed3e","approve(address,uint256)":"095ea7b3","asset()":"38d52e0f","balanceOf(address)":"70a08231","borrowUsdc(uint256)":"631a20ba","borrowWeth(uint256)":"41fd7478","convertToAssets(uint256)":"07a2d13a","convertToShares(uint256)":"c6e6f592","currentPool()":"692b69ae","decimals()":"313ce567","deposit(uint256,address)":"6e553f65","evc()":"0fb411e8","factory()":"c45a0155","getPositions()":"80275860","getUserNonceInfo(address)":"5659df08","installPool((address,address,address,uint112,uint112,uint256,uint256,uint256,uint256,uint256,uint256,address),(uint112,uint112),bytes32)":"5c572e3e","lastInitialState()":"ea02f72c","lastParams()":"50392716","lastSalt()":"30996b97","lendUsdc()":"8c24ff32","lendWeth()":"96c89de5","maxDeposit(address)":"402d267d","maxMint(address)":"c63d75b6","maxRedeem(address)":"d905777e","maxWithdraw(address)":"ce96cb77","mint(uint256,address)":"94bf804d","name()":"06fdde03","owner()":"8da5cb5b","previewDeposit(uint256)":"ef8b30f7","previewMint(uint256)":"b3d7f6b9","previewProportionalWithdraw(address)":"06a92512","previewRedeem(uint256)":"4cdad506","previewWithdraw(uint256)":"0a28a477","previewWithdrawalSubAccount(address)":"f78ed1db","rebalance(uint256,uint256,uint256,uint256,(address,address,address,uint112,uint112,uint256,uint256,uint256,uint256,uint256,uint256,address),(uint112,uint112),bytes32)":"fa6e63a7","redeem(uint256,address,address)":"ba087652","renounceOwnership()":"715018a6","repayUsdc(uint256)":"ec900795","repayWeth(uint256)":"f442c17d","symbol()":"95d89b41","totalAssets()":"01e1d114","totalSupply()":"18160ddd","transfer(address,uint256)":"a9059cbb","transferFrom(address,address,uint256)":"23b872dd","transferOwnership(address)":"f2fde38b","uninstallPool()":"f75b102d","usdcVault()":"45c397eb","userNonces(address)":"2f7801f4","weth()":"3fc8cef3","wethVault()":"be93981f","withdraw(uint256,address,address)":"b460af94","withdrawToSubAccount(uint256,address,address,uint256[],uint256)":"50500774"},"id":42}